{
  "contractName": "LimitOrderMonitorETH",
  "abi": [
    {
      "anonymous": false,
      "inputs": [
        {
          "indexed": false,
          "internalType": "uint256",
          "name": "batchId",
          "type": "uint256"
        },
        {
          "indexed": false,
          "internalType": "uint256",
          "name": "batchSize",
          "type": "uint256"
        },
        {
          "indexed": false,
          "internalType": "uint256",
          "name": "gasUsed",
          "type": "uint256"
        },
        {
          "indexed": false,
          "internalType": "uint256",
          "name": "paymentPaid",
          "type": "uint256"
        },
        {
          "indexed": false,
          "internalType": "bytes",
          "name": "data",
          "type": "bytes"
        }
      ],
      "name": "BatchProcessed",
      "type": "event"
    },
    {
      "inputs": [],
      "name": "KROM",
      "outputs": [
        {
          "internalType": "contract IERC20",
          "name": "",
          "type": "address"
        }
      ],
      "stateMutability": "view",
      "type": "function"
    },
    {
      "inputs": [],
      "name": "POOL_FEE",
      "outputs": [
        {
          "internalType": "uint24",
          "name": "",
          "type": "uint24"
        }
      ],
      "stateMutability": "view",
      "type": "function"
    },
    {
      "inputs": [],
      "name": "WETH",
      "outputs": [
        {
          "internalType": "contract IWETH9",
          "name": "",
          "type": "address"
        }
      ],
      "stateMutability": "view",
      "type": "function"
    },
    {
      "inputs": [],
      "name": "WETHExt",
      "outputs": [
        {
          "internalType": "contract WETHExtended",
          "name": "",
          "type": "address"
        }
      ],
      "stateMutability": "view",
      "type": "function"
    },
    {
      "inputs": [],
      "name": "batchCount",
      "outputs": [
        {
          "internalType": "uint256",
          "name": "",
          "type": "uint256"
        }
      ],
      "stateMutability": "view",
      "type": "function"
    },
    {
      "inputs": [],
      "name": "batchSize",
      "outputs": [
        {
          "internalType": "uint256",
          "name": "",
          "type": "uint256"
        }
      ],
      "stateMutability": "view",
      "type": "function"
    },
    {
      "inputs": [
        {
          "internalType": "address",
          "name": "_controller",
          "type": "address"
        }
      ],
      "name": "changeController",
      "outputs": [],
      "stateMutability": "nonpayable",
      "type": "function"
    },
    {
      "inputs": [
        {
          "internalType": "address",
          "name": "_keeper",
          "type": "address"
        }
      ],
      "name": "changeKeeper",
      "outputs": [],
      "stateMutability": "nonpayable",
      "type": "function"
    },
    {
      "inputs": [
        {
          "internalType": "bytes",
          "name": "",
          "type": "bytes"
        }
      ],
      "name": "checkUpkeep",
      "outputs": [
        {
          "internalType": "bool",
          "name": "upkeepNeeded",
          "type": "bool"
        },
        {
          "internalType": "bytes",
          "name": "performData",
          "type": "bytes"
        }
      ],
      "stateMutability": "nonpayable",
      "type": "function"
    },
    {
      "inputs": [],
      "name": "controller",
      "outputs": [
        {
          "internalType": "address",
          "name": "",
          "type": "address"
        }
      ],
      "stateMutability": "view",
      "type": "function"
    },
    {
      "inputs": [],
      "name": "factory",
      "outputs": [
        {
          "internalType": "contract IUniswapV3Factory",
          "name": "",
          "type": "address"
        }
      ],
      "stateMutability": "view",
      "type": "function"
    },
    {
      "inputs": [],
      "name": "keeper",
      "outputs": [
        {
          "internalType": "address",
          "name": "",
          "type": "address"
        }
      ],
      "stateMutability": "view",
      "type": "function"
    },
    {
      "inputs": [],
      "name": "lastUpkeep",
      "outputs": [
        {
          "internalType": "uint256",
          "name": "",
          "type": "uint256"
        }
      ],
      "stateMutability": "view",
      "type": "function"
    },
    {
      "inputs": [],
      "name": "monitorSize",
      "outputs": [
        {
          "internalType": "uint256",
          "name": "",
          "type": "uint256"
        }
      ],
      "stateMutability": "view",
      "type": "function"
    },
    {
      "inputs": [],
      "name": "orderManager",
      "outputs": [
        {
          "internalType": "contract IOrderManager",
          "name": "",
          "type": "address"
        }
      ],
      "stateMutability": "view",
      "type": "function"
    },
    {
      "inputs": [
        {
          "internalType": "bytes",
          "name": "performData",
          "type": "bytes"
        }
      ],
      "name": "performUpkeep",
      "outputs": [],
      "stateMutability": "nonpayable",
      "type": "function"
    },
    {
      "inputs": [
        {
          "internalType": "uint256",
          "name": "_batchSize",
          "type": "uint256"
        }
      ],
      "name": "setBatchSize",
      "outputs": [],
      "stateMutability": "nonpayable",
      "type": "function"
    },
    {
      "inputs": [
        {
          "internalType": "uint256",
          "name": "_monitorSize",
          "type": "uint256"
        }
      ],
      "name": "setMonitorSize",
      "outputs": [],
      "stateMutability": "nonpayable",
      "type": "function"
    },
    {
      "inputs": [
        {
          "internalType": "uint256",
          "name": "_upkeepInterval",
          "type": "uint256"
        }
      ],
      "name": "setUpkeepInterval",
      "outputs": [],
      "stateMutability": "nonpayable",
      "type": "function"
    },
    {
      "inputs": [
        {
          "internalType": "uint256",
          "name": "_tokenId",
          "type": "uint256"
        }
      ],
      "name": "startMonitor",
      "outputs": [],
      "stateMutability": "nonpayable",
      "type": "function"
    },
    {
      "inputs": [
        {
          "internalType": "uint256",
          "name": "_tokenId",
          "type": "uint256"
        }
      ],
      "name": "stopMonitor",
      "outputs": [],
      "stateMutability": "nonpayable",
      "type": "function"
    },
    {
      "inputs": [],
      "name": "swapRouter",
      "outputs": [
        {
          "internalType": "contract ISwapRouter",
          "name": "",
          "type": "address"
        }
      ],
      "stateMutability": "view",
      "type": "function"
    },
    {
      "inputs": [
        {
          "internalType": "uint256",
          "name": "",
          "type": "uint256"
        }
      ],
      "name": "tokenIds",
      "outputs": [
        {
          "internalType": "uint256",
          "name": "",
          "type": "uint256"
        }
      ],
      "stateMutability": "view",
      "type": "function"
    },
    {
      "inputs": [
        {
          "internalType": "uint256",
          "name": "",
          "type": "uint256"
        }
      ],
      "name": "tokenIndexPerTokenId",
      "outputs": [
        {
          "internalType": "uint256",
          "name": "",
          "type": "uint256"
        }
      ],
      "stateMutability": "view",
      "type": "function"
    },
    {
      "inputs": [],
      "name": "upkeepInterval",
      "outputs": [
        {
          "internalType": "uint256",
          "name": "",
          "type": "uint256"
        }
      ],
      "stateMutability": "view",
      "type": "function"
    },
    {
      "inputs": [
        {
          "internalType": "contract IOrderManager",
          "name": "_orderManager",
          "type": "address"
        },
        {
          "internalType": "contract IUniswapV3Factory",
          "name": "_factory",
          "type": "address"
        },
        {
          "internalType": "contract IERC20",
          "name": "_KROM",
          "type": "address"
        },
        {
          "internalType": "address",
          "name": "_keeper",
          "type": "address"
        },
        {
          "internalType": "uint256",
          "name": "_batchSize",
          "type": "uint256"
        },
        {
          "internalType": "uint256",
          "name": "_monitorSize",
          "type": "uint256"
        },
        {
          "internalType": "uint256",
          "name": "_upkeepInterval",
          "type": "uint256"
        },
        {
          "internalType": "contract ISwapRouter",
          "name": "_swapRouter",
          "type": "address"
        },
        {
          "internalType": "contract IWETH9",
          "name": "_WETH",
          "type": "address"
        },
        {
          "internalType": "contract WETHExtended",
          "name": "_WETHExt",
          "type": "address"
        }
      ],
      "name": "initialize",
      "outputs": [],
      "stateMutability": "nonpayable",
      "type": "function"
    },
    {
      "inputs": [
        {
          "internalType": "contract IOrderManager",
          "name": "_orderManager",
          "type": "address"
        },
        {
          "internalType": "contract IUniswapV3Factory",
          "name": "_factory",
          "type": "address"
        },
        {
          "internalType": "contract IERC20",
          "name": "_KROM",
          "type": "address"
        },
        {
          "internalType": "address",
          "name": "_keeper",
          "type": "address"
        },
        {
          "internalType": "uint256",
          "name": "_batchSize",
          "type": "uint256"
        },
        {
          "internalType": "uint256",
          "name": "_monitorSize",
          "type": "uint256"
        },
        {
          "internalType": "uint256",
          "name": "_upkeepInterval",
          "type": "uint256"
        }
      ],
      "name": "initialize",
      "outputs": [],
      "stateMutability": "nonpayable",
      "type": "function"
    }
  ],
  "bytecode": "0x608060405234801561001057600080fd5b5061177b806100206000396000f3fe608060405234801561001057600080fd5b50600436106101a95760003560e01c8063aced1661116100f9578063d859557211610097578063ea02c9da11610071578063ea02c9da14610335578063f4daaba11461033d578063f77c479114610345578063f9b6117f1461034d576101a9565b8063d8595572146102fa578063dd1b9c4a1461030d578063e77fc7a414610322576101a9565b8063c31c9c07116100d3578063c31c9c07146102cf578063c45a0155146102d7578063c803206f146102df578063d58778d6146102e7576101a9565b8063aced16611461029f578063ad5c4648146102b4578063b53e7660146102bc576101a9565b80634e924fe0116101665780636e04ff0d116101405780636e04ff0d1461025057806372e4c9f614610271578063860965c6146102845780639bb0dafa1461028c576101a9565b80634e924fe014610222578063576f35e3146102355780635a74373c14610248576101a9565b806306f13056146101ae57806309779838146101cc5780632bc723fc146101e15780633cebb823146101f45780633d7c5d3e146102075780634585e33b1461020f575b600080fd5b6101b6610355565b6040516101c39190611666565b60405180910390f35b6101df6101da366004611132565b61035b565b005b6101b66101ef366004611419565b610385565b6101df610202366004611132565b610397565b6101b66103c1565b6101df61021d366004611250565b6103c7565b6101df610230366004611333565b6105ce565b6101df610243366004611419565b6106c6565b6101b661071f565b61026361025e366004611250565b610725565b6040516101c39291906114be565b6101df61027f366004611419565b6108b9565b6101b66108c6565b6101df61029a366004611419565b6108cc565b6102a761091d565b6040516101c39190611449565b6102a761092c565b6101df6102ca366004611419565b61093b565b6102a76109cf565b6102a76109de565b6102a76109ed565b6101b66102f5366004611419565b6109fc565b6101df610308366004611419565b610a1d565b610315610a53565b6040516101c39190611656565b6101df6103303660046112bd565b610a59565b6102a7610c46565b6101b6610c55565b6102a7610c5b565b6102a7610c6a565b600c5481565b610363610c79565b600480546001600160a01b0319166001600160a01b0392909216919091179055565b60016020526000908152604090205481565b61039f610c79565b600380546001600160a01b0319166001600160a01b0392909216919091179055565b60085481565b6103cf610c92565b60005a600c8054600101905590506000806103ec8486018661114e565b9150915060008060008060008060005b8781101561055d5788818151811061041057fe5b6020908102919091010151600554604051633b0c25ad60e01b81529193506001600160a01b031690633b0c25ad9061044e9085903a9060040161168e565b606060405180830381600087803b15801561046857600080fd5b505af115801561047c573d6000803e3d6000fd5b505050506040513d601f19601f820116820180604052508101906104a0919061121c565b919650945092508415610555576001909501946104bc82610ca9565b600554600c5460405163ceeb857b60e01b81526001600160a01b039092169163ceeb857b916104f4918691908990899060040161169c565b6040805180830381600087803b15801561050d57600080fd5b505af1158015610521573d6000803e3d6000fd5b505050506040513d601f19601f8201168201806040525081019061054591906113e7565b5061055290508784610d2e565b96505b6001016103fc565b50505050506000811161056f57600080fd5b5a43600855909403936105828233610d8f565b7f6f25cb256dfaa102b8807fbe67685c9b46d73f2f68dbe8c2fcfc12c7d75a1839600c548287858b8b6040516105bd969594939291906116b7565b60405180910390a150505050505050565b600054610100900460ff16806105e757506105e7610ef0565b806105f5575060005460ff16155b6106305760405162461bcd60e51b815260040180806020018281038252602e815260200180611718602e913960400191505060405180910390fd5b600054610100900460ff1615801561065b576000805460ff1961ff0019909116610100171660011790555b61066a8b8b8b8b8b8b8b610a59565b600d80546001600160a01b038087166001600160a01b031992831617909255600e8054868416908316179055600f80549285169290911691909117905580156106b9576000805461ff00191690555b5050505050505050505050565b6106ce610c79565b60648111156106f85760405162461bcd60e51b81526004016106ef906115c1565b60405180910390fd5b600a5481111561071a5760405162461bcd60e51b81526004016106ef90611574565b600955565b600b5481565b60006060600b54600854610737610f01565b0311915081156108b25760008060095467ffffffffffffffff8111801561075d57600080fd5b50604051908082528060200260200182016040528015610787578160200160208202803683370190505b5090506000805b60025481101561087e57600281815481106107a557fe5b6000918252602090912001546005549094506001600160a01b0316633b0c25ad856107cf3a610f05565b6040518363ffffffff1660e01b81526004016107ec92919061168e565b606060405180830381600087803b15801561080657600080fd5b505af115801561081a573d6000803e3d6000fd5b505050506040513d601f19601f8201168201806040525081019061083e919061121c565b50909650508515610868578383838151811061085657fe5b60209081029190910101526001909101905b60095482106108765761087e565b60010161078e565b508015801595506108ae57818160405160200161089c929190611476565b60405160208183030381529060405293505b5050505b9250929050565b6108c1610c79565b600b55565b600a5481565b6108d4610c79565b6127108111156108f65760405162461bcd60e51b81526004016106ef9061151b565b6009548110156109185760405162461bcd60e51b81526004016106ef90611574565b600a55565b6004546001600160a01b031681565b600e546001600160a01b031681565b6005546001600160a01b031633146109655760405162461bcd60e51b81526004016106ef90611549565b600a54600254106109885760405162461bcd60e51b81526004016106ef9061159b565b60028054600181810183557f405787fa12a823e0f2b7631cc41b3ba8828b3321ca811111fa75cd3aa3bb5ace90910183905590546000928352602091909152604090912055565b600d546001600160a01b031681565b6006546001600160a01b031681565b6007546001600160a01b031681565b60028181548110610a0c57600080fd5b600091825260209091200154905081565b6005546001600160a01b03163314610a475760405162461bcd60e51b81526004016106ef90611549565b610a5081610ca9565b50565b610bb881565b600054610100900460ff1680610a725750610a72610ef0565b80610a80575060005460ff16155b610abb5760405162461bcd60e51b815260040180806020018281038252602e815260200180611718602e913960400191505060405180910390fd5b600054610100900460ff16158015610ae6576000805460ff1961ff0019909116610100171660011790555b6064841115610b075760405162461bcd60e51b81526004016106ef906115c1565b612710831115610b295760405162461bcd60e51b81526004016106ef9061151b565b82841115610b495760405162461bcd60e51b81526004016106ef90611574565b600580546001600160a01b03808b166001600160a01b03199283161792839055600680548b8316908416179055600780548a831690841617908190556009889055600a879055600b86905560038054841633179055600480548a8416941693909317835560405163095ea7b360e01b81529082169363095ea7b393610bd7939190911691600019910161145d565b602060405180830381600087803b158015610bf157600080fd5b505af1158015610c05573d6000803e3d6000fd5b505050506040513d601f19601f82011682018060405250810190610c299190611202565b508015610c3c576000805461ff00191690555b5050505050505050565b600f546001600160a01b031681565b60095481565b6003546001600160a01b031681565b6005546001600160a01b031681565b6003546001600160a01b03163314610c9057600080fd5b565b6004546001600160a01b03163314610c9057600080fd5b6000818152600160205260408120546002805460001992830193928101908110610ccf57fe5b90600052602060002001549050610ce7826002610f1d565b600254610d0257600081815260016020526040812055610d29565b6002548214610d295760008181526001602081905260408083209185019091558482528120555b505050565b600082820183811015610d88576040805162461bcd60e51b815260206004820152601b60248201527f536166654d6174683a206164646974696f6e206f766572666c6f770000000000604482015290519081900360640190fd5b9392505050565b8115610eec57600754600d54610db2916001600160a01b03908116911684610faa565b60408051610100810182526007546001600160a01b039081168252600e5481166020830152610bb882840152600f548116606083015242608083015260a08201859052600060c0830181905260e0830152600d54925163414bf38960e01b81529192169063414bf38990610e2a9084906004016115ed565b602060405180830381600087803b158015610e4457600080fd5b505af1158015610e58573d6000803e3d6000fd5b505050506040513d601f19601f82011682018060405250810190610e7c9190611431565b600f54600e54604051632d182be560e21b81529295506001600160a01b039182169263b460af9492610eb892889288929091169060040161166f565b600060405180830381600087803b158015610ed257600080fd5b505af1158015610ee6573d6000803e3d6000fd5b50505050505b5050565b6000610efb306110f8565b15905090565b4390565b6000808211610f15576000610f17565b815b92915050565b805460001901821415610f4f5780805480610f3457fe5b60019003818190600052602060002001600090559055610eec565b805481906000198101908110610f6157fe5b9060005260206000200154818381548110610f7857fe5b906000526020600020018190555080805480610f9057fe5b600190038181906000526020600020016000905590555050565b604080516001600160a01b038481166024830152604480830185905283518084039091018152606490920183526020820180516001600160e01b031663095ea7b360e01b1781529251825160009485949389169392918291908083835b602083106110265780518252601f199092019160209182019101611007565b6001836020036101000a0380198251168184511680821785525050505050509050019150506000604051808303816000865af19150503d8060008114611088576040519150601f19603f3d011682016040523d82523d6000602084013e61108d565b606091505b50915091508180156110bb5750805115806110bb57508080602001905160208110156110b857600080fd5b50515b6110f1576040805162461bcd60e51b8152602060048201526002602482015261534160f01b604482015290519081900360640190fd5b5050505050565b803b15155b919050565b805180151581146110fd57600080fd5b80516fffffffffffffffffffffffffffffffff811681146110fd57600080fd5b600060208284031215611143578081fd5b8135610d8881611702565b60008060408385031215611160578081fd5b823567ffffffffffffffff80821115611177578283fd5b818501915085601f83011261118a578283fd5b813560208282111561119857fe5b808202604051828282010181811086821117156111b157fe5b604052838152828101945085830182870184018b10156111cf578788fd5b8796505b848710156111f15780358652600196909601959483019483016111d3565b509997909101359750505050505050565b600060208284031215611213578081fd5b610d8882611102565b600080600060608486031215611230578081fd5b61123984611102565b925060208401519150604084015190509250925092565b60008060208385031215611262578182fd5b823567ffffffffffffffff80821115611279578384fd5b818501915085601f83011261128c578384fd5b81358181111561129a578485fd5b8660208285010111156112ab578485fd5b60209290920196919550909350505050565b600080600080600080600060e0888a0312156112d7578283fd5b87356112e281611702565b965060208801356112f281611702565b9550604088013561130281611702565b9450606088013561131281611702565b9699959850939660808101359560a0820135955060c0909101359350915050565b6000806000806000806000806000806101408b8d031215611352578283fd5b8a3561135d81611702565b995060208b013561136d81611702565b985060408b013561137d81611702565b975060608b013561138d81611702565b965060808b0135955060a08b0135945060c08b0135935060e08b01356113b281611702565b92506101008b01356113c381611702565b91506101208b01356113d481611702565b809150509295989b9194979a5092959850565b600080604083850312156113f9578182fd5b61140283611112565b915061141060208401611112565b90509250929050565b60006020828403121561142a578081fd5b5035919050565b600060208284031215611442578081fd5b5051919050565b6001600160a01b0391909116815260200190565b6001600160a01b03929092168252602082015260400190565b604080825283519082018190526000906020906060840190828701845b828110156114af57815184529284019290840190600101611493565b50505092019290925292915050565b6000831515825260206040818401528351806040850152825b818110156114f3578581018301518582016060015282016114d7565b818111156115045783606083870101525b50601f01601f191692909201606001949350505050565b602080825260149082015273494e56414c49445f4d4f4e49544f525f53495a4560601b604082015260600190565b6020808252601190820152702727aa2faa2920a222afa6a0a720a3a2a960791b604082015260600190565b6020808252600d908201526c0a692b48abe9a92a69a82a8869609b1b604082015260600190565b6020808252600c908201526b1353d3925513d497d195531360a21b604082015260600190565b602080825260129082015271494e56414c49445f42415443485f53495a4560701b604082015260600190565b81516001600160a01b03908116825260208084015182169083015260408084015162ffffff16908301526060808401518216908301526080808401519083015260a0838101519083015260c0808401519083015260e09283015116918101919091526101000190565b62ffffff91909116815260200190565b90815260200190565b9283526001600160a01b03918216602084015216604082015260600190565b918252602082015260400190565b93845260208401929092526040830152606082015260800190565b600087825286602083015285604083015284606083015260a060808301528260a0830152828460c084013781830160c090810191909152601f909201601f1916010195945050505050565b6001600160a01b0381168114610a5057600080fdfe496e697469616c697a61626c653a20636f6e747261637420697320616c726561647920696e697469616c697a6564a2646970667358221220cdba63bf70d4581075a852b8ee3c567bdfbebdf81e3047fb22978bb63b6c5f9e64736f6c63430007060033",
  "immutableReferences": {},
  "source": "// SPDX-License-Identifier: MIT\n\npragma solidity >=0.7.5;\npragma abicoder v2;\n\nimport \"@uniswap/v3-periphery/contracts/interfaces/ISwapRouter.sol\";\nimport \"@uniswap/v3-periphery/contracts/interfaces/external/IWETH9.sol\";\n\nimport \"./LimitOrderMonitor.sol\";\nimport \"./WETHExtended.sol\";\n\n/// @title  LimitOrderMonitorETH\ncontract LimitOrderMonitorETH is LimitOrderMonitor {\n\n    uint24 public constant POOL_FEE = 3000;\n\n    /// @dev swap router\n    ISwapRouter public swapRouter;\n\n    /// @dev wrapper ETH\n    IWETH9 public WETH;\n\n    /// @dev simple WETH adapter\n    WETHExtended public WETHExt;\n\n    function initialize(IOrderManager _orderManager,\n        IUniswapV3Factory _factory,\n        IERC20 _KROM,\n        address _keeper,\n        uint256 _batchSize,\n        uint256 _monitorSize,\n        uint256 _upkeepInterval,\n        ISwapRouter _swapRouter,\n        IWETH9 _WETH,\n        WETHExtended _WETHExt\n    ) public initializer {\n\n        super.initialize(\n            _orderManager, _factory, _KROM, _keeper,\n                _batchSize, _monitorSize, _upkeepInterval\n        );\n\n        swapRouter = _swapRouter;\n        WETH = _WETH;\n        WETHExt = _WETHExt;\n    }\n\n    function _transferFees(uint256 _amount, address _owner) internal virtual override  {\n\n        if (_amount > 0) {\n            // swap KROM into ETH\n            TransferHelper.safeApprove(address(KROM), address(swapRouter), _amount);\n\n            ISwapRouter.ExactInputSingleParams memory params =\n            ISwapRouter.ExactInputSingleParams({\n                tokenIn: address(KROM),\n                tokenOut: address(WETH),\n                fee: POOL_FEE,\n                recipient: address(WETHExt),\n                deadline: block.timestamp,\n                amountIn: _amount,\n                amountOutMinimum: 0,\n                sqrtPriceLimitX96: 0\n            });\n\n            // swap and send\n            _amount = swapRouter.exactInputSingle(params);\n\n            WETHExt.withdraw(_amount, _owner, WETH);\n        }\n    }\n}",
  "sourcePath": "/Users/aristokrates/Downloads/limit-trade-main/contracts/LimitOrderMonitorETH.sol",
  "compiler": {
    "name": "solc",
    "version": "0.7.6+commit.7338295f.Emscripten.clang"
  },
  "schemaVersion": "3.4.4",
  "updatedAt": "2021-12-19T21:38:43.882Z",
  "devdoc": {
    "kind": "dev",
    "methods": {
      "performUpkeep(bytes)": {
        "details": "The input to this method should not be trusted, and the caller of the method should not even be restricted to any single registry. Anyone should be able call it, and the input should be validated, there is no guarantee that the data passed in is the performData returned from checkUpkeep. This could happen due to malicious keepers, racing keepers, or simply a state change while the performUpkeep transaction is waiting for confirmation. Always validate the data passed in.",
        "params": {
          "performData": "is the data which was passed back from the checkData simulation. If it is encoded, it can easily be decoded into other types by calling `abi.decode`. This data should not be trusted, and should be validated against the contract's current state."
        }
      }
    },
    "stateVariables": {
      "WETH": {
        "details": "wrapper ETH"
      },
      "WETHExt": {
        "details": "simple WETH adapter"
      },
      "swapRouter": {
        "details": "swap router"
      }
    },
    "title": "LimitOrderMonitorETH",
    "version": 1
  },
  "userdoc": {
    "kind": "user",
    "methods": {
      "performUpkeep(bytes)": {
        "notice": "method that is actually executed by the keepers, via the registry. The data returned by the checkUpkeep simulation will be passed into this method to actually be executed."
      }
    },
    "version": 1
  }
}