{
  "contractName": "LimitOrderManager",
  "abi": [
    {
      "anonymous": false,
      "inputs": [
        {
          "indexed": true,
          "internalType": "address",
          "name": "owner",
          "type": "address"
        },
        {
          "indexed": true,
          "internalType": "address",
          "name": "approved",
          "type": "address"
        },
        {
          "indexed": true,
          "internalType": "uint256",
          "name": "tokenId",
          "type": "uint256"
        }
      ],
      "name": "Approval",
      "type": "event"
    },
    {
      "anonymous": false,
      "inputs": [
        {
          "indexed": true,
          "internalType": "address",
          "name": "owner",
          "type": "address"
        },
        {
          "indexed": true,
          "internalType": "address",
          "name": "operator",
          "type": "address"
        },
        {
          "indexed": false,
          "internalType": "bool",
          "name": "approved",
          "type": "bool"
        }
      ],
      "name": "ApprovalForAll",
      "type": "event"
    },
    {
      "anonymous": false,
      "inputs": [
        {
          "indexed": true,
          "internalType": "address",
          "name": "from",
          "type": "address"
        },
        {
          "indexed": false,
          "internalType": "uint256",
          "name": "amount",
          "type": "uint256"
        }
      ],
      "name": "FundingAdded",
      "type": "event"
    },
    {
      "anonymous": false,
      "inputs": [
        {
          "indexed": true,
          "internalType": "address",
          "name": "from",
          "type": "address"
        },
        {
          "indexed": false,
          "internalType": "uint256",
          "name": "amount",
          "type": "uint256"
        }
      ],
      "name": "FundingWithdrawn",
      "type": "event"
    },
    {
      "anonymous": false,
      "inputs": [
        {
          "indexed": true,
          "internalType": "address",
          "name": "owner",
          "type": "address"
        },
        {
          "indexed": true,
          "internalType": "uint256",
          "name": "tokenId",
          "type": "uint256"
        },
        {
          "indexed": false,
          "internalType": "uint256",
          "name": "amount0",
          "type": "uint256"
        },
        {
          "indexed": false,
          "internalType": "uint256",
          "name": "amount1",
          "type": "uint256"
        }
      ],
      "name": "LimitOrderCancelled",
      "type": "event"
    },
    {
      "anonymous": false,
      "inputs": [
        {
          "indexed": true,
          "internalType": "address",
          "name": "owner",
          "type": "address"
        },
        {
          "indexed": true,
          "internalType": "uint256",
          "name": "tokenId",
          "type": "uint256"
        },
        {
          "indexed": false,
          "internalType": "uint256",
          "name": "tokensOwed0",
          "type": "uint256"
        },
        {
          "indexed": false,
          "internalType": "uint256",
          "name": "tokensOwed1",
          "type": "uint256"
        }
      ],
      "name": "LimitOrderCollected",
      "type": "event"
    },
    {
      "anonymous": false,
      "inputs": [
        {
          "indexed": true,
          "internalType": "address",
          "name": "owner",
          "type": "address"
        },
        {
          "indexed": true,
          "internalType": "uint256",
          "name": "tokenId",
          "type": "uint256"
        },
        {
          "indexed": false,
          "internalType": "uint128",
          "name": "orderType",
          "type": "uint128"
        },
        {
          "indexed": false,
          "internalType": "uint160",
          "name": "sqrtPriceX96",
          "type": "uint160"
        },
        {
          "indexed": false,
          "internalType": "uint256",
          "name": "amount0",
          "type": "uint256"
        },
        {
          "indexed": false,
          "internalType": "uint256",
          "name": "amount1",
          "type": "uint256"
        }
      ],
      "name": "LimitOrderCreated",
      "type": "event"
    },
    {
      "anonymous": false,
      "inputs": [
        {
          "indexed": true,
          "internalType": "address",
          "name": "monitor",
          "type": "address"
        },
        {
          "indexed": true,
          "internalType": "uint256",
          "name": "tokenId",
          "type": "uint256"
        },
        {
          "indexed": false,
          "internalType": "uint256",
          "name": "batchId",
          "type": "uint256"
        },
        {
          "indexed": false,
          "internalType": "uint256",
          "name": "serviceFeePaid",
          "type": "uint256"
        }
      ],
      "name": "LimitOrderProcessed",
      "type": "event"
    },
    {
      "anonymous": false,
      "inputs": [
        {
          "indexed": true,
          "internalType": "address",
          "name": "from",
          "type": "address"
        },
        {
          "indexed": true,
          "internalType": "address",
          "name": "to",
          "type": "address"
        },
        {
          "indexed": true,
          "internalType": "uint256",
          "name": "tokenId",
          "type": "uint256"
        }
      ],
      "name": "Transfer",
      "type": "event"
    },
    {
      "stateMutability": "payable",
      "type": "fallback"
    },
    {
      "inputs": [],
      "name": "KROM",
      "outputs": [
        {
          "internalType": "contract IERC20",
          "name": "",
          "type": "address"
        }
      ],
      "stateMutability": "view",
      "type": "function"
    },
    {
      "inputs": [],
      "name": "PROTOCOL_FEE_MULTIPLIER",
      "outputs": [
        {
          "internalType": "uint256",
          "name": "",
          "type": "uint256"
        }
      ],
      "stateMutability": "view",
      "type": "function"
    },
    {
      "inputs": [],
      "name": "WETH",
      "outputs": [
        {
          "internalType": "contract IWETH9",
          "name": "",
          "type": "address"
        }
      ],
      "stateMutability": "view",
      "type": "function"
    },
    {
      "inputs": [],
      "name": "WETHExt",
      "outputs": [
        {
          "internalType": "contract WETHExtended",
          "name": "",
          "type": "address"
        }
      ],
      "stateMutability": "view",
      "type": "function"
    },
    {
      "inputs": [
        {
          "internalType": "address",
          "name": "",
          "type": "address"
        }
      ],
      "name": "activeOrders",
      "outputs": [
        {
          "internalType": "uint256",
          "name": "",
          "type": "uint256"
        }
      ],
      "stateMutability": "view",
      "type": "function"
    },
    {
      "inputs": [
        {
          "internalType": "address",
          "name": "to",
          "type": "address"
        },
        {
          "internalType": "uint256",
          "name": "tokenId",
          "type": "uint256"
        }
      ],
      "name": "approve",
      "outputs": [],
      "stateMutability": "nonpayable",
      "type": "function"
    },
    {
      "inputs": [
        {
          "internalType": "address",
          "name": "owner",
          "type": "address"
        }
      ],
      "name": "balanceOf",
      "outputs": [
        {
          "internalType": "uint256",
          "name": "",
          "type": "uint256"
        }
      ],
      "stateMutability": "view",
      "type": "function"
    },
    {
      "inputs": [],
      "name": "baseURI",
      "outputs": [
        {
          "internalType": "string",
          "name": "",
          "type": "string"
        }
      ],
      "stateMutability": "view",
      "type": "function"
    },
    {
      "inputs": [],
      "name": "controller",
      "outputs": [
        {
          "internalType": "address",
          "name": "",
          "type": "address"
        }
      ],
      "stateMutability": "view",
      "type": "function"
    },
    {
      "inputs": [],
      "name": "factory",
      "outputs": [
        {
          "internalType": "contract IUniswapV3Factory",
          "name": "",
          "type": "address"
        }
      ],
      "stateMutability": "view",
      "type": "function"
    },
    {
      "inputs": [],
      "name": "feeAddress",
      "outputs": [
        {
          "internalType": "address",
          "name": "",
          "type": "address"
        }
      ],
      "stateMutability": "view",
      "type": "function"
    },
    {
      "inputs": [
        {
          "internalType": "address",
          "name": "",
          "type": "address"
        }
      ],
      "name": "funding",
      "outputs": [
        {
          "internalType": "uint256",
          "name": "",
          "type": "uint256"
        }
      ],
      "stateMutability": "view",
      "type": "function"
    },
    {
      "inputs": [],
      "name": "gasUsageMonitor",
      "outputs": [
        {
          "internalType": "uint256",
          "name": "",
          "type": "uint256"
        }
      ],
      "stateMutability": "view",
      "type": "function"
    },
    {
      "inputs": [
        {
          "internalType": "uint256",
          "name": "tokenId",
          "type": "uint256"
        }
      ],
      "name": "getApproved",
      "outputs": [
        {
          "internalType": "address",
          "name": "",
          "type": "address"
        }
      ],
      "stateMutability": "view",
      "type": "function"
    },
    {
      "inputs": [
        {
          "internalType": "address",
          "name": "owner",
          "type": "address"
        },
        {
          "internalType": "address",
          "name": "operator",
          "type": "address"
        }
      ],
      "name": "isApprovedForAll",
      "outputs": [
        {
          "internalType": "bool",
          "name": "",
          "type": "bool"
        }
      ],
      "stateMutability": "view",
      "type": "function"
    },
    {
      "inputs": [
        {
          "internalType": "uint256",
          "name": "",
          "type": "uint256"
        }
      ],
      "name": "monitors",
      "outputs": [
        {
          "internalType": "contract IOrderMonitor",
          "name": "",
          "type": "address"
        }
      ],
      "stateMutability": "view",
      "type": "function"
    },
    {
      "inputs": [
        {
          "internalType": "bytes[]",
          "name": "data",
          "type": "bytes[]"
        }
      ],
      "name": "multicall",
      "outputs": [
        {
          "internalType": "bytes[]",
          "name": "results",
          "type": "bytes[]"
        }
      ],
      "stateMutability": "payable",
      "type": "function"
    },
    {
      "inputs": [],
      "name": "name",
      "outputs": [
        {
          "internalType": "string",
          "name": "",
          "type": "string"
        }
      ],
      "stateMutability": "view",
      "type": "function"
    },
    {
      "inputs": [],
      "name": "nextMonitor",
      "outputs": [
        {
          "internalType": "uint256",
          "name": "",
          "type": "uint256"
        }
      ],
      "stateMutability": "view",
      "type": "function"
    },
    {
      "inputs": [
        {
          "internalType": "uint256",
          "name": "tokenId",
          "type": "uint256"
        }
      ],
      "name": "ownerOf",
      "outputs": [
        {
          "internalType": "address",
          "name": "",
          "type": "address"
        }
      ],
      "stateMutability": "view",
      "type": "function"
    },
    {
      "inputs": [],
      "name": "protocolFee",
      "outputs": [
        {
          "internalType": "uint32",
          "name": "",
          "type": "uint32"
        }
      ],
      "stateMutability": "view",
      "type": "function"
    },
    {
      "inputs": [],
      "name": "quoter",
      "outputs": [
        {
          "internalType": "contract IQuoter",
          "name": "",
          "type": "address"
        }
      ],
      "stateMutability": "view",
      "type": "function"
    },
    {
      "inputs": [
        {
          "internalType": "address",
          "name": "from",
          "type": "address"
        },
        {
          "internalType": "address",
          "name": "to",
          "type": "address"
        },
        {
          "internalType": "uint256",
          "name": "tokenId",
          "type": "uint256"
        }
      ],
      "name": "safeTransferFrom",
      "outputs": [],
      "stateMutability": "nonpayable",
      "type": "function"
    },
    {
      "inputs": [
        {
          "internalType": "address",
          "name": "from",
          "type": "address"
        },
        {
          "internalType": "address",
          "name": "to",
          "type": "address"
        },
        {
          "internalType": "uint256",
          "name": "tokenId",
          "type": "uint256"
        },
        {
          "internalType": "bytes",
          "name": "_data",
          "type": "bytes"
        }
      ],
      "name": "safeTransferFrom",
      "outputs": [],
      "stateMutability": "nonpayable",
      "type": "function"
    },
    {
      "inputs": [
        {
          "internalType": "address",
          "name": "operator",
          "type": "address"
        },
        {
          "internalType": "bool",
          "name": "approved",
          "type": "bool"
        }
      ],
      "name": "setApprovalForAll",
      "outputs": [],
      "stateMutability": "nonpayable",
      "type": "function"
    },
    {
      "inputs": [
        {
          "internalType": "bytes4",
          "name": "interfaceId",
          "type": "bytes4"
        }
      ],
      "name": "supportsInterface",
      "outputs": [
        {
          "internalType": "bool",
          "name": "",
          "type": "bool"
        }
      ],
      "stateMutability": "view",
      "type": "function"
    },
    {
      "inputs": [],
      "name": "symbol",
      "outputs": [
        {
          "internalType": "string",
          "name": "",
          "type": "string"
        }
      ],
      "stateMutability": "view",
      "type": "function"
    },
    {
      "inputs": [
        {
          "internalType": "uint256",
          "name": "index",
          "type": "uint256"
        }
      ],
      "name": "tokenByIndex",
      "outputs": [
        {
          "internalType": "uint256",
          "name": "",
          "type": "uint256"
        }
      ],
      "stateMutability": "view",
      "type": "function"
    },
    {
      "inputs": [
        {
          "internalType": "address",
          "name": "owner",
          "type": "address"
        },
        {
          "internalType": "uint256",
          "name": "index",
          "type": "uint256"
        }
      ],
      "name": "tokenOfOwnerByIndex",
      "outputs": [
        {
          "internalType": "uint256",
          "name": "",
          "type": "uint256"
        }
      ],
      "stateMutability": "view",
      "type": "function"
    },
    {
      "inputs": [
        {
          "internalType": "uint256",
          "name": "tokenId",
          "type": "uint256"
        }
      ],
      "name": "tokenURI",
      "outputs": [
        {
          "internalType": "string",
          "name": "",
          "type": "string"
        }
      ],
      "stateMutability": "view",
      "type": "function"
    },
    {
      "inputs": [],
      "name": "totalSupply",
      "outputs": [
        {
          "internalType": "uint256",
          "name": "",
          "type": "uint256"
        }
      ],
      "stateMutability": "view",
      "type": "function"
    },
    {
      "inputs": [
        {
          "internalType": "address",
          "name": "from",
          "type": "address"
        },
        {
          "internalType": "address",
          "name": "to",
          "type": "address"
        },
        {
          "internalType": "uint256",
          "name": "tokenId",
          "type": "uint256"
        }
      ],
      "name": "transferFrom",
      "outputs": [],
      "stateMutability": "nonpayable",
      "type": "function"
    },
    {
      "inputs": [],
      "name": "utils",
      "outputs": [
        {
          "internalType": "contract ManagerUtils",
          "name": "",
          "type": "address"
        }
      ],
      "stateMutability": "view",
      "type": "function"
    },
    {
      "stateMutability": "payable",
      "type": "receive"
    },
    {
      "inputs": [
        {
          "internalType": "contract IUniswapV3Factory",
          "name": "_factory",
          "type": "address"
        },
        {
          "internalType": "contract IQuoter",
          "name": "_quoter",
          "type": "address"
        },
        {
          "internalType": "contract IWETH9",
          "name": "_WETH",
          "type": "address"
        },
        {
          "internalType": "contract WETHExtended",
          "name": "_WETHExtended",
          "type": "address"
        },
        {
          "internalType": "contract ManagerUtils",
          "name": "_utils",
          "type": "address"
        },
        {
          "internalType": "contract IERC20",
          "name": "_KROM",
          "type": "address"
        },
        {
          "internalType": "address",
          "name": "_feeAddress",
          "type": "address"
        },
        {
          "internalType": "uint256",
          "name": "_gasUsageMonitor",
          "type": "uint256"
        },
        {
          "internalType": "uint32",
          "name": "_protocolFee",
          "type": "uint32"
        }
      ],
      "name": "initialize",
      "outputs": [],
      "stateMutability": "nonpayable",
      "type": "function"
    },
    {
      "inputs": [
        {
          "components": [
            {
              "internalType": "address",
              "name": "_token0",
              "type": "address"
            },
            {
              "internalType": "address",
              "name": "_token1",
              "type": "address"
            },
            {
              "internalType": "uint24",
              "name": "_fee",
              "type": "uint24"
            },
            {
              "internalType": "uint160",
              "name": "_sqrtPriceX96",
              "type": "uint160"
            },
            {
              "internalType": "uint128",
              "name": "_amount0",
              "type": "uint128"
            },
            {
              "internalType": "uint128",
              "name": "_amount1",
              "type": "uint128"
            }
          ],
          "internalType": "struct IOrderManager.LimitOrderParams",
          "name": "params",
          "type": "tuple"
        }
      ],
      "name": "placeLimitOrder",
      "outputs": [
        {
          "internalType": "uint256",
          "name": "_tokenId",
          "type": "uint256"
        }
      ],
      "stateMutability": "payable",
      "type": "function"
    },
    {
      "inputs": [
        {
          "internalType": "uint256",
          "name": "_tokenId",
          "type": "uint256"
        },
        {
          "internalType": "uint256",
          "name": "_batchId",
          "type": "uint256"
        },
        {
          "internalType": "uint256",
          "name": "_serviceFeePaid",
          "type": "uint256"
        },
        {
          "internalType": "uint256",
          "name": "_monitorFeePaid",
          "type": "uint256"
        }
      ],
      "name": "processLimitOrder",
      "outputs": [
        {
          "internalType": "uint128",
          "name": "_amount0",
          "type": "uint128"
        },
        {
          "internalType": "uint128",
          "name": "_amount1",
          "type": "uint128"
        }
      ],
      "stateMutability": "nonpayable",
      "type": "function"
    },
    {
      "inputs": [
        {
          "internalType": "uint256",
          "name": "_tokenId",
          "type": "uint256"
        }
      ],
      "name": "cancelLimitOrder",
      "outputs": [
        {
          "internalType": "uint256",
          "name": "_amount0",
          "type": "uint256"
        },
        {
          "internalType": "uint256",
          "name": "_amount1",
          "type": "uint256"
        }
      ],
      "stateMutability": "nonpayable",
      "type": "function"
    },
    {
      "inputs": [
        {
          "internalType": "uint256",
          "name": "_tokenId",
          "type": "uint256"
        }
      ],
      "name": "burn",
      "outputs": [],
      "stateMutability": "nonpayable",
      "type": "function"
    },
    {
      "inputs": [
        {
          "internalType": "uint256",
          "name": "_amount",
          "type": "uint256"
        }
      ],
      "name": "addFunding",
      "outputs": [],
      "stateMutability": "nonpayable",
      "type": "function"
    },
    {
      "inputs": [
        {
          "internalType": "uint256",
          "name": "_amount",
          "type": "uint256"
        }
      ],
      "name": "withdrawFunding",
      "outputs": [],
      "stateMutability": "nonpayable",
      "type": "function"
    },
    {
      "inputs": [
        {
          "internalType": "uint256",
          "name": "amount0Owed",
          "type": "uint256"
        },
        {
          "internalType": "uint256",
          "name": "amount1Owed",
          "type": "uint256"
        },
        {
          "internalType": "bytes",
          "name": "data",
          "type": "bytes"
        }
      ],
      "name": "uniswapV3MintCallback",
      "outputs": [],
      "stateMutability": "nonpayable",
      "type": "function"
    },
    {
      "inputs": [
        {
          "internalType": "uint256",
          "name": "tokenId",
          "type": "uint256"
        }
      ],
      "name": "orders",
      "outputs": [
        {
          "internalType": "address",
          "name": "owner",
          "type": "address"
        },
        {
          "internalType": "address",
          "name": "token0",
          "type": "address"
        },
        {
          "internalType": "address",
          "name": "token1",
          "type": "address"
        },
        {
          "internalType": "uint24",
          "name": "fee",
          "type": "uint24"
        },
        {
          "internalType": "int24",
          "name": "tickLower",
          "type": "int24"
        },
        {
          "internalType": "int24",
          "name": "tickUpper",
          "type": "int24"
        },
        {
          "internalType": "uint128",
          "name": "liquidity",
          "type": "uint128"
        },
        {
          "internalType": "uint256",
          "name": "opened",
          "type": "uint256"
        },
        {
          "internalType": "uint256",
          "name": "processed",
          "type": "uint256"
        },
        {
          "internalType": "uint256",
          "name": "tokensOwed0",
          "type": "uint256"
        },
        {
          "internalType": "uint256",
          "name": "tokensOwed1",
          "type": "uint256"
        }
      ],
      "stateMutability": "view",
      "type": "function"
    },
    {
      "inputs": [
        {
          "internalType": "uint256",
          "name": "_tokenId",
          "type": "uint256"
        },
        {
          "internalType": "uint256",
          "name": "_gasPrice",
          "type": "uint256"
        }
      ],
      "name": "canProcess",
      "outputs": [
        {
          "internalType": "bool",
          "name": "underfunded",
          "type": "bool"
        },
        {
          "internalType": "uint256",
          "name": "_serviceFee",
          "type": "uint256"
        },
        {
          "internalType": "uint256",
          "name": "_monitorFee",
          "type": "uint256"
        }
      ],
      "stateMutability": "nonpayable",
      "type": "function"
    },
    {
      "inputs": [
        {
          "internalType": "address",
          "name": "_owner",
          "type": "address"
        },
        {
          "internalType": "uint256",
          "name": "_targetGasPrice",
          "type": "uint256"
        }
      ],
      "name": "isUnderfunded",
      "outputs": [
        {
          "internalType": "bool",
          "name": "underfunded",
          "type": "bool"
        },
        {
          "internalType": "uint256",
          "name": "amount",
          "type": "uint256"
        },
        {
          "internalType": "uint256",
          "name": "_serviceFee",
          "type": "uint256"
        },
        {
          "internalType": "uint256",
          "name": "_monitorFee",
          "type": "uint256"
        }
      ],
      "stateMutability": "nonpayable",
      "type": "function"
    },
    {
      "inputs": [
        {
          "internalType": "contract IOrderMonitor[]",
          "name": "_newMonitors",
          "type": "address[]"
        }
      ],
      "name": "setMonitors",
      "outputs": [],
      "stateMutability": "nonpayable",
      "type": "function"
    },
    {
      "inputs": [
        {
          "internalType": "contract IOrderMonitor",
          "name": "_newMonitor",
          "type": "address"
        }
      ],
      "name": "addMonitor",
      "outputs": [],
      "stateMutability": "nonpayable",
      "type": "function"
    },
    {
      "inputs": [
        {
          "internalType": "uint32",
          "name": "_protocolFee",
          "type": "uint32"
        }
      ],
      "name": "setProtocolFee",
      "outputs": [],
      "stateMutability": "nonpayable",
      "type": "function"
    },
    {
      "inputs": [
        {
          "internalType": "uint256",
          "name": "_gasUsageMonitor",
          "type": "uint256"
        }
      ],
      "name": "setGasUsageMonitor",
      "outputs": [],
      "stateMutability": "nonpayable",
      "type": "function"
    },
    {
      "inputs": [
        {
          "internalType": "address",
          "name": "_controller",
          "type": "address"
        }
      ],
      "name": "changeController",
      "outputs": [],
      "stateMutability": "nonpayable",
      "type": "function"
    },
    {
      "inputs": [],
      "name": "monitorsLength",
      "outputs": [
        {
          "internalType": "uint256",
          "name": "",
          "type": "uint256"
        }
      ],
      "stateMutability": "view",
      "type": "function"
    },
    {
      "inputs": [
        {
          "internalType": "uint256",
          "name": "_weiAmount",
          "type": "uint256"
        }
      ],
      "name": "quoteKROM",
      "outputs": [
        {
          "internalType": "uint256",
          "name": "quote",
          "type": "uint256"
        }
      ],
      "stateMutability": "nonpayable",
      "type": "function"
    },
    {
      "inputs": [
        {
          "internalType": "address",
          "name": "_owner",
          "type": "address"
        },
        {
          "internalType": "uint256",
          "name": "_targetGasPrice",
          "type": "uint256"
        }
      ],
      "name": "serviceFee",
      "outputs": [
        {
          "internalType": "uint256",
          "name": "_serviceFee",
          "type": "uint256"
        }
      ],
      "stateMutability": "nonpayable",
      "type": "function"
    },
    {
      "inputs": [
        {
          "internalType": "uint256",
          "name": "_targetGasPrice",
          "type": "uint256"
        },
        {
          "internalType": "uint256",
          "name": "_noOrders",
          "type": "uint256"
        },
        {
          "internalType": "address",
          "name": "",
          "type": "address"
        }
      ],
      "name": "estimateServiceFee",
      "outputs": [
        {
          "internalType": "uint256",
          "name": "_serviceFee",
          "type": "uint256"
        },
        {
          "internalType": "uint256",
          "name": "_monitorFee",
          "type": "uint256"
        }
      ],
      "stateMutability": "nonpayable",
      "type": "function"
    }
  ],
  "bytecode": "0x608060405234801561001057600080fd5b50615672806100206000396000f3fe60806040526004361061031e5760003560e01c806370a08231116101ab578063b8c48a28116100f7578063da76bb9d11610095578063f4d1b80b1161006f578063f4d1b80b14610926578063f55ce8f614610946578063f77c479114610966578063ff7bf2f21461097b57610325565b8063da76bb9d146108c1578063e985e9c5146108f1578063ea02c9da1461091157610325565b8063c803206f116100d1578063c803206f1461083e578063c87b56dd14610853578063ceeb857b14610873578063d3487997146108a157610325565b8063b8c48a28146107f4578063c45a015514610814578063c6bbd5a71461082957610325565b8063a5cdc8fc11610164578063ac9650d81161013e578063ac9650d81461077d578063ad5c46481461079d578063b0e21e8a146107b2578063b88d4fde146107d457610325565b8063a5cdc8fc146106f8578063a85c38ef14610726578063aa9f76281461075d57610325565b806370a082311461065b57806376b42a431461067b57806381edaae41461068e57806395d89b41146106ae578063a0edcef5146106c3578063a22cb465146106d857610325565b8063347cdbae1161026a57806342966c68116102235780635a29638d116101fd5780635a29638d146105f15780635d5d4613146106065780636352211e146106265780636c0360eb1461064657610325565b806342966c681461059157806344a58781146105b15780634f6ccce7146105d157610325565b8063347cdbae146104d85780633697f055146104ed5780633b0c25ad1461050d5780633cebb8231461053c578063412753581461055c57806342842e0e1461057157610325565b8063095ea7b3116102d757806323b872dd116102b157806323b872dd146104585780632c368034146104785780632f745c5914610498578063305f71de146104b857610325565b8063095ea7b3146104035780630e8e903c1461042357806318160ddd1461044357610325565b806301ffc9a714610327578063049f2d8a1461035d57806306925d781461038a57806306fdde031461039f578063081812fc146103c15780630930c473146103ee57610325565b3661032557005b005b34801561033357600080fd5b50610347610342366004614a41565b61099b565b60405161035491906150b9565b60405180910390f35b34801561036957600080fd5b5061037d610378366004614836565b6109be565b60405161035491906150f9565b34801561039657600080fd5b5061037d6109d0565b3480156103ab57600080fd5b506103b46109d6565b60405161035491906151c2565b3480156103cd57600080fd5b506103e16103dc366004614d8d565b610a6c565b6040516103549190614f3b565b3480156103fa57600080fd5b5061037d610ace565b34801561040f57600080fd5b5061032561041e3660046149ba565b610ad4565b34801561042f57600080fd5b5061037d61043e366004614d8d565b610baa565b34801561044f57600080fd5b5061037d610c4f565b34801561046457600080fd5b506103256104733660046148a6565b610c60565b34801561048457600080fd5b506103256104933660046149e5565b610cb7565b3480156104a457600080fd5b5061037d6104b33660046149ba565b610cd5565b3480156104c457600080fd5b506103256104d3366004614a69565b610cfe565b3480156104e457600080fd5b5061037d610ea8565b3480156104f957600080fd5b50610325610508366004614d8d565b610eae565b34801561051957600080fd5b5061052d610528366004614dbd565b610f39565b604051610354939291906150c4565b34801561054857600080fd5b50610325610557366004614836565b6110e7565b34801561056857600080fd5b506103e1611111565b34801561057d57600080fd5b5061032561058c3660046148a6565b611120565b34801561059d57600080fd5b506103256105ac366004614d8d565b61113b565b3480156105bd57600080fd5b506103e16105cc366004614d8d565b6111cb565b3480156105dd57600080fd5b5061037d6105ec366004614d8d565b6111f5565b3480156105fd57600080fd5b506103e161120b565b34801561061257600080fd5b50610325610621366004614d8d565b61121a565b34801561063257600080fd5b506103e1610641366004614d8d565b6112a5565b34801561065257600080fd5b506103b46112cd565b34801561066757600080fd5b5061037d610676366004614836565b61132e565b61037d610689366004614be2565b611396565b34801561069a57600080fd5b5061037d6106a93660046149ba565b611a03565b3480156106ba57600080fd5b506103b4611a28565b3480156106cf57600080fd5b5061037d611a89565b3480156106e457600080fd5b506103256106f336600461498d565b611a90565b34801561070457600080fd5b50610718610713366004614d8d565b611b95565b6040516103549291906152a7565b34801561073257600080fd5b50610746610741366004614d8d565b611da8565b6040516103549b9a99989796959493929190614fe7565b34801561076957600080fd5b50610325610778366004614ee5565b61204d565b61079061078b3660046149e5565b6120ad565b6040516103549190615059565b3480156107a957600080fd5b506103e16121ed565b3480156107be57600080fd5b506107c76121fc565b60405161035491906152b5565b3480156107e057600080fd5b506103256107ef3660046148e6565b61220f565b34801561080057600080fd5b5061032561080f366004614836565b61226d565b34801561082057600080fd5b506103e16122c7565b34801561083557600080fd5b506103e16122d6565b34801561084a57600080fd5b506103e16122e5565b34801561085f57600080fd5b506103b461086e366004614d8d565b6122f4565b34801561087f57600080fd5b5061089361088e366004614eb4565b612575565b60405161035492919061523a565b3480156108ad57600080fd5b506103256108bc366004614e39565b61279f565b3480156108cd57600080fd5b506108e16108dc3660046149ba565b6127ff565b60405161035494939291906150dc565b3480156108fd57600080fd5b5061034761090c36600461486e565b61288b565b34801561091d57600080fd5b506103e16128b9565b34801561093257600080fd5b50610718610941366004614e01565b6128c8565b34801561095257600080fd5b5061037d610961366004614836565b612933565b34801561097257600080fd5b506103e1612945565b34801561098757600080fd5b50610325610996366004614d8d565b612954565b6001600160e01b0319811660009081526033602052604090205460ff165b919050565b60976020526000908152604090205481565b60a35481565b606a8054604080516020601f6002600019610100600188161502019095169490940493840181900481028201810190925282815260609390929091830182828015610a625780601f10610a3757610100808354040283529160200191610a62565b820191906000526020600020905b815481529060010190602001808311610a4557829003601f168201915b5050505050905090565b6000610a7782612961565b610ab25760405162461bcd60e51b815260040180806020018281038252602c815260200180615567602c913960400191505060405180910390fd5b506000908152606860205260409020546001600160a01b031690565b609b5490565b6000610adf826112a5565b9050806001600160a01b0316836001600160a01b03161415610b325760405162461bcd60e51b81526004018080602001828103825260218152602001806155eb6021913960400191505060405180910390fd5b806001600160a01b0316610b4461296e565b6001600160a01b03161480610b605750610b608161090c61296e565b610b9b5760405162461bcd60e51b815260040180806020018281038252603881526020018061546b6038913960400191505060405180910390fd5b610ba58383612972565b505050565b609e54609f5460a054609c5460a154604051634de586c560e11b81526000956001600160a01b0390811695639bcb0d8a95610bf79591831694908316939183169216908990600401615102565b602060405180830381600087803b158015610c1157600080fd5b505af1158015610c25573d6000803e3d6000fd5b505050506040513d601f19601f82011682018060405250810190610c499190614da5565b92915050565b6000610c5b60666129e0565b905090565b610c71610c6b61296e565b826129eb565b610cac5760405162461bcd60e51b815260040180806020018281038252603181526020018061560c6031913960400191505060405180910390fd5b610ba5838383612a8f565b610cbf612bdb565b80610cc957600080fd5b610ba5609b838361468b565b6001600160a01b0382166000908152606560205260408120610cf79083612bf4565b9392505050565b600054610100900460ff1680610d175750610d17612c00565b80610d25575060005460ff16155b610d605760405162461bcd60e51b815260040180806020018281038252602e8152602001806154f6602e913960400191505060405180910390fd5b600054610100900460ff16158015610d8b576000805460ff1961ff0019909116610100171660011790555b609f80546001600160a01b03199081166001600160a01b038d811691909117909255609e80548216898416179055609c805482168b841617905560a18054821688841617905560a0805482168c8416179055609d805482168a841617905560a385905560a5805460a2805484169489169490941790935563ffffffff60b01b19909216600160b01b63ffffffff861602176001600160b01b031916600117909155609a8054339216919091179055604080518082018252601281527125b937b6b0ba34b5b0902837b9b4ba34b7b760711b602080830191909152825180840190935260088352674b524f4d2d504f5360c01b90830152610e8a91612c11565b8015610e9c576000805461ff00191690555b50505050505050505050565b60a45481565b33600090815260976020526040902054610ec88183612cce565b33600081815260976020526040902082905560a154919250610ef4916001600160a01b03169084612d2b565b336001600160a01b03167f4cd5d77630469c8bf31f4f713e8d3486394a520a59fb307e64509ff32008683583604051610f2d91906150f9565b60405180910390a25050565b60008281526099602052604081208190819081610f55876112a5565b9050610f6181876127ff565b9297509550909350508415610f7957600094506110de565b609e5482546001840154600280860154604051634d42fd3d60e11b815260009586956001600160a01b0391821695639a85fa7a95610fde959290931693600160a01b8204840b93600160b81b90920490910b916001600160801b031690600401615135565b604080518083038186803b158015610ff557600080fd5b505afa158015611009573d6000803e3d6000fd5b505050506040513d601f19601f8201168201806040525081019061102d9190614dde565b600786015491935091506001600160801b031615801561104d5750600082115b801561106c57506007840154600160801b90046001600160801b031615155b8015611076575080155b1561108457600196506110db565b60078401546001600160801b03161580159061109e575081155b80156110bc57506007840154600160801b90046001600160801b0316155b80156110c85750600081115b156110d657600196506110db565b600096505b50505b50509250925092565b6110ef612bdb565b609a80546001600160a01b0319166001600160a01b0392909216919091179055565b60a2546001600160a01b031681565b610ba58383836040518060200160405280600081525061220f565b61114481612e72565b60008181526099602052604090206004015461115f57600080fd5b600081815260996020526040812080546001600160a01b03191681556001810180546001600160d01b03191690556002810180546001600160801b031916905560038101829055600481018290556005810182905560068101829055600701556111c881612e85565b50565b609b81815481106111db57600080fd5b6000918252602090912001546001600160a01b0316905081565b600080611203606684612f52565b509392505050565b609e546001600160a01b031681565b336000908152609760205260409020546112349082612f70565b3360008181526097602052604090209190915560a154611261916001600160a01b03909116903084612fca565b336001600160a01b03167ffce6a155d7233f80f26eec018cf7551e8304d9946961c088af41a31debffc2708260405161129a91906150f9565b60405180910390a250565b6000610c49826040518060600160405280602981526020016154cd6029913960669190613122565b606d8054604080516020601f6002600019610100600188161502019095169490940493840181900481028201810190925282815260609390929091830182828015610a625780601f10610a3757610100808354040283529160200191610a62565b60006001600160a01b0382166113755760405162461bcd60e51b815260040180806020018281038252602a8152602001806154a3602a913960400191505060405180910390fd5b6001600160a01b0382166000908152606560205260409020610c49906129e0565b60006113a86040830160208401614836565b6001600160a01b03166113be6020840184614836565b6001600160a01b0316106113d157600080fd5b60008060008060008060405180606001604052808960000160208101906113f89190614836565b6001600160a01b031681526020018960200160208101906114199190614836565b6001600160a01b0316815260200161143760608b0160408c01614d55565b62ffffff169052609f5490915060009061145a906001600160a01b03168361312f565b90506001600160a01b03811661146f57600080fd5b609e5490925082906001600160a01b0316635d5851898261149660808d0160608e01614836565b6114a660a08e0160808f01614caa565b8d60a00160208101906114b99190614caa565b6040518563ffffffff1660e01b81526004016114d89493929190615168565b60806040518083038186803b1580156114f057600080fd5b505afa158015611504573d6000803e3d6000fd5b505050506040513d601f19601f820116820180604052508101906115289190614b17565b809750819850829950839a5050505050826001600160a01b0316633c8a7d8d308989896040518060400160405280898152602001336001600160a01b031681525060405160200161157991906151fa565b6040516020818303038152906040526040518663ffffffff1660e01b81526004016115a8959493929190614f4f565b6040805180830381600087803b1580156115c157600080fd5b505af11580156115d5573d6000803e3d6000fd5b505050506040513d601f19601f820116820180604052508101906115f99190614dde565b505060a580546001600160b01b0319811660016001600160b01b0392831690810190921617909155975061162d3389613213565b33600090815260986020526040902054611648906001612f70565b33600090815260986020526040812091909155611663613341565b9050600080856001600160a01b031663514ea4bf611682308d8d6133a2565b6040518263ffffffff1660e01b815260040161169e91906150f9565b60a06040518083038186803b1580156116b657600080fd5b505afa1580156116ca573d6000803e3d6000fd5b505050506040513d601f19601f820116820180604052508101906116ee9190614cf4565b505092509250506000604051806101600160405280886001600160a01b03168152602001856001600160a01b031681526020018c60020b81526020018b60020b81526020018a6001600160801b0316815260200161174a6133f8565b8152602001600081526020018481526020018381526020018e60800160208101906117759190614caa565b6001600160801b031681526020018e60a00160208101906117969190614caa565b6001600160801b0316815250905080609960008e815260200190815260200160002060008201518160000160006101000a8154816001600160a01b0302191690836001600160a01b0316021790555060208201518160010160006101000a8154816001600160a01b0302191690836001600160a01b0316021790555060408201518160010160146101000a81548162ffffff021916908360020b62ffffff16021790555060608201518160010160176101000a81548162ffffff021916908360020b62ffffff16021790555060808201518160020160006101000a8154816001600160801b0302191690836001600160801b0316021790555060a0820151816003015560c0820151816004015560e0820151816005015561010082015181600601556101208201518160070160006101000a8154816001600160801b0302191690836001600160801b031602179055506101408201518160070160106101000a8154816001600160801b0302191690836001600160801b03160217905550905050836001600160a01b031663b53e76608d6040518263ffffffff1660e01b815260040161194391906150f9565b600060405180830381600087803b15801561195d57600080fd5b505af1158015611971573d6000803e3d6000fd5b505050505050505087336001600160a01b03167f35dbe7d22004f5507912c2b6df8d8323979b17bbbd19a98f08dbdb5be263ec62868c60600160208101906119b99190614836565b8d60800160208101906119cc9190614caa565b8e60a00160208101906119df9190614caa565b6040516119ef9493929190615254565b60405180910390a350505050505050919050565b6001600160a01b038216600090815260986020526040812054611203908390856128c8565b606b8054604080516020601f6002600019610100600188161502019095169490940493840181900481028201810190925282815260609390929091830182828015610a625780601f10610a3757610100808354040283529160200191610a62565b620186a081565b611a9861296e565b6001600160a01b0316826001600160a01b03161415611afe576040805162461bcd60e51b815260206004820152601960248201527f4552433732313a20617070726f766520746f2063616c6c657200000000000000604482015290519081900360640190fd5b8060696000611b0b61296e565b6001600160a01b03908116825260208083019390935260409182016000908120918716808252919093529120805460ff191692151592909217909155611b4f61296e565b6001600160a01b03167f17307eab39ab6107e8899845ad3d59bd9653f200f220920489ca2b5937696c318360405180821515815260200191505060405180910390a35050565b600080611ba183612e72565b6000838152609960205260409020600481015415611bbe57600080fd5b8054600182015460028084015460058501546006860154611c08956001600160a01b031694600160a01b8104850b94600160b81b909104900b926001600160801b031691906133fc565b336000908152609860205260409020546001600160801b03928316955091169250611c34906001612cce565b33600090815260986020526040902055611c4d84612e85565b6001810154604051636c2caab960e11b81526001600160a01b039091169063d859557290611c7f9087906004016150f9565b600060405180830381600087803b158015611c9957600080fd5b505af1158015611cad573d6000803e3d6000fd5b5050825460018401546007850154611d0094508893506001600160a01b0390921691600160a01b8204600290810b92600160b81b9004900b906001600160801b0380821691600160801b90041633613578565b505060008481526099602052604080822080546001600160a01b03191681556001810180546001600160d01b03191690556002810180546001600160801b0319169055600381018390556004810183905560058101839055600681018390556007019190915551849033907f1147e88895ceaf9b04a04aaf8a71d2ef82462489201d75b2f978fdaeaa2086c790611d9a90879087906152a7565b60405180910390a350915091565b600081815260996020908152604080832081516101608101835281546001600160a01b03908116808352600184015491821695830195909552600160a01b8104600290810b810b810b94830194909452600160b81b9004830b830b830b6060820152918101546001600160801b039081166080840152600382015460a0840152600482015460c0840152600582015460e08401526006820154610100840152600790910154808216610120840152600160801b900416610140820152829182918291829182918291829182918291829190611e8257600080fd5b611e8b8d6112a5565b81600001516001600160a01b0316630dfe16816040518163ffffffff1660e01b815260040160206040518083038186803b158015611ec857600080fd5b505afa158015611edc573d6000803e3d6000fd5b505050506040513d601f19601f82011682018060405250810190611f009190614852565b82600001516001600160a01b031663d21220a76040518163ffffffff1660e01b815260040160206040518083038186803b158015611f3d57600080fd5b505afa158015611f51573d6000803e3d6000fd5b505050506040513d601f19601f82011682018060405250810190611f759190614852565b83600001516001600160a01b031663ddca3f436040518163ffffffff1660e01b815260040160206040518083038186803b158015611fb257600080fd5b505afa158015611fc6573d6000803e3d6000fd5b505050506040513d601f19601f82011682018060405250810190611fea9190614d71565b8460400151856060015186608001518760a001518860c001518961012001518a6101400151816001600160801b03169150806001600160801b031690509b509b509b509b509b509b509b509b509b509b509b505091939597999b90929496989a50565b612055612bdb565b620186a08163ffffffff1611156120875760405162461bcd60e51b815260040161207e906151d5565b60405180910390fd5b60a5805463ffffffff909216600160b01b0263ffffffff60b01b19909216919091179055565b60608167ffffffffffffffff811180156120c657600080fd5b506040519080825280602002602001820160405280156120fa57816020015b60608152602001906001900390816120e55790505b50905060005b828110156121e6576000803086868581811061211857fe5b905060200281019061212a91906152c6565b604051612138929190614f2b565b600060405180830381855af49150503d8060008114612173576040519150601f19603f3d011682016040523d82523d6000602084013e612178565b606091505b5091509150816121c45760448151101561219157600080fd5b600481019050808060200190518101906121ab9190614b6f565b60405162461bcd60e51b815260040161207e91906151c2565b808484815181106121d157fe5b60209081029190910101525050600101612100565b5092915050565b609c546001600160a01b031681565b60a554600160b01b900463ffffffff1681565b61222061221a61296e565b836129eb565b61225b5760405162461bcd60e51b815260040180806020018281038252603181526020018061560c6031913960400191505060405180910390fd5b6122678484848461376d565b50505050565b612275612bdb565b609b80546001810182556000919091527fbba9db4cdbea0a37c207bbb83e20f828cd4441c49891101dc94fd20dc8efc3490180546001600160a01b0319166001600160a01b0392909216919091179055565b609f546001600160a01b031681565b60a0546001600160a01b031681565b60a1546001600160a01b031681565b60606122ff82612961565b61233a5760405162461bcd60e51b815260040180806020018281038252602f8152602001806155bc602f913960400191505060405180910390fd5b6000828152606c602090815260408083208054825160026001831615610100026000190190921691909104601f8101859004850282018501909352828152929091908301828280156123cd5780601f106123a2576101008083540402835291602001916123cd565b820191906000526020600020905b8154815290600101906020018083116123b057829003601f168201915b5050505050905060006123de6112cd565b90508051600014156123f2575090506109b9565b8151156124b35780826040516020018083805190602001908083835b6020831061242d5780518252601f19909201916020918201910161240e565b51815160209384036101000a600019018019909216911617905285519190930192850191508083835b602083106124755780518252601f199092019160209182019101612456565b6001836020036101000a03801982511681845116808217855250505050505090500192505050604051602081830303815290604052925050506109b9565b806124bd856137bf565b6040516020018083805190602001908083835b602083106124ef5780518252601f1990920191602091820191016124d0565b51815160209384036101000a600019018019909216911617905285519190930192850191508083835b602083106125375780518252601f199092019160209182019101612518565b6001836020036101000a0380198251168184511680821785525050505050509050019250505060405160208183030381529060405292505050919050565b600084815260996020526040812060018101548291906001600160a01b0316331461259f57600080fd5b6004810154156125ae57600080fd5b80546001820154600280840154600585015460068601546125f8956001600160a01b031694600160a01b8104850b94600160b81b909104900b926001600160801b031691906133fc565b90935091506126056133f8565b60048201556007810180546001600160801b03848116600160801b028187166001600160801b031993841617909116179091556002820180549091169055600061264e886112a5565b6001600160a01b0381166000908152609760205260408120549192506126748888612cce565b90506126808289612cce565b6001600160a01b038416600090815260976020908152604080832084905560989091529020549092506126b4906001612cce565b6001600160a01b03808516600090815260986020526040902091909155845460018601546007870154612717938e931691600160a01b8104600290810b92600160b81b909204900b906001600160801b0380821691600160801b90041689613578565b505060a154612730906001600160a01b0316883361389a565b60a15460a25461274e916001600160a01b039081169184911661389a565b89336001600160a01b03167fdbe3d70821f7e0affd20223cf7daec47aa9bbe0c757a0d0f9aeaba0be13ea8258b8b60405161278a9291906152a7565b60405180910390a35050505094509492505050565b60006127ad82840184614bf9565b609f5481519192506127ca916001600160a01b03909116906139b8565b5080515160208201516127e091339188906139db565b6127f8338260000151602001518684602001516139db565b5050505050565b6000808080841561287d57612816856001886128c8565b6001600160a01b03881660009081526098602052604081205492945090925090612841908490613af6565b6001600160a01b0388166000908152609760205260409020549091508082111561287657600195506128738282612cce565b94505b5050612882565b600193505b92959194509250565b6001600160a01b03918216600090815260696020908152604080832093909416825291909152205460ff1690565b609d546001600160a01b031681565b6000806128ed61043e856128e78860a354613af690919063ffffffff16565b90613af6565b60a55490915061292990620186a0906129239061291c90839063ffffffff600160b01b909104811690612f7016565b8490613af6565b90613b4f565b9150935093915050565b60986020526000908152604090205481565b609a546001600160a01b031681565b61295c612bdb565b60a355565b6000610c49606683613bb6565b3390565b600081815260686020526040902080546001600160a01b0319166001600160a01b03841690811790915581906129a7826112a5565b6001600160a01b03167f8c5be1e5ebec7d5bd14f71427d1e84f3dd0314c0f7b2291e5b200ac8c7c3b92560405160405180910390a45050565b6000610c4982613bc2565b60006129f682612961565b612a315760405162461bcd60e51b815260040180806020018281038252602c81526020018061543f602c913960400191505060405180910390fd5b6000612a3c836112a5565b9050806001600160a01b0316846001600160a01b03161480612a775750836001600160a01b0316612a6c84610a6c565b6001600160a01b0316145b80612a875750612a87818561288b565b949350505050565b826001600160a01b0316612aa2826112a5565b6001600160a01b031614612ae75760405162461bcd60e51b81526004018080602001828103825260298152602001806155936029913960400191505060405180910390fd5b6001600160a01b038216612b2c5760405162461bcd60e51b815260040180806020018281038252602481526020018061541b6024913960400191505060405180910390fd5b612b37838383610ba5565b612b42600082612972565b6001600160a01b0383166000908152606560205260409020612b649082613bc6565b506001600160a01b0382166000908152606560205260409020612b879082613bd2565b50612b9460668284613bde565b5080826001600160a01b0316846001600160a01b03167fddf252ad1be2c89b69c2b068fc378daa952ba7f163c4a11628f55a4df523b3ef60405160405180910390a4505050565b609a546001600160a01b03163314612bf257600080fd5b565b6000610cf78383613bf4565b6000612c0b30613c58565b15905090565b600054610100900460ff1680612c2a5750612c2a612c00565b80612c38575060005460ff16155b612c735760405162461bcd60e51b815260040180806020018281038252602e8152602001806154f6602e913960400191505060405180910390fd5b600054610100900460ff16158015612c9e576000805460ff1961ff0019909116610100171660011790555b612ca6613c5e565b612cae613cff565b612cb88383613d9c565b8015610ba5576000805461ff0019169055505050565b600082821115612d25576040805162461bcd60e51b815260206004820152601e60248201527f536166654d6174683a207375627472616374696f6e206f766572666c6f770000604482015290519081900360640190fd5b50900390565b604080516001600160a01b038481166024830152604480830185905283518084039091018152606490920183526020820180516001600160e01b031663a9059cbb60e01b1781529251825160009485949389169392918291908083835b60208310612da75780518252601f199092019160209182019101612d88565b6001836020036101000a0380198251168184511680821785525050505050509050019150506000604051808303816000865af19150503d8060008114612e09576040519150601f19603f3d011682016040523d82523d6000602084013e612e0e565b606091505b5091509150818015612e3c575080511580612e3c5750808060200190516020811015612e3957600080fd5b50515b6127f8576040805162461bcd60e51b815260206004820152600260248201526114d560f21b604482015290519081900360640190fd5b612e7c33826129eb565b6111c857600080fd5b6000612e90826112a5565b9050612e9e81600084610ba5565b612ea9600083612972565b6000828152606c60205260409020546002600019610100600184161502019091160415612ee7576000828152606c60205260408120612ee7916146ee565b6001600160a01b0381166000908152606560205260409020612f099083613bc6565b50612f15606683613e81565b5060405182906000906001600160a01b038416907fddf252ad1be2c89b69c2b068fc378daa952ba7f163c4a11628f55a4df523b3ef908390a45050565b6000808080612f618686613e8d565b909450925050505b9250929050565b600082820183811015610cf7576040805162461bcd60e51b815260206004820152601b60248201527f536166654d6174683a206164646974696f6e206f766572666c6f770000000000604482015290519081900360640190fd5b604080516001600160a01b0385811660248301528481166044830152606480830185905283518084039091018152608490920183526020820180516001600160e01b03166323b872dd60e01b178152925182516000948594938a169392918291908083835b6020831061304e5780518252601f19909201916020918201910161302f565b6001836020036101000a0380198251168184511680821785525050505050509050019150506000604051808303816000865af19150503d80600081146130b0576040519150601f19603f3d011682016040523d82523d6000602084013e6130b5565b606091505b50915091508180156130e35750805115806130e357508080602001905160208110156130e057600080fd5b50515b61311a576040805162461bcd60e51b815260206004820152600360248201526229aa2360e91b604482015290519081900360640190fd5b505050505050565b6000612a87848484613f08565b600081602001516001600160a01b031682600001516001600160a01b03161061315757600080fd5b50805160208083015160409384015184516001600160a01b0394851681850152939091168385015262ffffff166060808401919091528351808403820181526080840185528051908301206001600160f81b031960a085015294901b6bffffffffffffffffffffffff191660a183015260b58201939093527fe34f199b19b2b4f47f68442619d555527d244f78a3297ea89325f843f87b8b5460d5808301919091528251808303909101815260f5909101909152805191012090565b6001600160a01b03821661326e576040805162461bcd60e51b815260206004820181905260248201527f4552433732313a206d696e7420746f20746865207a65726f2061646472657373604482015290519081900360640190fd5b61327781612961565b156132c9576040805162461bcd60e51b815260206004820152601c60248201527f4552433732313a20746f6b656e20616c7265616479206d696e74656400000000604482015290519081900360640190fd5b6132d560008383610ba5565b6001600160a01b03821660009081526065602052604090206132f79082613bd2565b5061330460668284613bde565b5060405181906001600160a01b038416906000907fddf252ad1be2c89b69c2b068fc378daa952ba7f163c4a11628f55a4df523b3ef908290a45050565b609b546000908061335157600080fd5b60008160a454146133645760a454613367565b60005b9050609b818154811061337657fe5b6000918252602090912001546001600160a01b03169250613398816001612f70565b60a4555090919050565b6040805160609490941b6bffffffffffffffffffffffff1916602080860191909152600293840b60e890811b60348701529290930b90911b60378401528051808403601a018152603a9093019052815191012090565b4390565b6000806001600160801b0385161561356d57600080896001600160a01b031663a34123a78a8a8a6040518463ffffffff1660e01b81526004016134419392919061519c565b6040805180830381600087803b15801561345a57600080fd5b505af115801561346e573d6000803e3d6000fd5b505050506040513d601f19601f820116820180604052508101906134929190614dde565b9150915060006134a3308b8b6133a2565b90506000808c6001600160a01b031663514ea4bf846040518263ffffffff1660e01b81526004016134d491906150f9565b60a06040518083038186803b1580156134ec57600080fd5b505afa158015613500573d6000803e3d6000fd5b505050506040513d601f19601f820116820180604052508101906135249190614cf4565b505092509250506135458983038b6001600160801b0316600160801b613fd2565b850196506135638882038b6001600160801b0316600160801b613fd2565b8401955050505050505b965096945050505050565b600080876001600160a01b0316634f1eb3d830898989896040518663ffffffff1660e01b81526004016135af959493929190614f91565b6040805180830381600087803b1580156135c857600080fd5b505af11580156135dc573d6000803e3d6000fd5b505050506040513d601f19601f820116820180604052508101906136009190614cc6565b6001600160801b0391821693501690508115158061361e5750600081115b61362757600080fd5b6136a2886001600160a01b0316630dfe16816040518163ffffffff1660e01b815260040160206040518083038186803b15801561366357600080fd5b505afa158015613677573d6000803e3d6000fd5b505050506040513d601f19601f8201168201806040525081019061369b9190614852565b838561389a565b61371d886001600160a01b031663d21220a76040518163ffffffff1660e01b815260040160206040518083038186803b1580156136de57600080fd5b505afa1580156136f2573d6000803e3d6000fd5b505050506040513d601f19601f820116820180604052508101906137169190614852565b828561389a565b88836001600160a01b03167f937f0b0e6288ece3fc09c99d3de95684fbcb8519d8772c74358e5d23a0a4d8a184846040516137599291906152a7565b60405180910390a397509795505050505050565b613778848484612a8f565b61378484848484614081565b6122675760405162461bcd60e51b81526004018080602001828103825260328152602001806153e96032913960400191505060405180910390fd5b6060816137e457506040805180820190915260018152600360fc1b60208201526109b9565b8160005b81156137fc57600101600a820491506137e8565b60008167ffffffffffffffff8111801561381557600080fd5b506040519080825280601f01601f191660200182016040528015613840576020820181803683370190505b50859350905060001982015b831561389157600a840660300160f81b8282806001900393508151811061386f57fe5b60200101906001600160f81b031916908160001a905350600a8404935061384c565b50949350505050565b8115610ba557609c546001600160a01b03848116911614156139ad57609c54609d5460405163a9059cbb60e01b81526001600160a01b039283169263a9059cbb926138ec929116908690600401614fce565b602060405180830381600087803b15801561390657600080fd5b505af115801561391a573d6000803e3d6000fd5b505050506040513d601f19601f8201168201806040525081019061393e9190614a25565b50609d54609c54604051632d182be560e21b81526001600160a01b039283169263b460af949261397692879287921690600401615288565b600060405180830381600087803b15801561399057600080fd5b505af11580156139a4573d6000803e3d6000fd5b50505050610ba5565b610ba5838284612d2b565b60006139c4838361312f565b9050336001600160a01b03821614610c4957600080fd5b811561226757609c546001600160a01b0384811691161415613aea57609c60009054906101000a90046001600160a01b03166001600160a01b031663d0e30db0836040518263ffffffff1660e01b81526004016000604051808303818588803b158015613a4757600080fd5b505af1158015613a5b573d6000803e3d6000fd5b5050609c5460405163a9059cbb60e01b81526001600160a01b03909116935063a9059cbb9250613a92915087908690600401614fce565b602060405180830381600087803b158015613aac57600080fd5b505af1158015613ac0573d6000803e3d6000fd5b505050506040513d601f19601f82011682018060405250810190613ae49190614a25565b50612267565b61226783828685612fca565b600082613b0557506000610c49565b82820282848281613b1257fe5b0414610cf75760405162461bcd60e51b81526004018080602001828103825260218152602001806155466021913960400191505060405180910390fd5b6000808211613ba5576040805162461bcd60e51b815260206004820152601a60248201527f536166654d6174683a206469766973696f6e206279207a65726f000000000000604482015290519081900360640190fd5b818381613bae57fe5b049392505050565b6000610cf783836141e9565b5490565b6000610cf78383614201565b6000610cf783836142c7565b6000612a8784846001600160a01b038516614311565b81546000908210613c365760405162461bcd60e51b81526004018080602001828103825260228152602001806153c76022913960400191505060405180910390fd5b826000018281548110613c4557fe5b9060005260206000200154905092915050565b3b151590565b600054610100900460ff1680613c775750613c77612c00565b80613c85575060005460ff16155b613cc05760405162461bcd60e51b815260040180806020018281038252602e8152602001806154f6602e913960400191505060405180910390fd5b600054610100900460ff16158015613ceb576000805460ff1961ff0019909116610100171660011790555b80156111c8576000805461ff001916905550565b600054610100900460ff1680613d185750613d18612c00565b80613d26575060005460ff16155b613d615760405162461bcd60e51b815260040180806020018281038252602e8152602001806154f6602e913960400191505060405180910390fd5b600054610100900460ff16158015613d8c576000805460ff1961ff0019909116610100171660011790555b613ceb6301ffc9a760e01b6143a8565b600054610100900460ff1680613db55750613db5612c00565b80613dc3575060005460ff16155b613dfe5760405162461bcd60e51b815260040180806020018281038252602e8152602001806154f6602e913960400191505060405180910390fd5b600054610100900460ff16158015613e29576000805460ff1961ff0019909116610100171660011790555b8251613e3c90606a906020860190614732565b508151613e5090606b906020850190614732565b50613e616380ac58cd60e01b6143a8565b613e71635b5e139f60e01b6143a8565b612cb863780e9d6360e01b6143a8565b6000610cf7838361442c565b815460009081908310613ed15760405162461bcd60e51b81526004018080602001828103825260228152602001806155246022913960400191505060405180910390fd5b6000846000018481548110613ee257fe5b906000526020600020906002020190508060000154816001015492509250509250929050565b60008281526001840160205260408120548281613fa35760405162461bcd60e51b81526004018080602001828103825283818151815260200191508051906020019080838360005b83811015613f68578181015183820152602001613f50565b50505050905090810190601f168015613f955780820380516001836020036101000a031916815260200191505b509250505060405180910390fd5b50846000016001820381548110613fb657fe5b9060005260206000209060020201600101549150509392505050565b60008080600019858709868602925082811090839003039050806140085760008411613ffd57600080fd5b508290049050610cf7565b80841161401457600080fd5b6000848688096000868103871696879004966002600389028118808a02820302808a02820302808a02820302808a02820302808a02820302808a02909103029181900381900460010186841190950394909402919094039290920491909117919091029150509392505050565b6000614095846001600160a01b0316613c58565b6140a157506001612a87565b60006141af630a85bd0160e11b6140b661296e565b88878760405160240180856001600160a01b03168152602001846001600160a01b0316815260200183815260200180602001828103825283818151815260200191508051906020019080838360005b8381101561411d578181015183820152602001614105565b50505050905090810190601f16801561414a5780820380516001836020036101000a031916815260200191505b5095505050505050604051602081830303815290604052906001600160e01b0319166020820180516001600160e01b0383818316178352505050506040518060600160405280603281526020016153e9603291396001600160a01b0388169190614500565b905060008180602001905160208110156141c857600080fd5b50516001600160e01b031916630a85bd0160e11b1492505050949350505050565b60009081526001919091016020526040902054151590565b600081815260018301602052604081205480156142bd578354600019808301919081019060009087908390811061423457fe5b906000526020600020015490508087600001848154811061425157fe5b60009182526020808320909101929092558281526001898101909252604090209084019055865487908061428157fe5b60019003818190600052602060002001600090559055866001016000878152602001908152602001600020600090556001945050505050610c49565b6000915050610c49565b60006142d383836141e9565b61430957508154600181810184556000848152602080822090930184905584548482528286019093526040902091909155610c49565b506000610c49565b600082815260018401602052604081205480614376575050604080518082018252838152602080820184815286546001818101895560008981528481209551600290930290950191825591519082015586548684528188019092529290912055610cf7565b8285600001600183038154811061438957fe5b9060005260206000209060020201600101819055506000915050610cf7565b6001600160e01b03198082161415614407576040805162461bcd60e51b815260206004820152601c60248201527f4552433136353a20696e76616c696420696e7465726661636520696400000000604482015290519081900360640190fd5b6001600160e01b0319166000908152603360205260409020805460ff19166001179055565b600081815260018301602052604081205480156142bd578354600019808301919081019060009087908390811061445f57fe5b906000526020600020906002020190508087600001848154811061447f57fe5b6000918252602080832084546002909302019182556001938401549184019190915583548252898301905260409020908401905586548790806144be57fe5b6000828152602080822060026000199094019384020182815560019081018390559290935588815289820190925260408220919091559450610c499350505050565b6060612a8784846000858561451485613c58565b614565576040805162461bcd60e51b815260206004820152601d60248201527f416464726573733a2063616c6c20746f206e6f6e2d636f6e7472616374000000604482015290519081900360640190fd5b600080866001600160a01b031685876040518082805190602001908083835b602083106145a35780518252601f199092019160209182019101614584565b6001836020036101000a03801982511681845116808217855250505050505090500191505060006040518083038185875af1925050503d8060008114614605576040519150601f19603f3d011682016040523d82523d6000602084013e61460a565b606091505b509150915061461a828286614625565b979650505050505050565b60608315614634575081610cf7565b8251156146445782518084602001fd5b60405162461bcd60e51b8152602060048201818152845160248401528451859391928392604401919085019080838360008315613f68578181015183820152602001613f50565b8280548282559060005260206000209081019282156146de579160200282015b828111156146de5781546001600160a01b0319166001600160a01b038435161782556020909201916001909101906146ab565b506146ea9291506147ae565b5090565b50805460018160011615610100020316600290046000825580601f1061471457506111c8565b601f0160209004906000526020600020908101906111c891906147ae565b828054600181600116156101000203166002900490600052602060002090601f01602090048101928261476857600085556146de565b82601f1061478157805160ff19168380011785556146de565b828001600101855582156146de579182015b828111156146de578251825591602001919060010190614793565b5b808211156146ea57600081556001016147af565b80356109b98161537d565b60008083601f8401126147df578182fd5b50813567ffffffffffffffff8111156147f6578182fd5b6020830191508360208083028501011115612f6957600080fd5b8051600281900b81146109b957600080fd5b803563ffffffff811681146109b957600080fd5b600060208284031215614847578081fd5b8135610cf78161537d565b600060208284031215614863578081fd5b8151610cf78161537d565b60008060408385031215614880578081fd5b823561488b8161537d565b9150602083013561489b8161537d565b809150509250929050565b6000806000606084860312156148ba578081fd5b83356148c58161537d565b925060208401356148d58161537d565b929592945050506040919091013590565b600080600080608085870312156148fb578182fd5b84356149068161537d565b935060208501356149168161537d565b925060408501359150606085013567ffffffffffffffff811115614938578182fd5b8501601f81018713614948578182fd5b803561495b6149568261532f565b61530b565b81815288602083850101111561496f578384fd5b81602084016020830137908101602001929092525092959194509250565b6000806040838503121561499f578182fd5b82356149aa8161537d565b9150602083013561489b81615392565b600080604083850312156149cc578182fd5b82356149d78161537d565b946020939093013593505050565b600080602083850312156149f7578182fd5b823567ffffffffffffffff811115614a0d578283fd5b614a19858286016147ce565b90969095509350505050565b600060208284031215614a36578081fd5b8151610cf781615392565b600060208284031215614a52578081fd5b81356001600160e01b031981168114610cf7578182fd5b60008060008060008060008060006101208a8c031215614a87578687fd5b8935614a928161537d565b985060208a0135614aa28161537d565b975060408a0135614ab28161537d565b965060608a0135614ac28161537d565b955060808a0135614ad28161537d565b945060a08a0135614ae28161537d565b935060c08a0135614af28161537d565b925060e08a01359150614b086101008b01614822565b90509295985092959850929598565b60008060008060808587031215614b2c578182fd5b614b3585614810565b9350614b4360208601614810565b92506040850151614b53816153a0565b6060860151909250614b64816153a0565b939692955090935050565b600060208284031215614b80578081fd5b815167ffffffffffffffff811115614b96578182fd5b8201601f81018413614ba6578182fd5b8051614bb46149568261532f565b818152856020838501011115614bc8578384fd5b614bd9826020830160208601615351565b95945050505050565b600060c08284031215614bf3578081fd5b50919050565b60008183036080811215614c0b578182fd5b6040516040810167ffffffffffffffff8282108183111715614c2957fe5b816040526060841215614c3a578485fd5b60a0830193508184108185111715614c4e57fe5b508260405284359250614c608361537d565b918252602084013591614c728361537d565b82606083015260408501359250614c88836153b5565b608082018390528152614c9d606085016147c3565b6020820152949350505050565b600060208284031215614cbb578081fd5b8135610cf7816153a0565b60008060408385031215614cd8578182fd5b8251614ce3816153a0565b602084015190925061489b816153a0565b600080600080600060a08688031215614d0b578283fd5b8551614d16816153a0565b8095505060208601519350604086015192506060860151614d36816153a0565b6080870151909250614d47816153a0565b809150509295509295909350565b600060208284031215614d66578081fd5b8135610cf7816153b5565b600060208284031215614d82578081fd5b8151610cf7816153b5565b600060208284031215614d9e578081fd5b5035919050565b600060208284031215614db6578081fd5b5051919050565b60008060408385031215614dcf578182fd5b50508035926020909101359150565b60008060408385031215614df0578182fd5b505080516020909101519092909150565b600080600060608486031215614e15578081fd5b83359250602084013591506040840135614e2e8161537d565b809150509250925092565b60008060008060608587031215614e4e578182fd5b8435935060208501359250604085013567ffffffffffffffff80821115614e73578384fd5b818701915087601f830112614e86578384fd5b813581811115614e94578485fd5b886020828501011115614ea5578485fd5b95989497505060200194505050565b60008060008060808587031215614ec9578182fd5b5050823594602084013594506040840135936060013592509050565b600060208284031215614ef6578081fd5b610cf782614822565b60008151808452614f17816020860160208601615351565b601f01601f19169290920160200192915050565b6000828483379101908152919050565b6001600160a01b0391909116815260200190565b600060018060a01b03871682528560020b60208301528460020b60408301526001600160801b038416606083015260a0608083015261461a60a0830184614eff565b6001600160a01b03959095168552600293840b60208601529190920b60408401526001600160801b03918216606084015216608082015260a00190565b6001600160a01b03929092168252602082015260400190565b6001600160a01b039b8c168152998b1660208b015297909916604089015262ffffff959095166060880152600293840b60808801529190920b60a08601526001600160801b0390911660c085015260e08401526101008301526101208201929092526101408101919091526101600190565b6000602080830181845280855180835260408601915060408482028701019250838701855b828110156150ac57603f1988860301845261509a858351614eff565b9450928501929085019060010161507e565b5092979650505050505050565b901515815260200190565b92151583526020830191909152604082015260600190565b931515845260208401929092526040830152606082015260800190565b90815260200190565b6001600160a01b039586168152938516602085015291841660408401529092166060820152608081019190915260a00190565b6001600160a01b03949094168452600292830b6020850152910b60408301526001600160801b0316606082015260800190565b6001600160a01b0394851681529290931660208301526001600160801b039081166040830152909116606082015260800190565b600293840b81529190920b60208201526001600160801b03909116604082015260600190565b600060208252610cf76020830184614eff565b6020808252600b908201526a494e56414c49445f46454560a81b604082015260600190565b815180516001600160a01b03908116835260208083015182168185015260409283015162ffffff1692840192909252920151909116606082015260800190565b6001600160801b0392831681529116602082015260400190565b6001600160801b0394851681526001600160a01b039390931660208401529083166040830152909116606082015260800190565b9283526001600160a01b03918216602084015216604082015260600190565b918252602082015260400190565b63ffffffff91909116815260200190565b6000808335601e198436030181126152dc578283fd5b83018035915067ffffffffffffffff8211156152f6578283fd5b602001915036819003821315612f6957600080fd5b60405181810167ffffffffffffffff8111828210171561532757fe5b604052919050565b600067ffffffffffffffff82111561534357fe5b50601f01601f191660200190565b60005b8381101561536c578181015183820152602001615354565b838111156122675750506000910152565b6001600160a01b03811681146111c857600080fd5b80151581146111c857600080fd5b6001600160801b03811681146111c857600080fd5b62ffffff811681146111c857600080fdfe456e756d657261626c655365743a20696e646578206f7574206f6620626f756e64734552433732313a207472616e7366657220746f206e6f6e20455243373231526563656976657220696d706c656d656e7465724552433732313a207472616e7366657220746f20746865207a65726f20616464726573734552433732313a206f70657261746f7220717565727920666f72206e6f6e6578697374656e7420746f6b656e4552433732313a20617070726f76652063616c6c6572206973206e6f74206f776e6572206e6f7220617070726f76656420666f7220616c6c4552433732313a2062616c616e636520717565727920666f7220746865207a65726f20616464726573734552433732313a206f776e657220717565727920666f72206e6f6e6578697374656e7420746f6b656e496e697469616c697a61626c653a20636f6e747261637420697320616c726561647920696e697469616c697a6564456e756d657261626c654d61703a20696e646578206f7574206f6620626f756e6473536166654d6174683a206d756c7469706c69636174696f6e206f766572666c6f774552433732313a20617070726f76656420717565727920666f72206e6f6e6578697374656e7420746f6b656e4552433732313a207472616e73666572206f6620746f6b656e2074686174206973206e6f74206f776e4552433732314d657461646174613a2055524920717565727920666f72206e6f6e6578697374656e7420746f6b656e4552433732313a20617070726f76616c20746f2063757272656e74206f776e65724552433732313a207472616e736665722063616c6c6572206973206e6f74206f776e6572206e6f7220617070726f766564a26469706673582212202b73e209e9ebcafb8accff9a197eeab00282d7de7544de0802411ff4e4601ab264736f6c63430007060033",
  "immutableReferences": {},
  "source": "// SPDX-License-Identifier: MIT\n\npragma solidity >=0.7.5;\npragma abicoder v2;\n\nimport \"@openzeppelin/contracts/math/SafeMath.sol\";\nimport '@openzeppelin/contracts-upgradeable/token/ERC721/ERC721Upgradeable.sol';\n\nimport \"@uniswap/v3-periphery/contracts/libraries/TransferHelper.sol\";\nimport \"@uniswap/v3-periphery/contracts/libraries/PoolAddress.sol\";\nimport \"@uniswap/v3-core/contracts/interfaces/IUniswapV3Pool.sol\";\nimport \"@uniswap/v3-core/contracts/interfaces/IUniswapV3Factory.sol\";\nimport \"@uniswap/v3-core/contracts/interfaces/callback/IUniswapV3MintCallback.sol\";\nimport '@uniswap/v3-core/contracts/libraries/FixedPoint128.sol';\nimport '@uniswap/v3-core/contracts/libraries/FullMath.sol';\nimport \"@uniswap/v3-periphery/contracts/interfaces/IQuoter.sol\";\n\nimport \"@uniswap/v3-periphery/contracts/libraries/CallbackValidation.sol\";\nimport \"@uniswap/v3-periphery/contracts/interfaces/external/IWETH9.sol\";\n\nimport \"./interfaces/IOrderMonitor.sol\";\nimport \"./interfaces/IOrderManager.sol\";\nimport \"./Multicall.sol\";\nimport \"./ManagerUtils.sol\";\nimport \"./WETHExtended.sol\";\n\n/// @title  LimitOrderManager\ncontract LimitOrderManager is\n    IOrderManager,\n    ERC721Upgradeable,\n    IUniswapV3MintCallback,\n    Multicall {\n\n    using SafeMath for uint256;\n\n    uint256 public constant PROTOCOL_FEE_MULTIPLIER = 100000;\n\n    struct LimitOrder {\n        IUniswapV3Pool pool;\n        IOrderMonitor monitor;\n        int24 tickLower;\n        int24 tickUpper;\n        uint128 liquidity;\n        uint256 opened;\n        uint256 processed;\n        uint256 feeGrowthInside0LastX128;\n        uint256 feeGrowthInside1LastX128;\n        uint128 tokensOwed0;\n        uint128 tokensOwed1;\n    }\n\n     struct MintCallbackData {\n        PoolAddress.PoolKey poolKey;\n        address payer;\n    }\n\n    /// @dev fired when a new limitOrder is placed\n    event LimitOrderCreated(address indexed owner, uint256 indexed tokenId,\n        uint128 orderType, uint160 sqrtPriceX96, uint256 amount0, uint256 amount1);\n\n    /// @dev fired when a an order is processed\n    event LimitOrderProcessed(address indexed monitor, uint256 indexed tokenId,\n        uint256 batchId, uint256 serviceFeePaid);\n\n    /// @dev fired when an order is cancelled\n    event LimitOrderCancelled(address indexed owner, uint256 indexed tokenId, uint256 amount0, uint256 amount1);\n\n    /// @dev fired when an order is collected\n    event LimitOrderCollected(address indexed owner, uint256 indexed tokenId,\n        uint256 tokensOwed0, uint256 tokensOwed1);\n\n    /// @dev fired when a new funding is made\n    event FundingAdded(address indexed from, uint256 amount);\n\n    /// @dev fired when funding is withdrawn\n    event FundingWithdrawn(address indexed from, uint256 amount);\n\n    /// @dev funding\n    mapping(address => uint256) public override funding;\n\n    /// @dev active orders\n    mapping(address => uint256) public activeOrders;\n\n    /// @dev limitOrders per token id\n    mapping (uint256 => LimitOrder) private limitOrders;\n\n    /// @dev controller address; could be DAO\n    address public controller;\n\n    /// @dev monitor pool\n    IOrderMonitor[] public monitors;\n\n    /// @dev wrapper ETH\n    IWETH9 public WETH;\n\n    /// @dev wrapper extended\n    WETHExtended public WETHExt;\n\n    /// @dev utils\n    ManagerUtils public utils;\n\n    /// @dev univ3 factory\n    IUniswapV3Factory public factory;\n\n    /// @dev quoter\n    IQuoter public quoter;\n\n    /// @dev krom token\n    IERC20 public KROM;\n\n    /// @dev address where the protocol fee is sent\n    address public feeAddress;\n\n    /// @dev estimated gas usage when monitoring L.O, including a margin as well\n    uint256 public override gasUsageMonitor;\n\n    /// @dev last monitor index + 1 ; always > 0\n    uint256 public nextMonitor;\n\n    /// @dev The ID of the next token that will be minted. Skips 0\n    uint176 private nextId;\n\n    /// @dev protocol fee applied on top of monitor gas usage\n    uint32 public protocolFee;\n\n    /// @notice Initializes the smart contract instead of a constructorr\n    /// @param  _factory univ3 factory\n    /// @param  _quoter univ3 quoter\n    /// @param  _WETH wrapped ETH\n    /// @param  _utils limit manager utils\n    /// @param  _KROM kromatika token\n    /// @param  _feeAddress protocol fee address\n    /// @param  _gasUsageMonitor estimated gas usage of monitors\n    /// @param  _protocolFee charged fee\n    function initialize(\n            IUniswapV3Factory _factory,\n            IQuoter _quoter,\n            IWETH9 _WETH,\n            WETHExtended _WETHExtended,\n            ManagerUtils _utils,\n            IERC20 _KROM,\n            address _feeAddress,\n            uint256 _gasUsageMonitor,\n            uint32  _protocolFee\n    ) public initializer {\n\n        factory = _factory;\n        utils = _utils;\n        WETH = _WETH;\n        KROM = _KROM;\n        quoter = _quoter;\n        WETHExt = _WETHExtended;\n\n        gasUsageMonitor = _gasUsageMonitor;\n        protocolFee = _protocolFee;\n        feeAddress = _feeAddress;\n\n        nextId = 1;\n        controller = msg.sender;\n\n        ERC721Upgradeable.__ERC721_init(\"Kromatika Position\", \"KROM-POS\");\n    }\n\n    function placeLimitOrder(LimitOrderParams calldata params)\n        public payable override virtual returns (\n            uint256 _tokenId\n        ) {\n\n        require(params._token0 < params._token1);\n\n        int24 _tickLower;\n        int24 _tickUpper;\n        uint128 _liquidity;\n        uint128 _orderType;\n        IUniswapV3Pool _pool;\n\n        PoolAddress.PoolKey memory _poolKey =\n        PoolAddress.PoolKey({\n            token0: params._token0,\n            token1: params._token1,\n            fee: params._fee\n        });\n\n        address _poolAddress = PoolAddress.computeAddress(address(factory), _poolKey);\n        require (_poolAddress != address(0));\n        _pool = IUniswapV3Pool(_poolAddress);\n\n        (_tickLower, _tickUpper, _liquidity, _orderType) = utils.calculateLimitTicks(\n            _pool,\n            params._sqrtPriceX96,\n            params._amount0,\n            params._amount1\n        );\n        _pool.mint(\n            address(this),\n            _tickLower,\n            _tickUpper,\n            _liquidity,\n            abi.encode(MintCallbackData({poolKey: _poolKey, payer: msg.sender}))\n        );\n\n        _mint(msg.sender, (_tokenId = nextId++));\n\n        {\n\n            activeOrders[msg.sender] = activeOrders[msg.sender].add(1);\n            IOrderMonitor _monitor = _selectMonitor();\n\n            (, uint256 _feeGrowthInside0LastX128, uint256 _feeGrowthInside1LastX128, , ) = _pool.positions(\n                PositionKey.compute(address(this), _tickLower, _tickUpper)\n            );\n\n            // Create a limitOrder\n            LimitOrder memory newLimitOrder = LimitOrder({\n                pool: _pool,\n                monitor: _monitor,\n                tickLower: _tickLower,\n                tickUpper: _tickUpper,\n                liquidity: _liquidity,\n                opened: _blockNumber(),\n                processed: 0,\n                feeGrowthInside0LastX128: _feeGrowthInside0LastX128,\n                feeGrowthInside1LastX128: _feeGrowthInside1LastX128,\n                tokensOwed0: params._amount0,\n                tokensOwed1: params._amount1\n            });\n\n            limitOrders[_tokenId] = newLimitOrder;\n\n            _monitor.startMonitor(_tokenId);\n        }\n\n        emit LimitOrderCreated(\n            msg.sender,\n            _tokenId,\n            _orderType,\n            params._sqrtPriceX96,\n            params._amount0,\n            params._amount1\n        );\n    }\n\n    function processLimitOrder(\n        uint256 _tokenId, uint256 _batchId,\n        uint256 _serviceFeePaid, uint256 _monitorFeePaid\n    ) external override\n        returns (uint128 _amount0, uint128 _amount1) {\n\n        LimitOrder storage limitOrder = limitOrders[_tokenId];\n        require(msg.sender == address(limitOrder.monitor));\n        require(limitOrder.processed == 0);\n\n        // remove liqudiity\n        (_amount0, _amount1) = _removeLiquidity(\n            limitOrder.pool,\n            limitOrder.tickLower,\n            limitOrder.tickUpper,\n            limitOrder.liquidity,\n            limitOrder.feeGrowthInside0LastX128,\n            limitOrder.feeGrowthInside1LastX128\n        );\n\n        limitOrder.processed = _blockNumber();\n        limitOrder.tokensOwed0 = _amount0;\n        limitOrder.tokensOwed1 = _amount1;\n        limitOrder.liquidity = 0;\n\n        address _owner = ownerOf(_tokenId);\n\n        // update balance\n        uint256 balance = funding[_owner];\n        // send service fee for this order to the monitor based on the target gas price set\n        uint256 _protocolFeePaid = _serviceFeePaid.sub(_monitorFeePaid);\n        // reduce balance by the service fee\n        balance = balance.sub(_serviceFeePaid);\n        funding[_owner] = balance;\n\n        // reduce activeOrders\n        activeOrders[_owner] = activeOrders[_owner].sub(1);\n\n        // collect the funds\n        _collect(\n            _tokenId,\n            limitOrder.pool,\n            limitOrder.tickLower,\n            limitOrder.tickUpper,\n            limitOrder.tokensOwed0,\n            limitOrder.tokensOwed1,\n            _owner\n        );\n\n        // send fees to monitor and protocol\n        _transferTokenTo(address(KROM), _monitorFeePaid, msg.sender);\n        _transferTokenTo(address(KROM), _protocolFeePaid, feeAddress);\n\n        emit LimitOrderProcessed(msg.sender, _tokenId, _batchId, _serviceFeePaid);\n    }\n\n\n    function cancelLimitOrder(uint256 _tokenId) external returns (\n        uint256 _amount0, uint256 _amount1\n    ) {\n\n        isAuthorizedForToken(_tokenId);\n\n        LimitOrder storage limitOrder = limitOrders[_tokenId];\n        require(limitOrder.processed == 0);\n\n        (_amount0, _amount1) = _removeLiquidity(\n            limitOrder.pool,\n            limitOrder.tickLower,\n            limitOrder.tickUpper,\n            limitOrder.liquidity,\n            limitOrder.feeGrowthInside0LastX128,\n            limitOrder.feeGrowthInside1LastX128\n        );\n\n        activeOrders[msg.sender] = activeOrders[msg.sender].sub(1);\n\n        // burn the token\n        _burn(_tokenId);\n\n        // stop monitor\n        limitOrder.monitor.stopMonitor(_tokenId);\n        // collect the funds\n        _collect(\n            _tokenId,\n            limitOrder.pool,\n            limitOrder.tickLower,\n            limitOrder.tickUpper,\n            limitOrder.tokensOwed0,\n            limitOrder.tokensOwed1,\n            msg.sender\n        );\n\n        delete limitOrders[_tokenId];\n        emit LimitOrderCancelled(msg.sender, _tokenId, _amount0, _amount1);\n    }\n\n    function burn(uint256 _tokenId) external {\n\n        isAuthorizedForToken(_tokenId);\n        // remove information related to tokenId\n        require(limitOrders[_tokenId].processed > 0);\n\n        delete limitOrders[_tokenId];\n        _burn(_tokenId);\n    }\n\n    function addFunding(uint256 _amount) external {\n\n        funding[msg.sender] = funding[msg.sender].add(_amount);\n        TransferHelper.safeTransferFrom(address(KROM), msg.sender, address(this), _amount);\n        emit FundingAdded(msg.sender, _amount);\n    }\n\n    function withdrawFunding(uint256 _amount) external {\n\n        uint256 balance = funding[msg.sender];\n\n        balance = balance.sub(_amount);\n        funding[msg.sender] = balance;\n        TransferHelper.safeTransfer(address(KROM), msg.sender, _amount);\n        emit FundingWithdrawn(msg.sender, _amount);\n    }\n\n    function uniswapV3MintCallback(\n        uint256 amount0Owed,\n        uint256 amount1Owed,\n        bytes calldata data\n    ) external override {\n        MintCallbackData memory decoded = abi.decode(data, (MintCallbackData));\n        CallbackValidation.verifyCallback(address(factory), decoded.poolKey);\n\n        _approveAndTransferToUniswap(msg.sender, decoded.poolKey.token0, amount0Owed, decoded.payer);\n        _approveAndTransferToUniswap(msg.sender, decoded.poolKey.token1, amount1Owed, decoded.payer);\n    }\n\n    function orders(uint256 tokenId)\n    external\n    view\n    returns (\n        address owner,\n        address token0,\n        address token1,\n        uint24 fee,\n        int24 tickLower,\n        int24 tickUpper,\n        uint128 liquidity,\n        uint256 opened,\n        uint256 processed,\n        uint256 tokensOwed0,\n        uint256 tokensOwed1\n    )\n    {\n        LimitOrder memory limitOrder = limitOrders[tokenId];\n        require(address(limitOrder.pool) != address(0));\n        return (\n            ownerOf(tokenId),\n            limitOrder.pool.token0(),\n            limitOrder.pool.token1(),\n            limitOrder.pool.fee(),\n            limitOrder.tickLower,\n            limitOrder.tickUpper,\n            limitOrder.liquidity,\n            limitOrder.opened,\n            limitOrder.processed,\n            limitOrder.tokensOwed0,\n            limitOrder.tokensOwed1\n        );\n    }\n\n    function canProcess(uint256 _tokenId, uint256 _gasPrice) external override\n    returns (bool underfunded, uint256 _serviceFee, uint256 _monitorFee) {\n\n        LimitOrder storage limitOrder = limitOrders[_tokenId];\n\n        address _owner = ownerOf(_tokenId);\n        (underfunded, , _serviceFee, _monitorFee) = isUnderfunded(_owner, _gasPrice);\n        if (underfunded) {\n            underfunded = false;\n        } else {\n            (uint256 amount0, uint256 amount1) =\n                utils._amountsForLiquidity(\n                    limitOrder.pool,\n                    limitOrder.tickLower,\n                    limitOrder.tickUpper,\n                    limitOrder.liquidity\n                );\n\n            if (\n                limitOrder.tokensOwed0 == 0 && amount0 > 0 &&\n                limitOrder.tokensOwed1 > 0 && amount1 == 0\n            ) {\n                underfunded = true;\n            } else if (\n                limitOrder.tokensOwed0 > 0 && amount0 == 0 &&\n                limitOrder.tokensOwed1 == 0 && amount1 > 0\n            ) {\n                underfunded = true;\n            } else { underfunded = false;}\n        }\n    \n    }\n\n    function isUnderfunded(address _owner, uint256 _targetGasPrice) public returns (\n        bool underfunded, uint256 amount, uint256 _serviceFee, uint256 _monitorFee\n    ) {\n        if (_targetGasPrice > 0) {\n            (_serviceFee,_monitorFee)= estimateServiceFee(\n                _targetGasPrice, 1, _owner\n            );\n            uint256 reservedServiceFee = _serviceFee.mul(activeOrders[_owner]);\n            uint256 balance = funding[_owner];\n\n            if (reservedServiceFee > balance) {\n                underfunded = true;\n                amount = reservedServiceFee.sub(balance);\n            }\n        } else {\n            underfunded = true;\n        }\n    }\n\n    function setMonitors(IOrderMonitor[] calldata _newMonitors) external {\n\n        isAuthorizedController();\n        require(_newMonitors.length > 0);\n        monitors = _newMonitors;\n    }\n\n    function addMonitor(IOrderMonitor _newMonitor) external {\n        isAuthorizedController();\n        monitors.push(_newMonitor);\n    }\n\n    function setProtocolFee(uint32 _protocolFee) external {\n        isAuthorizedController();\n        require(_protocolFee <= PROTOCOL_FEE_MULTIPLIER, \"INVALID_FEE\");\n        protocolFee = _protocolFee;\n    }\n\n    function setGasUsageMonitor(uint256 _gasUsageMonitor) external {\n        isAuthorizedController();\n        gasUsageMonitor = _gasUsageMonitor;\n    }\n\n    function changeController(address _controller) external {\n        isAuthorizedController();\n        controller = _controller;\n    }\n\n    function monitorsLength() external view returns (uint256) {\n        return monitors.length;\n    }\n\n    function quoteKROM(uint256 _weiAmount) public override returns (uint256 quote) {\n\n        return utils.quoteKROM(\n            factory,\n            quoter,\n            address(WETH),\n            address(KROM),\n            _weiAmount\n        );\n    }\n\n    function serviceFee(address _owner, uint256 _targetGasPrice)\n        public returns (uint256 _serviceFee) {\n\n        (_serviceFee,) = estimateServiceFee(\n            _targetGasPrice,\n            activeOrders[_owner],\n            _owner\n        );\n    }\n\n    function estimateServiceFee(\n        uint256 _targetGasPrice,\n        uint256 _noOrders,\n        address) public virtual\n    returns (uint256 _serviceFee, uint256 _monitorFee) {\n\n        _monitorFee = quoteKROM(\n            gasUsageMonitor.mul(_targetGasPrice).mul(_noOrders)\n        );\n\n        _serviceFee = _monitorFee\n            .mul(PROTOCOL_FEE_MULTIPLIER.add(protocolFee))\n            .div(PROTOCOL_FEE_MULTIPLIER);\n    }\n\n    function _collect(\n        uint256 _tokenId,\n        IUniswapV3Pool _pool,\n        int24 _tickLower,\n        int24 _tickUpper,\n        uint128 _tokensOwed0,\n        uint128 _tokensOwed1,\n        address _owner\n    ) internal returns\n        (uint256 _tokensToSend0, uint256 _tokensToSend1) {\n\n        (_tokensToSend0, _tokensToSend1) =\n            _pool.collect(\n                address(this),\n                 _tickLower,\n                _tickUpper,\n                _tokensOwed0,\n                _tokensOwed1\n            );\n\n        require(_tokensToSend0 > 0 || _tokensToSend1 > 0);\n\n        _transferTokenTo(_pool.token0(), _tokensToSend0, _owner);\n        _transferTokenTo(_pool.token1(), _tokensToSend1, _owner);\n\n        emit LimitOrderCollected(_owner, _tokenId, _tokensToSend0, _tokensToSend1);\n    }\n\n    function _selectMonitor() internal returns (IOrderMonitor _monitor) {\n\n        uint256 monitorLength = monitors.length;\n        require(monitorLength > 0);\n\n        uint256 _selectedIndex = nextMonitor == monitorLength\n            ? 0\n            : nextMonitor;\n\n        _monitor = monitors[_selectedIndex];\n        nextMonitor = _selectedIndex.add(1);\n    }\n\n    /// @dev Casts uint256 to uint128 with overflow check.\n    function _toUint128(uint256 x) internal pure returns (uint128) {\n        assert(x <= type(uint128).max);\n        return uint128(x);\n    }\n\n    /// @dev Approve transfer to position manager\n    function _approveAndTransferToUniswap(address _recipient, \n        address _token, uint256 _amount, address _owner) private {\n\n        if (_amount > 0) {\n            // transfer tokens to contract\n            if (_token == address(WETH)) {\n                // if _token is WETH --> wrap it first\n                WETH.deposit{value: _amount}();\n                WETH.transfer(_recipient, _amount);\n            } else {\n                TransferHelper.safeTransferFrom(_token, _owner, _recipient, _amount);\n            }\n        }\n    }\n\n    function _transferTokenTo(address _token, uint256 _amount, address _to) private {\n        if (_amount > 0) {\n            if (_token == address(WETH)) {\n                // if token is WETH, withdraw and send back ETH\n                WETH.transfer(address(WETHExt), _amount);\n                WETHExt.withdraw(_amount, _to, WETH);\n            } else {\n                TransferHelper.safeTransfer(_token, _to, _amount);\n            }\n        }\n    }\n\n\n    function _removeLiquidity(\n        IUniswapV3Pool _pool,\n        int24 _tickLower,\n        int24 _tickUpper,\n        uint128 _liquidity,\n        uint256 _feeGrowthInside0LastX128,\n        uint256 _feeGrowthInside1LastX128\n    )\n    internal\n    returns (\n        uint128 tokensOwed0,\n        uint128 tokensOwed1\n    ) {\n\n        if (_liquidity > 0) {\n            (uint256 amount0, uint256 amount1) = _pool.burn(\n                _tickLower, _tickUpper, _liquidity\n            );\n\n            bytes32 positionKey = PositionKey.compute(address(this), _tickLower, _tickUpper);\n            (, uint256 feeGrowthInside0LastX128, uint256 feeGrowthInside1LastX128, , ) = _pool.positions(positionKey);\n\n            tokensOwed0 = uint128(amount0) + uint128(\n                FullMath.mulDiv(\n                    feeGrowthInside0LastX128 - _feeGrowthInside0LastX128,\n                    _liquidity,\n                    FixedPoint128.Q128\n                )\n            );\n\n            tokensOwed1 = uint128(amount1) + uint128(\n                FullMath.mulDiv(\n                    feeGrowthInside1LastX128 - _feeGrowthInside1LastX128,\n                    _liquidity,\n                    FixedPoint128.Q128\n                )\n            );\n        }\n    }\n\n    function _blockNumber() internal view returns (uint256) {\n        return block.number;\n    }\n\n    function isAuthorizedForToken(uint256 tokenId) internal view {\n        require(_isApprovedOrOwner(msg.sender, tokenId));\n    }\n\n    function isAuthorizedController() internal view {\n        require(msg.sender == controller);\n    }\n\n    // Function to receive Ether. msg.data must be empty\n    receive() external payable {}\n\n    // Fallback function is called when msg.data is not empty\n    fallback() external payable {}\n}",
  "sourcePath": "/Users/aristokrates/Downloads/limit-trade-main/contracts/LimitOrderManager.sol",
  "compiler": {
    "name": "solc",
    "version": "0.7.6+commit.7338295f.Emscripten.clang"
  },
  "schemaVersion": "3.4.4",
  "updatedAt": "2021-12-19T21:38:43.840Z",
  "devdoc": {
    "events": {
      "FundingAdded(address,uint256)": {
        "details": "fired when a new funding is made"
      },
      "FundingWithdrawn(address,uint256)": {
        "details": "fired when funding is withdrawn"
      },
      "LimitOrderCancelled(address,uint256,uint256,uint256)": {
        "details": "fired when an order is cancelled"
      },
      "LimitOrderCollected(address,uint256,uint256,uint256)": {
        "details": "fired when an order is collected"
      },
      "LimitOrderCreated(address,uint256,uint128,uint160,uint256,uint256)": {
        "details": "fired when a new limitOrder is placed"
      },
      "LimitOrderProcessed(address,uint256,uint256,uint256)": {
        "details": "fired when a an order is processed"
      }
    },
    "kind": "dev",
    "methods": {
      "approve(address,uint256)": {
        "details": "See {IERC721-approve}."
      },
      "balanceOf(address)": {
        "details": "See {IERC721-balanceOf}."
      },
      "baseURI()": {
        "details": "Returns the base URI set via {_setBaseURI}. This will be automatically added as a prefix in {tokenURI} to each token's URI, or to the token ID if no specific URI is set for that token ID."
      },
      "getApproved(uint256)": {
        "details": "See {IERC721-getApproved}."
      },
      "initialize(address,address,address,address,address,address,address,uint256,uint32)": {
        "params": {
          "_KROM": "kromatika token",
          "_WETH": "wrapped ETH",
          "_factory": "univ3 factory",
          "_feeAddress": "protocol fee address",
          "_gasUsageMonitor": "estimated gas usage of monitors",
          "_protocolFee": "charged fee",
          "_quoter": "univ3 quoter",
          "_utils": "limit manager utils"
        }
      },
      "isApprovedForAll(address,address)": {
        "details": "See {IERC721-isApprovedForAll}."
      },
      "multicall(bytes[])": {
        "details": "The `msg.value` should not be trusted for any method callable from multicall.",
        "params": {
          "data": "The encoded function data for each of the calls to make to this contract"
        },
        "returns": {
          "results": "The results from each of the calls passed in via data"
        }
      },
      "name()": {
        "details": "See {IERC721Metadata-name}."
      },
      "ownerOf(uint256)": {
        "details": "See {IERC721-ownerOf}."
      },
      "safeTransferFrom(address,address,uint256)": {
        "details": "See {IERC721-safeTransferFrom}."
      },
      "safeTransferFrom(address,address,uint256,bytes)": {
        "details": "See {IERC721-safeTransferFrom}."
      },
      "setApprovalForAll(address,bool)": {
        "details": "See {IERC721-setApprovalForAll}."
      },
      "supportsInterface(bytes4)": {
        "details": "See {IERC165-supportsInterface}. Time complexity O(1), guaranteed to always use less than 30 000 gas."
      },
      "symbol()": {
        "details": "See {IERC721Metadata-symbol}."
      },
      "tokenByIndex(uint256)": {
        "details": "See {IERC721Enumerable-tokenByIndex}."
      },
      "tokenOfOwnerByIndex(address,uint256)": {
        "details": "See {IERC721Enumerable-tokenOfOwnerByIndex}."
      },
      "tokenURI(uint256)": {
        "details": "See {IERC721Metadata-tokenURI}."
      },
      "totalSupply()": {
        "details": "See {IERC721Enumerable-totalSupply}."
      },
      "transferFrom(address,address,uint256)": {
        "details": "See {IERC721-transferFrom}."
      },
      "uniswapV3MintCallback(uint256,uint256,bytes)": {
        "details": "In the implementation you must pay the pool tokens owed for the minted liquidity. The caller of this method must be checked to be a UniswapV3Pool deployed by the canonical UniswapV3Factory.",
        "params": {
          "amount0Owed": "The amount of token0 due to the pool for the minted liquidity",
          "amount1Owed": "The amount of token1 due to the pool for the minted liquidity",
          "data": "Any data passed through by the caller via the IUniswapV3PoolActions#mint call"
        }
      }
    },
    "stateVariables": {
      "KROM": {
        "details": "krom token"
      },
      "WETH": {
        "details": "wrapper ETH"
      },
      "WETHExt": {
        "details": "wrapper extended"
      },
      "activeOrders": {
        "details": "active orders"
      },
      "controller": {
        "details": "controller address; could be DAO"
      },
      "factory": {
        "details": "univ3 factory"
      },
      "feeAddress": {
        "details": "address where the protocol fee is sent"
      },
      "funding": {
        "details": "funding"
      },
      "gasUsageMonitor": {
        "details": "estimated gas usage when monitoring L.O, including a margin as well"
      },
      "limitOrders": {
        "details": "limitOrders per token id"
      },
      "monitors": {
        "details": "monitor pool"
      },
      "nextId": {
        "details": "The ID of the next token that will be minted. Skips 0"
      },
      "nextMonitor": {
        "details": "last monitor index + 1 ; always > 0"
      },
      "protocolFee": {
        "details": "protocol fee applied on top of monitor gas usage"
      },
      "quoter": {
        "details": "quoter"
      },
      "utils": {
        "details": "utils"
      }
    },
    "title": "LimitOrderManager",
    "version": 1
  },
  "userdoc": {
    "kind": "user",
    "methods": {
      "initialize(address,address,address,address,address,address,address,uint256,uint32)": {
        "notice": "Initializes the smart contract instead of a constructorr"
      },
      "multicall(bytes[])": {
        "notice": "Call multiple functions in the current contract and return the data from all of them if they all succeed"
      },
      "uniswapV3MintCallback(uint256,uint256,bytes)": {
        "notice": "Called to `msg.sender` after minting liquidity to a position from IUniswapV3Pool#mint."
      }
    },
    "version": 1
  }
}