{
  "contractName": "LimitOrderMonitorChainlink",
  "abi": [
    {
      "anonymous": false,
      "inputs": [
        {
          "indexed": false,
          "internalType": "uint256",
          "name": "batchId",
          "type": "uint256"
        },
        {
          "indexed": false,
          "internalType": "uint256",
          "name": "batchSize",
          "type": "uint256"
        },
        {
          "indexed": false,
          "internalType": "uint256",
          "name": "gasUsed",
          "type": "uint256"
        },
        {
          "indexed": false,
          "internalType": "uint256",
          "name": "paymentPaid",
          "type": "uint256"
        },
        {
          "indexed": false,
          "internalType": "bytes",
          "name": "data",
          "type": "bytes"
        }
      ],
      "name": "BatchProcessed",
      "type": "event"
    },
    {
      "inputs": [],
      "name": "KROM",
      "outputs": [
        {
          "internalType": "contract IERC20",
          "name": "",
          "type": "address"
        }
      ],
      "stateMutability": "view",
      "type": "function"
    },
    {
      "inputs": [],
      "name": "LINK",
      "outputs": [
        {
          "internalType": "contract IERC20",
          "name": "",
          "type": "address"
        }
      ],
      "stateMutability": "view",
      "type": "function"
    },
    {
      "inputs": [],
      "name": "POOL_FEE",
      "outputs": [
        {
          "internalType": "uint24",
          "name": "",
          "type": "uint24"
        }
      ],
      "stateMutability": "view",
      "type": "function"
    },
    {
      "inputs": [],
      "name": "WETH",
      "outputs": [
        {
          "internalType": "contract IWETH9",
          "name": "",
          "type": "address"
        }
      ],
      "stateMutability": "view",
      "type": "function"
    },
    {
      "inputs": [],
      "name": "batchCount",
      "outputs": [
        {
          "internalType": "uint256",
          "name": "",
          "type": "uint256"
        }
      ],
      "stateMutability": "view",
      "type": "function"
    },
    {
      "inputs": [],
      "name": "batchSize",
      "outputs": [
        {
          "internalType": "uint256",
          "name": "",
          "type": "uint256"
        }
      ],
      "stateMutability": "view",
      "type": "function"
    },
    {
      "inputs": [
        {
          "internalType": "address",
          "name": "_controller",
          "type": "address"
        }
      ],
      "name": "changeController",
      "outputs": [],
      "stateMutability": "nonpayable",
      "type": "function"
    },
    {
      "inputs": [
        {
          "internalType": "address",
          "name": "_keeper",
          "type": "address"
        }
      ],
      "name": "changeKeeper",
      "outputs": [],
      "stateMutability": "nonpayable",
      "type": "function"
    },
    {
      "inputs": [
        {
          "internalType": "bytes",
          "name": "",
          "type": "bytes"
        }
      ],
      "name": "checkUpkeep",
      "outputs": [
        {
          "internalType": "bool",
          "name": "upkeepNeeded",
          "type": "bool"
        },
        {
          "internalType": "bytes",
          "name": "performData",
          "type": "bytes"
        }
      ],
      "stateMutability": "nonpayable",
      "type": "function"
    },
    {
      "inputs": [],
      "name": "controller",
      "outputs": [
        {
          "internalType": "address",
          "name": "",
          "type": "address"
        }
      ],
      "stateMutability": "view",
      "type": "function"
    },
    {
      "inputs": [],
      "name": "factory",
      "outputs": [
        {
          "internalType": "contract IUniswapV3Factory",
          "name": "",
          "type": "address"
        }
      ],
      "stateMutability": "view",
      "type": "function"
    },
    {
      "inputs": [],
      "name": "keeper",
      "outputs": [
        {
          "internalType": "address",
          "name": "",
          "type": "address"
        }
      ],
      "stateMutability": "view",
      "type": "function"
    },
    {
      "inputs": [],
      "name": "keeperId",
      "outputs": [
        {
          "internalType": "uint256",
          "name": "",
          "type": "uint256"
        }
      ],
      "stateMutability": "view",
      "type": "function"
    },
    {
      "inputs": [],
      "name": "lastUpkeep",
      "outputs": [
        {
          "internalType": "uint256",
          "name": "",
          "type": "uint256"
        }
      ],
      "stateMutability": "view",
      "type": "function"
    },
    {
      "inputs": [],
      "name": "monitorSize",
      "outputs": [
        {
          "internalType": "uint256",
          "name": "",
          "type": "uint256"
        }
      ],
      "stateMutability": "view",
      "type": "function"
    },
    {
      "inputs": [],
      "name": "orderManager",
      "outputs": [
        {
          "internalType": "contract IOrderManager",
          "name": "",
          "type": "address"
        }
      ],
      "stateMutability": "view",
      "type": "function"
    },
    {
      "inputs": [
        {
          "internalType": "bytes",
          "name": "performData",
          "type": "bytes"
        }
      ],
      "name": "performUpkeep",
      "outputs": [],
      "stateMutability": "nonpayable",
      "type": "function"
    },
    {
      "inputs": [
        {
          "internalType": "uint256",
          "name": "_batchSize",
          "type": "uint256"
        }
      ],
      "name": "setBatchSize",
      "outputs": [],
      "stateMutability": "nonpayable",
      "type": "function"
    },
    {
      "inputs": [
        {
          "internalType": "uint256",
          "name": "_monitorSize",
          "type": "uint256"
        }
      ],
      "name": "setMonitorSize",
      "outputs": [],
      "stateMutability": "nonpayable",
      "type": "function"
    },
    {
      "inputs": [
        {
          "internalType": "uint256",
          "name": "_upkeepInterval",
          "type": "uint256"
        }
      ],
      "name": "setUpkeepInterval",
      "outputs": [],
      "stateMutability": "nonpayable",
      "type": "function"
    },
    {
      "inputs": [
        {
          "internalType": "uint256",
          "name": "_tokenId",
          "type": "uint256"
        }
      ],
      "name": "startMonitor",
      "outputs": [],
      "stateMutability": "nonpayable",
      "type": "function"
    },
    {
      "inputs": [
        {
          "internalType": "uint256",
          "name": "_tokenId",
          "type": "uint256"
        }
      ],
      "name": "stopMonitor",
      "outputs": [],
      "stateMutability": "nonpayable",
      "type": "function"
    },
    {
      "inputs": [],
      "name": "swapRouter",
      "outputs": [
        {
          "internalType": "contract ISwapRouter",
          "name": "",
          "type": "address"
        }
      ],
      "stateMutability": "view",
      "type": "function"
    },
    {
      "inputs": [
        {
          "internalType": "uint256",
          "name": "",
          "type": "uint256"
        }
      ],
      "name": "tokenIds",
      "outputs": [
        {
          "internalType": "uint256",
          "name": "",
          "type": "uint256"
        }
      ],
      "stateMutability": "view",
      "type": "function"
    },
    {
      "inputs": [
        {
          "internalType": "uint256",
          "name": "",
          "type": "uint256"
        }
      ],
      "name": "tokenIndexPerTokenId",
      "outputs": [
        {
          "internalType": "uint256",
          "name": "",
          "type": "uint256"
        }
      ],
      "stateMutability": "view",
      "type": "function"
    },
    {
      "inputs": [],
      "name": "upkeepInterval",
      "outputs": [
        {
          "internalType": "uint256",
          "name": "",
          "type": "uint256"
        }
      ],
      "stateMutability": "view",
      "type": "function"
    },
    {
      "inputs": [
        {
          "internalType": "contract IOrderManager",
          "name": "_orderManager",
          "type": "address"
        },
        {
          "internalType": "contract IUniswapV3Factory",
          "name": "_factory",
          "type": "address"
        },
        {
          "internalType": "contract IERC20",
          "name": "_KROM",
          "type": "address"
        },
        {
          "internalType": "address",
          "name": "_keeper",
          "type": "address"
        },
        {
          "internalType": "uint256",
          "name": "_batchSize",
          "type": "uint256"
        },
        {
          "internalType": "uint256",
          "name": "_monitorSize",
          "type": "uint256"
        },
        {
          "internalType": "uint256",
          "name": "_upkeepInterval",
          "type": "uint256"
        },
        {
          "internalType": "contract ISwapRouter",
          "name": "_swapRouter",
          "type": "address"
        },
        {
          "internalType": "contract IWETH9",
          "name": "_WETH",
          "type": "address"
        },
        {
          "internalType": "contract IERC20",
          "name": "_LINK",
          "type": "address"
        }
      ],
      "name": "initialize",
      "outputs": [],
      "stateMutability": "nonpayable",
      "type": "function"
    },
    {
      "inputs": [
        {
          "internalType": "contract IOrderManager",
          "name": "_orderManager",
          "type": "address"
        },
        {
          "internalType": "contract IUniswapV3Factory",
          "name": "_factory",
          "type": "address"
        },
        {
          "internalType": "contract IERC20",
          "name": "_KROM",
          "type": "address"
        },
        {
          "internalType": "address",
          "name": "_keeper",
          "type": "address"
        },
        {
          "internalType": "uint256",
          "name": "_batchSize",
          "type": "uint256"
        },
        {
          "internalType": "uint256",
          "name": "_monitorSize",
          "type": "uint256"
        },
        {
          "internalType": "uint256",
          "name": "_upkeepInterval",
          "type": "uint256"
        }
      ],
      "name": "initialize",
      "outputs": [],
      "stateMutability": "nonpayable",
      "type": "function"
    },
    {
      "inputs": [
        {
          "internalType": "uint256",
          "name": "_keeperId",
          "type": "uint256"
        }
      ],
      "name": "setKeeperId",
      "outputs": [],
      "stateMutability": "nonpayable",
      "type": "function"
    }
  ],
  "bytecode": "0x608060405234801561001057600080fd5b50611860806100206000396000f3fe608060405234801561001057600080fd5b50600436106101cf5760003560e01c8063aced166111610104578063d58778d6116100a2578063ef5ec1da11610071578063ef5ec1da14610376578063f4daaba11461037e578063f77c479114610386578063f9b6117f1461038e576101cf565b8063d58778d614610328578063d85955721461033b578063dd1b9c4a1461034e578063e77fc7a414610363576101cf565b8063c31c9c07116100de578063c31c9c07146102fd578063c45a015514610305578063c803206f1461030d578063c9a64a5914610315576101cf565b8063aced1661146102da578063ad5c4648146102e2578063b53e7660146102ea576101cf565b80634e924fe0116101715780636e04ff0d1161014b5780636e04ff0d1461028b57806372e4c9f6146102ac578063860965c6146102bf5780639bb0dafa146102c7576101cf565b80634e924fe01461025d578063576f35e3146102705780635a74373c14610283576101cf565b80632bc723fc116101ad5780632bc723fc1461021c5780633cebb8231461022f5780633d7c5d3e146102425780634585e33b1461024a576101cf565b806306f13056146101d457806309779838146101f25780631b6b6d2314610207575b600080fd5b6101dc610396565b6040516101e9919061174e565b60405180910390f35b6102056102003660046111c8565b61039c565b005b61020f6103c6565b6040516101e9919061157c565b6101dc61022a3660046114af565b6103d5565b61020561023d3660046111c8565b6103e7565b6101dc610411565b6102056102583660046112e6565b610417565b61020561026b3660046113c9565b61061e565b61020561027e3660046114af565b610716565b6101dc61076f565b61029e6102993660046112e6565b610775565b6040516101e99291906115f1565b6102056102ba3660046114af565b610909565b6101dc610916565b6102056102d53660046114af565b61091c565b61020f61096d565b61020f61097c565b6102056102f83660046114af565b61098b565b61020f610a1f565b61020f610a2e565b61020f610a3d565b6102056103233660046114af565b610a4c565b6101dc6103363660046114af565b610a59565b6102056103493660046114af565b610a7a565b610356610ab0565b6040516101e9919061173e565b610205610371366004611353565b610ab6565b6101dc610ca3565b6101dc610ca9565b61020f610caf565b61020f610cbe565b600c5481565b6103a4610ccd565b600480546001600160a01b0319166001600160a01b0392909216919091179055565b600f546001600160a01b031681565b60016020526000908152604090205481565b6103ef610ccd565b600380546001600160a01b0319166001600160a01b0392909216919091179055565b60085481565b61041f610ce6565b60005a600c80546001019055905060008061043c848601866111e4565b9150915060008060008060008060005b878110156105ad5788818151811061046057fe5b6020908102919091010151600554604051633b0c25ad60e01b81529193506001600160a01b031690633b0c25ad9061049e9085903a90600401611757565b606060405180830381600087803b1580156104b857600080fd5b505af11580156104cc573d6000803e3d6000fd5b505050506040513d601f19601f820116820180604052508101906104f091906112b2565b9196509450925084156105a55760019095019461050c82610cfd565b600554600c5460405163ceeb857b60e01b81526001600160a01b039092169163ceeb857b916105449186919089908990600401611765565b6040805180830381600087803b15801561055d57600080fd5b505af1158015610571573d6000803e3d6000fd5b505050506040513d601f19601f82011682018060405250810190610595919061147d565b506105a290508784610d82565b96505b60010161044c565b5050505050600081116105bf57600080fd5b5a43600855909403936105d28233610de3565b7f6f25cb256dfaa102b8807fbe67685c9b46d73f2f68dbe8c2fcfc12c7d75a1839600c548287858b8b60405161060d96959493929190611780565b60405180910390a150505050505050565b600054610100900460ff16806106375750610637610f86565b80610645575060005460ff16155b6106805760405162461bcd60e51b815260040180806020018281038252602e8152602001806117fd602e913960400191505060405180910390fd5b600054610100900460ff161580156106ab576000805460ff1961ff0019909116610100171660011790555b6106ba8b8b8b8b8b8b8b610ab6565b600d80546001600160a01b038087166001600160a01b031992831617909255600f8054858416908316179055600e8054928616929091169190911790558015610709576000805461ff00191690555b5050505050505050505050565b61071e610ccd565b60648111156107485760405162461bcd60e51b815260040161073f906116ba565b60405180910390fd5b600a5481111561076a5760405162461bcd60e51b815260040161073f9061166d565b600955565b600b5481565b60006060600b54600854610787610f97565b0311915081156109025760008060095467ffffffffffffffff811180156107ad57600080fd5b506040519080825280602002602001820160405280156107d7578160200160208202803683370190505b5090506000805b6002548110156108ce57600281815481106107f557fe5b6000918252602090912001546005549094506001600160a01b0316633b0c25ad8561081f3a610f9b565b6040518363ffffffff1660e01b815260040161083c929190611757565b606060405180830381600087803b15801561085657600080fd5b505af115801561086a573d6000803e3d6000fd5b505050506040513d601f19601f8201168201806040525081019061088e91906112b2565b509096505085156108b857838383815181106108a657fe5b60209081029190910101526001909101905b60095482106108c6576108ce565b6001016107de565b508015801595506108fe5781816040516020016108ec9291906115a9565b60405160208183030381529060405293505b5050505b9250929050565b610911610ccd565b600b55565b600a5481565b610924610ccd565b6127108111156109465760405162461bcd60e51b815260040161073f90611614565b6009548110156109685760405162461bcd60e51b815260040161073f9061166d565b600a55565b6004546001600160a01b031681565b600e546001600160a01b031681565b6005546001600160a01b031633146109b55760405162461bcd60e51b815260040161073f90611642565b600a54600254106109d85760405162461bcd60e51b815260040161073f90611694565b60028054600181810183557f405787fa12a823e0f2b7631cc41b3ba8828b3321ca811111fa75cd3aa3bb5ace90910183905590546000928352602091909152604090912055565b600d546001600160a01b031681565b6006546001600160a01b031681565b6007546001600160a01b031681565b610a54610ccd565b601055565b60028181548110610a6957600080fd5b600091825260209091200154905081565b6005546001600160a01b03163314610aa45760405162461bcd60e51b815260040161073f90611642565b610aad81610cfd565b50565b610bb881565b600054610100900460ff1680610acf5750610acf610f86565b80610add575060005460ff16155b610b185760405162461bcd60e51b815260040180806020018281038252602e8152602001806117fd602e913960400191505060405180910390fd5b600054610100900460ff16158015610b43576000805460ff1961ff0019909116610100171660011790555b6064841115610b645760405162461bcd60e51b815260040161073f906116ba565b612710831115610b865760405162461bcd60e51b815260040161073f90611614565b82841115610ba65760405162461bcd60e51b815260040161073f9061166d565b600580546001600160a01b03808b166001600160a01b03199283161792839055600680548b8316908416179055600780548a831690841617908190556009889055600a879055600b86905560038054841633179055600480548a8416941693909317835560405163095ea7b360e01b81529082169363095ea7b393610c349391909116916000199101611590565b602060405180830381600087803b158015610c4e57600080fd5b505af1158015610c62573d6000803e3d6000fd5b505050506040513d601f19601f82011682018060405250810190610c869190611298565b508015610c99576000805461ff00191690555b5050505050505050565b60105481565b60095481565b6003546001600160a01b031681565b6005546001600160a01b031681565b6003546001600160a01b03163314610ce457600080fd5b565b6004546001600160a01b03163314610ce457600080fd5b6000818152600160205260408120546002805460001992830193928101908110610d2357fe5b90600052602060002001549050610d3b826002610fb3565b600254610d5657600081815260016020526040812055610d7d565b6002548214610d7d5760008181526001602081905260408083209185019091558482528120555b505050565b600082820183811015610ddc576040805162461bcd60e51b815260206004820152601b60248201527f536166654d6174683a206164646974696f6e206f766572666c6f770000000000604482015290519081900360640190fd5b9392505050565b8115610f8257600060105411610df857600080fd5b600754600d54610e15916001600160a01b03908116911684611040565b6040805160a08101909152600754600e54600f54600093928392610e52926001600160a01b0392831692610bb89281169183911660c0870161152a565b60408051601f198184030181529181529082523060208301524282820152606082018690526000608090920191909152600d54905163c04b8d5960e01b81529192506001600160a01b03169063c04b8d5990610eb29084906004016116e6565b602060405180830381600087803b158015610ecc57600080fd5b505af1158015610ee0573d6000803e3d6000fd5b505050506040513d601f19601f82011682018060405250810190610f0491906114c7565b600f54909350610f1e906001600160a01b03168385611040565b60105460405163948108f760e01b81526001600160a01b0384169163948108f791610f4e919087906004016117cb565b600060405180830381600087803b158015610f6857600080fd5b505af1158015610f7c573d6000803e3d6000fd5b50505050505b5050565b6000610f913061118e565b15905090565b4390565b6000808211610fab576000610fad565b815b92915050565b805460001901821415610fe55780805480610fca57fe5b60019003818190600052602060002001600090559055610f82565b805481906000198101908110610ff757fe5b906000526020600020015481838154811061100e57fe5b90600052602060002001819055508080548061102657fe5b600190038181906000526020600020016000905590555050565b604080516001600160a01b038481166024830152604480830185905283518084039091018152606490920183526020820180516001600160e01b031663095ea7b360e01b1781529251825160009485949389169392918291908083835b602083106110bc5780518252601f19909201916020918201910161109d565b6001836020036101000a0380198251168184511680821785525050505050509050019150506000604051808303816000865af19150503d806000811461111e576040519150601f19603f3d011682016040523d82523d6000602084013e611123565b606091505b5091509150818015611151575080511580611151575080806020019051602081101561114e57600080fd5b50515b611187576040805162461bcd60e51b8152602060048201526002602482015261534160f01b604482015290519081900360640190fd5b5050505050565b803b15155b919050565b8051801515811461119357600080fd5b80516fffffffffffffffffffffffffffffffff8116811461119357600080fd5b6000602082840312156111d9578081fd5b8135610ddc816117e7565b600080604083850312156111f6578081fd5b823567ffffffffffffffff8082111561120d578283fd5b818501915085601f830112611220578283fd5b813560208282111561122e57fe5b8082026040518282820101818110868211171561124757fe5b604052838152828101945085830182870184018b1015611265578788fd5b8796505b84871015611287578035865260019690960195948301948301611269565b509997909101359750505050505050565b6000602082840312156112a9578081fd5b610ddc82611198565b6000806000606084860312156112c6578081fd5b6112cf84611198565b925060208401519150604084015190509250925092565b600080602083850312156112f8578182fd5b823567ffffffffffffffff8082111561130f578384fd5b818501915085601f830112611322578384fd5b813581811115611330578485fd5b866020828501011115611341578485fd5b60209290920196919550909350505050565b600080600080600080600060e0888a03121561136d578283fd5b8735611378816117e7565b96506020880135611388816117e7565b95506040880135611398816117e7565b945060608801356113a8816117e7565b9699959850939660808101359560a0820135955060c0909101359350915050565b6000806000806000806000806000806101408b8d0312156113e8578283fd5b8a356113f3816117e7565b995060208b0135611403816117e7565b985060408b0135611413816117e7565b975060608b0135611423816117e7565b965060808b0135955060a08b0135945060c08b0135935060e08b0135611448816117e7565b92506101008b0135611459816117e7565b91506101208b013561146a816117e7565b809150509295989b9194979a5092959850565b6000806040838503121561148f578182fd5b611498836111a8565b91506114a6602084016111a8565b90509250929050565b6000602082840312156114c0578081fd5b5035919050565b6000602082840312156114d8578081fd5b5051919050565b60008151808452815b81811015611504576020818501810151868301820152016114e8565b818111156115155782602083870101525b50601f01601f19169290920160200192915050565b6bffffffffffffffffffffffff19606096871b811682526001600160e81b031960e896871b8116601484015294871b811660178301529290941b909216602b840152921b909116602e82015260420190565b6001600160a01b0391909116815260200190565b6001600160a01b03929092168252602082015260400190565b604080825283519082018190526000906020906060840190828701845b828110156115e2578151845292840192908401906001016115c6565b50505092019290925292915050565b600083151582526040602083015261160c60408301846114df565b949350505050565b602080825260149082015273494e56414c49445f4d4f4e49544f525f53495a4560601b604082015260600190565b6020808252601190820152702727aa2faa2920a222afa6a0a720a3a2a960791b604082015260600190565b6020808252600d908201526c0a692b48abe9a92a69a82a8869609b1b604082015260600190565b6020808252600c908201526b1353d3925513d497d195531360a21b604082015260600190565b602080825260129082015271494e56414c49445f42415443485f53495a4560701b604082015260600190565b600060208252825160a0602084015261170260c08401826114df565b905060018060a01b0360208501511660408401526040840151606084015260608401516080840152608084015160a08401528091505092915050565b62ffffff91909116815260200190565b90815260200190565b918252602082015260400190565b93845260208401929092526040830152606082015260800190565b600087825286602083015285604083015284606083015260a060808301528260a0830152828460c084013781830160c090810191909152601f909201601f1916010195945050505050565b9182526bffffffffffffffffffffffff16602082015260400190565b6001600160a01b0381168114610aad57600080fdfe496e697469616c697a61626c653a20636f6e747261637420697320616c726561647920696e697469616c697a6564a264697066735822122061119483e04f773a8b85588ac4b9b4b9b5253e4df113cc9abce684a86b544aac64736f6c63430007060033",
  "immutableReferences": {},
  "source": "// SPDX-License-Identifier: MIT\n\npragma solidity >=0.7.5;\npragma abicoder v2;\n\nimport \"@chainlink/contracts/src/v0.7/interfaces/KeeperRegistryInterface.sol\";\n\nimport \"@uniswap/v3-periphery/contracts/interfaces/ISwapRouter.sol\";\nimport \"@uniswap/v3-periphery/contracts/interfaces/external/IWETH9.sol\";\n\nimport \"./LimitOrderMonitor.sol\";\n\n/// @title  LimitOrderMonitorChainlink\ncontract LimitOrderMonitorChainlink is LimitOrderMonitor {\n\n    uint24 public constant POOL_FEE = 3000;\n\n    /// @dev swap router\n    ISwapRouter public swapRouter;\n\n    /// @dev wrapper ETH\n    IWETH9 public WETH;\n\n    /// @dev link token address\n    IERC20 public LINK;\n\n    /// @dev monitor keeperID\n    uint256 public keeperId;\n\n    function initialize(IOrderManager _orderManager,\n        IUniswapV3Factory _factory,\n        IERC20 _KROM,\n        address _keeper,\n        uint256 _batchSize,\n        uint256 _monitorSize,\n        uint256 _upkeepInterval,\n        ISwapRouter _swapRouter,\n        IWETH9 _WETH,\n        IERC20 _LINK) public initializer {\n\n        super.initialize(\n            _orderManager, _factory, _KROM, _keeper,\n                _batchSize, _monitorSize, _upkeepInterval\n        );\n\n        swapRouter = _swapRouter;\n        LINK = _LINK;\n        WETH = _WETH;\n    }\n\n    function setKeeperId(uint256 _keeperId) external {\n\n        isAuthorizedController();\n        keeperId = _keeperId;\n    }\n\n    function _transferFees(uint256 _amount, address _owner) internal virtual override  {\n\n        if (_amount > 0) {\n            require(keeperId > 0);\n            // swap KROM into LINKs\n            TransferHelper.safeApprove(address(KROM), address(swapRouter), _amount);\n\n            ISwapRouter.ExactInputParams memory params =\n            ISwapRouter.ExactInputParams({\n                path: abi.encodePacked(address(KROM), POOL_FEE, address(WETH), POOL_FEE, address(LINK)),\n                recipient: address(this),\n                deadline: block.timestamp,\n                amountIn: _amount,\n                amountOutMinimum: 0\n            });\n\n            // swap and send\n            _amount = swapRouter.exactInput(params);\n\n            TransferHelper.safeApprove(address(LINK), _owner, _amount);\n            KeeperRegistryInterface(_owner).addFunds(keeperId, uint96(_amount));\n        }\n    }\n}",
  "sourcePath": "/Users/aristokrates/Downloads/limit-trade-main/contracts/LimitOrderMonitorChainlink.sol",
  "compiler": {
    "name": "solc",
    "version": "0.7.6+commit.7338295f.Emscripten.clang"
  },
  "schemaVersion": "3.4.4",
  "updatedAt": "2021-12-19T21:38:43.877Z",
  "devdoc": {
    "kind": "dev",
    "methods": {
      "performUpkeep(bytes)": {
        "details": "The input to this method should not be trusted, and the caller of the method should not even be restricted to any single registry. Anyone should be able call it, and the input should be validated, there is no guarantee that the data passed in is the performData returned from checkUpkeep. This could happen due to malicious keepers, racing keepers, or simply a state change while the performUpkeep transaction is waiting for confirmation. Always validate the data passed in.",
        "params": {
          "performData": "is the data which was passed back from the checkData simulation. If it is encoded, it can easily be decoded into other types by calling `abi.decode`. This data should not be trusted, and should be validated against the contract's current state."
        }
      }
    },
    "stateVariables": {
      "LINK": {
        "details": "link token address"
      },
      "WETH": {
        "details": "wrapper ETH"
      },
      "keeperId": {
        "details": "monitor keeperID"
      },
      "swapRouter": {
        "details": "swap router"
      }
    },
    "title": "LimitOrderMonitorChainlink",
    "version": 1
  },
  "userdoc": {
    "kind": "user",
    "methods": {
      "performUpkeep(bytes)": {
        "notice": "method that is actually executed by the keepers, via the registry. The data returned by the checkUpkeep simulation will be passed into this method to actually be executed."
      }
    },
    "version": 1
  }
}