{
  "contractName": "LimitOrderMonitor",
  "abi": [
    {
      "anonymous": false,
      "inputs": [
        {
          "indexed": false,
          "internalType": "uint256",
          "name": "batchId",
          "type": "uint256"
        },
        {
          "indexed": false,
          "internalType": "uint256",
          "name": "batchSize",
          "type": "uint256"
        },
        {
          "indexed": false,
          "internalType": "uint256",
          "name": "gasUsed",
          "type": "uint256"
        },
        {
          "indexed": false,
          "internalType": "uint256",
          "name": "paymentPaid",
          "type": "uint256"
        },
        {
          "indexed": false,
          "internalType": "bytes",
          "name": "data",
          "type": "bytes"
        }
      ],
      "name": "BatchProcessed",
      "type": "event"
    },
    {
      "inputs": [],
      "name": "KROM",
      "outputs": [
        {
          "internalType": "contract IERC20",
          "name": "",
          "type": "address"
        }
      ],
      "stateMutability": "view",
      "type": "function"
    },
    {
      "inputs": [],
      "name": "batchCount",
      "outputs": [
        {
          "internalType": "uint256",
          "name": "",
          "type": "uint256"
        }
      ],
      "stateMutability": "view",
      "type": "function"
    },
    {
      "inputs": [],
      "name": "batchSize",
      "outputs": [
        {
          "internalType": "uint256",
          "name": "",
          "type": "uint256"
        }
      ],
      "stateMutability": "view",
      "type": "function"
    },
    {
      "inputs": [],
      "name": "controller",
      "outputs": [
        {
          "internalType": "address",
          "name": "",
          "type": "address"
        }
      ],
      "stateMutability": "view",
      "type": "function"
    },
    {
      "inputs": [],
      "name": "factory",
      "outputs": [
        {
          "internalType": "contract IUniswapV3Factory",
          "name": "",
          "type": "address"
        }
      ],
      "stateMutability": "view",
      "type": "function"
    },
    {
      "inputs": [],
      "name": "keeper",
      "outputs": [
        {
          "internalType": "address",
          "name": "",
          "type": "address"
        }
      ],
      "stateMutability": "view",
      "type": "function"
    },
    {
      "inputs": [],
      "name": "lastUpkeep",
      "outputs": [
        {
          "internalType": "uint256",
          "name": "",
          "type": "uint256"
        }
      ],
      "stateMutability": "view",
      "type": "function"
    },
    {
      "inputs": [],
      "name": "monitorSize",
      "outputs": [
        {
          "internalType": "uint256",
          "name": "",
          "type": "uint256"
        }
      ],
      "stateMutability": "view",
      "type": "function"
    },
    {
      "inputs": [],
      "name": "orderManager",
      "outputs": [
        {
          "internalType": "contract IOrderManager",
          "name": "",
          "type": "address"
        }
      ],
      "stateMutability": "view",
      "type": "function"
    },
    {
      "inputs": [
        {
          "internalType": "uint256",
          "name": "",
          "type": "uint256"
        }
      ],
      "name": "tokenIds",
      "outputs": [
        {
          "internalType": "uint256",
          "name": "",
          "type": "uint256"
        }
      ],
      "stateMutability": "view",
      "type": "function"
    },
    {
      "inputs": [
        {
          "internalType": "uint256",
          "name": "",
          "type": "uint256"
        }
      ],
      "name": "tokenIndexPerTokenId",
      "outputs": [
        {
          "internalType": "uint256",
          "name": "",
          "type": "uint256"
        }
      ],
      "stateMutability": "view",
      "type": "function"
    },
    {
      "inputs": [],
      "name": "upkeepInterval",
      "outputs": [
        {
          "internalType": "uint256",
          "name": "",
          "type": "uint256"
        }
      ],
      "stateMutability": "view",
      "type": "function"
    },
    {
      "inputs": [
        {
          "internalType": "contract IOrderManager",
          "name": "_orderManager",
          "type": "address"
        },
        {
          "internalType": "contract IUniswapV3Factory",
          "name": "_factory",
          "type": "address"
        },
        {
          "internalType": "contract IERC20",
          "name": "_KROM",
          "type": "address"
        },
        {
          "internalType": "address",
          "name": "_keeper",
          "type": "address"
        },
        {
          "internalType": "uint256",
          "name": "_batchSize",
          "type": "uint256"
        },
        {
          "internalType": "uint256",
          "name": "_monitorSize",
          "type": "uint256"
        },
        {
          "internalType": "uint256",
          "name": "_upkeepInterval",
          "type": "uint256"
        }
      ],
      "name": "initialize",
      "outputs": [],
      "stateMutability": "nonpayable",
      "type": "function"
    },
    {
      "inputs": [
        {
          "internalType": "uint256",
          "name": "_tokenId",
          "type": "uint256"
        }
      ],
      "name": "startMonitor",
      "outputs": [],
      "stateMutability": "nonpayable",
      "type": "function"
    },
    {
      "inputs": [
        {
          "internalType": "uint256",
          "name": "_tokenId",
          "type": "uint256"
        }
      ],
      "name": "stopMonitor",
      "outputs": [],
      "stateMutability": "nonpayable",
      "type": "function"
    },
    {
      "inputs": [
        {
          "internalType": "bytes",
          "name": "",
          "type": "bytes"
        }
      ],
      "name": "checkUpkeep",
      "outputs": [
        {
          "internalType": "bool",
          "name": "upkeepNeeded",
          "type": "bool"
        },
        {
          "internalType": "bytes",
          "name": "performData",
          "type": "bytes"
        }
      ],
      "stateMutability": "nonpayable",
      "type": "function"
    },
    {
      "inputs": [
        {
          "internalType": "bytes",
          "name": "performData",
          "type": "bytes"
        }
      ],
      "name": "performUpkeep",
      "outputs": [],
      "stateMutability": "nonpayable",
      "type": "function"
    },
    {
      "inputs": [
        {
          "internalType": "uint256",
          "name": "_batchSize",
          "type": "uint256"
        }
      ],
      "name": "setBatchSize",
      "outputs": [],
      "stateMutability": "nonpayable",
      "type": "function"
    },
    {
      "inputs": [
        {
          "internalType": "uint256",
          "name": "_monitorSize",
          "type": "uint256"
        }
      ],
      "name": "setMonitorSize",
      "outputs": [],
      "stateMutability": "nonpayable",
      "type": "function"
    },
    {
      "inputs": [
        {
          "internalType": "uint256",
          "name": "_upkeepInterval",
          "type": "uint256"
        }
      ],
      "name": "setUpkeepInterval",
      "outputs": [],
      "stateMutability": "nonpayable",
      "type": "function"
    },
    {
      "inputs": [
        {
          "internalType": "address",
          "name": "_controller",
          "type": "address"
        }
      ],
      "name": "changeController",
      "outputs": [],
      "stateMutability": "nonpayable",
      "type": "function"
    },
    {
      "inputs": [
        {
          "internalType": "address",
          "name": "_keeper",
          "type": "address"
        }
      ],
      "name": "changeKeeper",
      "outputs": [],
      "stateMutability": "nonpayable",
      "type": "function"
    }
  ],
  "bytecode": "0x608060405234801561001057600080fd5b50611305806100206000396000f3fe608060405234801561001057600080fd5b50600436106101425760003560e01c80639bb0dafa116100b8578063d58778d61161007c578063d58778d61461025d578063d859557214610270578063e77fc7a414610283578063f4daaba114610296578063f77c47911461029e578063f9b6117f146102a657610142565b80639bb0dafa14610212578063aced166114610225578063b53e76601461023a578063c45a01551461024d578063c803206f1461025557610142565b80634585e33b1161010a5780634585e33b146101a8578063576f35e3146101bb5780635a74373c146101ce5780636e04ff0d146101d657806372e4c9f6146101f7578063860965c61461020a57610142565b806306f130561461014757806309779838146101655780632bc723fc1461017a5780633cebb8231461018d5780633d7c5d3e146101a0575b600080fd5b61014f6102ae565b60405161015c919061120f565b60405180910390f35b610178610173366004610e20565b6102b4565b005b61014f610188366004611053565b6102de565b61017861019b366004610e20565b6102f0565b61014f61031a565b6101786101b6366004610f3e565b610320565b6101786101c9366004611053565b610527565b61014f610580565b6101e96101e4366004610f3e565b610586565b60405161015c9291906110e0565b610178610205366004611053565b61071a565b61014f610727565b610178610220366004611053565b61072d565b61022d61077e565b60405161015c919061106b565b610178610248366004611053565b61078d565b61022d610821565b61022d610830565b61014f61026b366004611053565b61083f565b61017861027e366004611053565b610860565b610178610291366004610fab565b610896565b61014f610a83565b61022d610a89565b61022d610a98565b600c5481565b6102bc610aa7565b600480546001600160a01b0319166001600160a01b0392909216919091179055565b60016020526000908152604090205481565b6102f8610aa7565b600380546001600160a01b0319166001600160a01b0392909216919091179055565b60085481565b610328610ac0565b60005a600c80546001019055905060008061034584860186610e3c565b9150915060008060008060008060005b878110156104b65788818151811061036957fe5b6020908102919091010151600554604051633b0c25ad60e01b81529193506001600160a01b031690633b0c25ad906103a79085903a90600401611218565b606060405180830381600087803b1580156103c157600080fd5b505af11580156103d5573d6000803e3d6000fd5b505050506040513d601f19601f820116820180604052508101906103f99190610f0a565b9196509450925084156104ae5760019095019461041582610ad7565b600554600c5460405163ceeb857b60e01b81526001600160a01b039092169163ceeb857b9161044d9186919089908990600401611226565b6040805180830381600087803b15801561046657600080fd5b505af115801561047a573d6000803e3d6000fd5b505050506040513d601f19601f8201168201806040525081019061049e9190611021565b506104ab90508784610b5c565b96505b600101610355565b5050505050600081116104c857600080fd5b5a43600855909403936104db8233610bbd565b7f6f25cb256dfaa102b8807fbe67685c9b46d73f2f68dbe8c2fcfc12c7d75a1839600c548287858b8b60405161051696959493929190611241565b60405180910390a150505050505050565b61052f610aa7565b60648111156105595760405162461bcd60e51b8152600401610550906111e3565b60405180910390fd5b600a5481111561057b5760405162461bcd60e51b815260040161055090611196565b600955565b600b5481565b60006060600b54600854610598610bde565b0311915081156107135760008060095467ffffffffffffffff811180156105be57600080fd5b506040519080825280602002602001820160405280156105e8578160200160208202803683370190505b5090506000805b6002548110156106df576002818154811061060657fe5b6000918252602090912001546005549094506001600160a01b0316633b0c25ad856106303a610be2565b6040518363ffffffff1660e01b815260040161064d929190611218565b606060405180830381600087803b15801561066757600080fd5b505af115801561067b573d6000803e3d6000fd5b505050506040513d601f19601f8201168201806040525081019061069f9190610f0a565b509096505085156106c957838383815181106106b757fe5b60209081029190910101526001909101905b60095482106106d7576106df565b6001016105ef565b5080158015955061070f5781816040516020016106fd929190611098565b60405160208183030381529060405293505b5050505b9250929050565b610722610aa7565b600b55565b600a5481565b610735610aa7565b6127108111156107575760405162461bcd60e51b81526004016105509061113d565b6009548110156107795760405162461bcd60e51b815260040161055090611196565b600a55565b6004546001600160a01b031681565b6005546001600160a01b031633146107b75760405162461bcd60e51b81526004016105509061116b565b600a54600254106107da5760405162461bcd60e51b8152600401610550906111bd565b60028054600181810183557f405787fa12a823e0f2b7631cc41b3ba8828b3321ca811111fa75cd3aa3bb5ace90910183905590546000928352602091909152604090912055565b6006546001600160a01b031681565b6007546001600160a01b031681565b6002818154811061084f57600080fd5b600091825260209091200154905081565b6005546001600160a01b0316331461088a5760405162461bcd60e51b81526004016105509061116b565b61089381610ad7565b50565b600054610100900460ff16806108af57506108af610bfa565b806108bd575060005460ff16155b6108f85760405162461bcd60e51b815260040180806020018281038252602e8152602001806112a2602e913960400191505060405180910390fd5b600054610100900460ff16158015610923576000805460ff1961ff0019909116610100171660011790555b60648411156109445760405162461bcd60e51b8152600401610550906111e3565b6127108311156109665760405162461bcd60e51b81526004016105509061113d565b828411156109865760405162461bcd60e51b815260040161055090611196565b600580546001600160a01b03808b166001600160a01b03199283161792839055600680548b8316908416179055600780548a831690841617908190556009889055600a879055600b86905560038054841633179055600480548a8416941693909317835560405163095ea7b360e01b81529082169363095ea7b393610a14939190911691600019910161107f565b602060405180830381600087803b158015610a2e57600080fd5b505af1158015610a42573d6000803e3d6000fd5b505050506040513d601f19601f82011682018060405250810190610a669190610ef0565b508015610a79576000805461ff00191690555b5050505050505050565b60095481565b6003546001600160a01b031681565b6005546001600160a01b031681565b6003546001600160a01b03163314610abe57600080fd5b565b6004546001600160a01b03163314610abe57600080fd5b6000818152600160205260408120546002805460001992830193928101908110610afd57fe5b90600052602060002001549050610b15826002610c0b565b600254610b3057600081815260016020526040812055610b57565b6002548214610b575760008181526001602081905260408083209185019091558482528120555b505050565b600082820183811015610bb6576040805162461bcd60e51b815260206004820152601b60248201527f536166654d6174683a206164646974696f6e206f766572666c6f770000000000604482015290519081900360640190fd5b9392505050565b8115610bda57600754610bda906001600160a01b03168284610c98565b5050565b4390565b6000808211610bf2576000610bf4565b815b92915050565b6000610c0530610de6565b15905090565b805460001901821415610c3d5780805480610c2257fe5b60019003818190600052602060002001600090559055610bda565b805481906000198101908110610c4f57fe5b9060005260206000200154818381548110610c6657fe5b906000526020600020018190555080805480610c7e57fe5b600190038181906000526020600020016000905590555050565b604080516001600160a01b038481166024830152604480830185905283518084039091018152606490920183526020820180516001600160e01b031663a9059cbb60e01b1781529251825160009485949389169392918291908083835b60208310610d145780518252601f199092019160209182019101610cf5565b6001836020036101000a0380198251168184511680821785525050505050509050019150506000604051808303816000865af19150503d8060008114610d76576040519150601f19603f3d011682016040523d82523d6000602084013e610d7b565b606091505b5091509150818015610da9575080511580610da95750808060200190516020811015610da657600080fd5b50515b610ddf576040805162461bcd60e51b815260206004820152600260248201526114d560f21b604482015290519081900360640190fd5b5050505050565b803b15155b919050565b80518015158114610deb57600080fd5b80516fffffffffffffffffffffffffffffffff81168114610deb57600080fd5b600060208284031215610e31578081fd5b8135610bb68161128c565b60008060408385031215610e4e578081fd5b823567ffffffffffffffff80821115610e65578283fd5b818501915085601f830112610e78578283fd5b8135602082821115610e8657fe5b80820260405182828201018181108682111715610e9f57fe5b604052838152828101945085830182870184018b1015610ebd578788fd5b8796505b84871015610edf578035865260019690960195948301948301610ec1565b509997909101359750505050505050565b600060208284031215610f01578081fd5b610bb682610df0565b600080600060608486031215610f1e578081fd5b610f2784610df0565b925060208401519150604084015190509250925092565b60008060208385031215610f50578182fd5b823567ffffffffffffffff80821115610f67578384fd5b818501915085601f830112610f7a578384fd5b813581811115610f88578485fd5b866020828501011115610f99578485fd5b60209290920196919550909350505050565b600080600080600080600060e0888a031215610fc5578283fd5b8735610fd08161128c565b96506020880135610fe08161128c565b95506040880135610ff08161128c565b945060608801356110008161128c565b9699959850939660808101359560a0820135955060c0909101359350915050565b60008060408385031215611033578182fd5b61103c83610e00565b915061104a60208401610e00565b90509250929050565b600060208284031215611064578081fd5b5035919050565b6001600160a01b0391909116815260200190565b6001600160a01b03929092168252602082015260400190565b604080825283519082018190526000906020906060840190828701845b828110156110d1578151845292840192908401906001016110b5565b50505092019290925292915050565b6000831515825260206040818401528351806040850152825b81811015611115578581018301518582016060015282016110f9565b818111156111265783606083870101525b50601f01601f191692909201606001949350505050565b602080825260149082015273494e56414c49445f4d4f4e49544f525f53495a4560601b604082015260600190565b6020808252601190820152702727aa2faa2920a222afa6a0a720a3a2a960791b604082015260600190565b6020808252600d908201526c0a692b48abe9a92a69a82a8869609b1b604082015260600190565b6020808252600c908201526b1353d3925513d497d195531360a21b604082015260600190565b602080825260129082015271494e56414c49445f42415443485f53495a4560701b604082015260600190565b90815260200190565b918252602082015260400190565b93845260208401929092526040830152606082015260800190565b600087825286602083015285604083015284606083015260a060808301528260a0830152828460c084013781830160c090810191909152601f909201601f1916010195945050505050565b6001600160a01b038116811461089357600080fdfe496e697469616c697a61626c653a20636f6e747261637420697320616c726561647920696e697469616c697a6564a26469706673582212207913ad7bf463b1da3c0eca54d42e64821a4678f5ba827d34d2f274998555790464736f6c63430007060033",
  "immutableReferences": {},
  "source": "// SPDX-License-Identifier: MIT\n\npragma solidity >=0.7.5;\npragma abicoder v2;\n\nimport \"@openzeppelin/contracts/math/SafeMath.sol\";\nimport \"@openzeppelin/contracts-upgradeable/proxy/Initializable.sol\";\n\nimport \"@chainlink/contracts/src/v0.7/interfaces/KeeperCompatibleInterface.sol\";\nimport \"@chainlink/contracts/src/v0.7/interfaces/AggregatorV3Interface.sol\";\n\nimport \"@uniswap/v3-periphery/contracts/libraries/TransferHelper.sol\";\nimport \"@uniswap/v3-core/contracts/interfaces/IUniswapV3Factory.sol\";\n\nimport \"./interfaces/IOrderMonitor.sol\";\nimport \"./interfaces/IOrderManager.sol\";\n\n/// @title  LimitOrderMonitor\ncontract LimitOrderMonitor is\n    Initializable,\n    IOrderMonitor,\n    KeeperCompatibleInterface {\n\n    using SafeMath for uint256;\n\n    uint256 private constant MAX_INT = 2**256 - 1;\n    uint256 private constant MAX_BATCH_SIZE = 100;\n    uint256 private constant MAX_MONITOR_SIZE = 10000;\n\n    event BatchProcessed(uint256 batchId, uint256 batchSize, uint256 gasUsed,\n        uint256 paymentPaid, bytes data);\n\n    /// @dev tokenIds index per token id\n    mapping (uint256 => uint256) public tokenIndexPerTokenId;\n\n    /// @dev tokens to monitor\n    uint256[] public tokenIds;\n\n    /// @dev controller address; could be DAO\n    address public controller;\n\n    /// @dev keeper address; can do upkeep\n    address public keeper;\n\n    /// @dev order manager\n    IOrderManager public orderManager;\n\n    /// @dev univ3 factory\n    IUniswapV3Factory public factory;\n\n    /// @dev krom token\n    IERC20 public KROM;\n\n    /// @dev last upkeep block\n    uint256 public lastUpkeep;\n\n    /// @dev max batch size\n    uint256 public batchSize;\n\n    /// @dev max monitor size\n    uint256 public monitorSize;\n\n    /// @dev interval between 2 upkeeps, in blocks\n    uint256 public upkeepInterval;\n\n    /// @dev batch count\n    uint256 public batchCount;\n\n    /// @dev only trade manager\n    modifier onlyTradeManager() {\n        require(msg.sender == address(orderManager), \"NOT_TRADE_MANAGER\");\n        _;\n    }\n\n    function initialize (IOrderManager _orderManager,\n        IUniswapV3Factory _factory,\n        IERC20 _KROM,\n        address _keeper,\n        uint256 _batchSize,\n        uint256 _monitorSize,\n        uint256 _upkeepInterval) public initializer {\n\n        require(_batchSize <= MAX_BATCH_SIZE, \"INVALID_BATCH_SIZE\");\n        require(_monitorSize <= MAX_MONITOR_SIZE, \"INVALID_MONITOR_SIZE\");\n        require(_batchSize <= _monitorSize, \"SIZE_MISMATCH\");\n\n        orderManager = _orderManager;\n        factory = _factory;\n        KROM = _KROM;\n\n        batchSize = _batchSize;\n        monitorSize = _monitorSize;\n        upkeepInterval = _upkeepInterval;\n\n        controller = msg.sender;\n        keeper = _keeper;\n\n        KROM.approve(address(orderManager), MAX_INT);\n    }\n    \n    function startMonitor(uint256 _tokenId) external override onlyTradeManager {\n\n        require(tokenIds.length < monitorSize, \"MONITOR_FULL\");\n        tokenIds.push(_tokenId);\n        tokenIndexPerTokenId[_tokenId] = tokenIds.length;\n    }\n\n    function stopMonitor(uint256 _tokenId) external override onlyTradeManager {\n        _stopMonitor(_tokenId);\n    }\n\n    function checkUpkeep(\n        bytes calldata\n    )\n    external override\n    returns (\n        bool upkeepNeeded,\n        bytes memory performData\n    ) {\n\n        if (upkeepNeeded = (_getBlockNumber() - lastUpkeep) > upkeepInterval) {\n            uint256 _tokenId;\n            uint256[] memory batchTokenIds = new uint256[](batchSize);\n            uint256 count;\n\n            // iterate through all active tokens;\n            for (uint256 i = 0; i < tokenIds.length; i++) {\n                _tokenId = tokenIds[i];\n                (upkeepNeeded,,) = orderManager.canProcess(\n                    _tokenId,\n                    _getGasPrice(tx.gasprice)\n                );\n                if (upkeepNeeded) {\n                    batchTokenIds[count] = _tokenId;\n                    count++;\n                }\n                if (count >= batchSize) {\n                    break;\n                }\n            }\n\n            upkeepNeeded = count > 0;\n            if (upkeepNeeded) {\n                performData = abi.encode(batchTokenIds, count);\n            }\n        }\n    }\n\n    function performUpkeep(\n        bytes calldata performData\n    ) external override {\n\n        isAuthorizedKeeper();\n        uint256 _gasUsed = gasleft();\n\n        batchCount++;\n\n        (uint256[] memory _tokenIds, uint256 _count) = abi.decode(\n            performData, (uint256[], uint256)\n        );\n\n        uint256 paymentPaid;\n        uint256 validCount;\n\n        {\n            bool validTrade;\n            uint256 _serviceFee;\n            uint256 _monitorFee;\n            uint256 _tokenId;\n            for (uint256 i = 0; i < _count; i++) {\n                _tokenId = _tokenIds[i];\n                (validTrade, _serviceFee, _monitorFee) = orderManager.canProcess(_tokenId, tx.gasprice);\n                if (validTrade) {\n                    validCount++;\n                    _stopMonitor(_tokenId);\n                    orderManager.processLimitOrder(\n                        _tokenId, batchCount, _serviceFee, _monitorFee\n                    );\n                    paymentPaid = paymentPaid.add(_monitorFee);\n                }\n            }\n        }\n\n        require(validCount > 0);\n\n        _gasUsed = _gasUsed - gasleft();\n        lastUpkeep = block.number;\n\n        // send the paymentPaid to the sender\n        _transferFees(paymentPaid, msg.sender);\n\n        emit BatchProcessed(\n            batchCount,\n            validCount,\n            _gasUsed,\n            paymentPaid,\n            performData\n        );\n    }\n\n    function setBatchSize(uint256 _batchSize) external {\n\n        isAuthorizedController();\n        require(_batchSize <= MAX_BATCH_SIZE, \"INVALID_BATCH_SIZE\");\n        require(_batchSize <= monitorSize, \"SIZE_MISMATCH\");\n\n        batchSize = _batchSize;\n    }\n\n    function setMonitorSize(uint256 _monitorSize) external {\n\n        isAuthorizedController();\n        require(_monitorSize <= MAX_MONITOR_SIZE, \"INVALID_MONITOR_SIZE\");\n        require(_monitorSize >= batchSize, \"SIZE_MISMATCH\");\n\n        monitorSize = _monitorSize;\n    }\n\n    function setUpkeepInterval(uint256 _upkeepInterval) external  {\n\n        isAuthorizedController();\n        upkeepInterval = _upkeepInterval;\n    }\n\n    function changeController(address _controller) external {\n        isAuthorizedController();\n        controller = _controller;\n    }\n\n    function changeKeeper(address _keeper) external {\n        isAuthorizedController();\n        keeper = _keeper;\n    }\n\n    function _stopMonitor(uint256 _tokenId) internal {\n\n        uint256 tokenIndexToRemove = tokenIndexPerTokenId[_tokenId] - 1;\n        uint256 lastTokenId = tokenIds[tokenIds.length - 1];\n\n        removeElementFromArray(tokenIndexToRemove, tokenIds);\n\n        if (tokenIds.length == 0) {\n            delete tokenIndexPerTokenId[lastTokenId];\n        } else if (tokenIndexToRemove != tokenIds.length) {\n            tokenIndexPerTokenId[lastTokenId] = tokenIndexToRemove + 1;\n            delete tokenIndexPerTokenId[_tokenId];\n        }\n    }\n\n    // TODO override for chainlink (use fast gas)\n    function _getGasPrice(uint256 _txnGasPrice) internal virtual view\n    returns (uint256 gasPrice) {\n        gasPrice = _txnGasPrice > 0 ? _txnGasPrice : 0;\n    }\n\n    // TODO (override block numbers for L2)\n    function _getBlockNumber() internal virtual view\n    returns (uint256 blockNumber) {\n        blockNumber = block.number;\n    }\n\n    function _transferFees(uint256 _amount, address _owner) internal virtual {\n        if (_amount > 0) {\n            TransferHelper.safeTransfer(address(KROM), _owner, _amount);\n        }\n    }\n\n    function isAuthorizedController() internal view {\n        require(msg.sender == controller);\n    }\n\n    function isAuthorizedKeeper() internal view {\n        require(msg.sender == keeper);\n    }\n\n    /// @notice Removes index element from the given array.\n    /// @param  index index to remove from the array\n    /// @param  array the array itself\n    function removeElementFromArray(uint256 index, uint256[] storage array) private {\n        if (index == array.length - 1) {\n            array.pop();\n        } else {\n            array[index] = array[array.length - 1];\n            array.pop();\n        }\n    }\n}",
  "sourcePath": "/Users/aristokrates/Downloads/limit-trade-main/contracts/LimitOrderMonitor.sol",
  "compiler": {
    "name": "solc",
    "version": "0.7.6+commit.7338295f.Emscripten.clang"
  },
  "schemaVersion": "3.4.4",
  "updatedAt": "2021-12-19T21:38:43.867Z",
  "devdoc": {
    "kind": "dev",
    "methods": {
      "performUpkeep(bytes)": {
        "details": "The input to this method should not be trusted, and the caller of the method should not even be restricted to any single registry. Anyone should be able call it, and the input should be validated, there is no guarantee that the data passed in is the performData returned from checkUpkeep. This could happen due to malicious keepers, racing keepers, or simply a state change while the performUpkeep transaction is waiting for confirmation. Always validate the data passed in.",
        "params": {
          "performData": "is the data which was passed back from the checkData simulation. If it is encoded, it can easily be decoded into other types by calling `abi.decode`. This data should not be trusted, and should be validated against the contract's current state."
        }
      }
    },
    "stateVariables": {
      "KROM": {
        "details": "krom token"
      },
      "batchCount": {
        "details": "batch count"
      },
      "batchSize": {
        "details": "max batch size"
      },
      "controller": {
        "details": "controller address; could be DAO"
      },
      "factory": {
        "details": "univ3 factory"
      },
      "keeper": {
        "details": "keeper address; can do upkeep"
      },
      "lastUpkeep": {
        "details": "last upkeep block"
      },
      "monitorSize": {
        "details": "max monitor size"
      },
      "orderManager": {
        "details": "order manager"
      },
      "tokenIds": {
        "details": "tokens to monitor"
      },
      "tokenIndexPerTokenId": {
        "details": "tokenIds index per token id"
      },
      "upkeepInterval": {
        "details": "interval between 2 upkeeps, in blocks"
      }
    },
    "title": "LimitOrderMonitor",
    "version": 1
  },
  "userdoc": {
    "kind": "user",
    "methods": {
      "performUpkeep(bytes)": {
        "notice": "method that is actually executed by the keepers, via the registry. The data returned by the checkUpkeep simulation will be passed into this method to actually be executed."
      }
    },
    "version": 1
  }
}