{
  "contractName": "ManagerUtils",
  "abi": [
    {
      "inputs": [],
      "name": "POOL_FEE",
      "outputs": [
        {
          "internalType": "uint24",
          "name": "",
          "type": "uint24"
        }
      ],
      "stateMutability": "view",
      "type": "function"
    },
    {
      "stateMutability": "payable",
      "type": "receive"
    },
    {
      "inputs": [
        {
          "internalType": "contract IUniswapV3Pool",
          "name": "_pool",
          "type": "address"
        },
        {
          "internalType": "uint160",
          "name": "_sqrtPriceX96",
          "type": "uint160"
        },
        {
          "internalType": "uint256",
          "name": "_amount0",
          "type": "uint256"
        },
        {
          "internalType": "uint256",
          "name": "_amount1",
          "type": "uint256"
        }
      ],
      "name": "calculateLimitTicks",
      "outputs": [
        {
          "internalType": "int24",
          "name": "_lowerTick",
          "type": "int24"
        },
        {
          "internalType": "int24",
          "name": "_upperTick",
          "type": "int24"
        },
        {
          "internalType": "uint128",
          "name": "_liquidity",
          "type": "uint128"
        },
        {
          "internalType": "uint128",
          "name": "_orderType",
          "type": "uint128"
        }
      ],
      "stateMutability": "view",
      "type": "function"
    },
    {
      "inputs": [
        {
          "internalType": "contract IUniswapV3Factory",
          "name": "factory",
          "type": "address"
        },
        {
          "internalType": "contract IQuoter",
          "name": "quoter",
          "type": "address"
        },
        {
          "internalType": "address",
          "name": "WETH",
          "type": "address"
        },
        {
          "internalType": "address",
          "name": "KROM",
          "type": "address"
        },
        {
          "internalType": "uint256",
          "name": "_weiAmount",
          "type": "uint256"
        }
      ],
      "name": "quoteKROM",
      "outputs": [
        {
          "internalType": "uint256",
          "name": "quote",
          "type": "uint256"
        }
      ],
      "stateMutability": "nonpayable",
      "type": "function"
    },
    {
      "inputs": [
        {
          "internalType": "contract IUniswapV3Pool",
          "name": "pool",
          "type": "address"
        },
        {
          "internalType": "int24",
          "name": "tickLower",
          "type": "int24"
        },
        {
          "internalType": "int24",
          "name": "tickUpper",
          "type": "int24"
        },
        {
          "internalType": "uint128",
          "name": "liquidity",
          "type": "uint128"
        }
      ],
      "name": "_amountsForLiquidity",
      "outputs": [
        {
          "internalType": "uint256",
          "name": "",
          "type": "uint256"
        },
        {
          "internalType": "uint256",
          "name": "",
          "type": "uint256"
        }
      ],
      "stateMutability": "view",
      "type": "function"
    }
  ],
  "bytecode": "0x608060405234801561001057600080fd5b5061107d806100206000396000f3fe6080604052600436106100435760003560e01c80635d5851891461004f5780639a85fa7a146100cd5780639bcb0d8a1461013c578063dd1b9c4a146101a15761004a565b3661004a57005b600080fd5b34801561005b57600080fd5b506100986004803603608081101561007257600080fd5b506001600160a01b038135811691602081013590911690604081013590606001356101ce565b60408051600295860b81529390940b60208401526001600160801b039182168385015216606082015290519081900360800190f35b3480156100d957600080fd5b50610123600480360360808110156100f057600080fd5b5080356001600160a01b0316906020810135600290810b91604081013590910b90606001356001600160801b03166102f4565b6040805192835260208301919091528051918290030190f35b34801561014857600080fd5b5061018f600480360360a081101561015f57600080fd5b506001600160a01b038135811691602081013582169160408201358116916060810135909116906080013561038b565b60408051918252519081900360200190f35b3480156101ad57600080fd5b506101b66104d7565b6040805162ffffff9092168252519081900360200190f35b6000806000806000886001600160a01b031663d0c93a7c6040518163ffffffff1660e01b815260040160206040518083038186803b15801561020f57600080fd5b505afa158015610223573d6000803e3d6000fd5b505050506040513d602081101561023957600080fd5b505160408051633850c7bd60e01b815290519192506000916001600160a01b038c1691633850c7bd9160048083019260e0929190829003018186803b15801561028157600080fd5b505afa158015610295573d6000803e3d6000fd5b505050506040513d60e08110156102ab57600080fd5b5051905060006102ba8a6104dd565b905060006102c882856107fc565b90506102de84820382838785018e8e898b610848565b929f919e509c50909a5098505050505050505050565b6000806000866001600160a01b0316633850c7bd6040518163ffffffff1660e01b815260040160e06040518083038186803b15801561033257600080fd5b505afa158015610346573d6000803e3d6000fd5b505050506040513d60e081101561035c57600080fd5b5051905061037c8161036d886108fd565b610376886108fd565b87610c2f565b92509250505b94509492505050565b60408051630b4c774160e11b81526001600160a01b0385811660048301528481166024830152610bb860448301529151600092839290891691631698ee8291606480820192602092909190829003018186803b1580156103ea57600080fd5b505afa1580156103fe573d6000803e3d6000fd5b505050506040513d602081101561041457600080fd5b505190506001600160a01b03811661042b57600080fd5b82156104cd576040805163f7729d4360e01b81526001600160a01b0387811660048301528681166024830152610bb860448301526064820186905260006084830181905292519089169263f7729d439260a480820193602093909283900390910190829087803b15801561049e57600080fd5b505af11580156104b2573d6000803e3d6000fd5b505050506040513d60208110156104c857600080fd5b505191505b5095945050505050565b610bb881565b60006401000276a36001600160a01b03831610801590610519575073fffd8963efd1fc6a506488495d951d5263988d266001600160a01b038316105b61054e576040805162461bcd60e51b81526020600482015260016024820152602960f91b604482015290519081900360640190fd5b640100000000600160c01b03602083901b166001600160801b03811160071b81811c67ffffffffffffffff811160061b90811c63ffffffff811160051b90811c61ffff811160041b90811c60ff8111600390811b91821c600f811160021b90811c918211600190811b92831c979088119617909417909217179091171717608081106105e257607f810383901c91506105ec565b80607f0383901b91505b908002607f81811c60ff83811c9190911c800280831c81831c1c800280841c81841c1c800280851c81851c1c800280861c81861c1c800280871c81871c1c800280881c81881c1c800280891c81891c1c8002808a1c818a1c1c8002808b1c818b1c1c8002808c1c818c1c1c8002808d1c818d1c1c8002808e1c9c81901c9c909c1c80029c8d901c9e9d607f198f0160401b60c09190911c678000000000000000161760c19b909b1c674000000000000000169a909a1760c29990991c672000000000000000169890981760c39790971c671000000000000000169690961760c49590951c670800000000000000169490941760c59390931c670400000000000000169290921760c69190911c670200000000000000161760c79190911c670100000000000000161760c89190911c6680000000000000161760c99190911c6640000000000000161760ca9190911c6620000000000000161760cb9190911c6610000000000000161760cc9190911c6608000000000000161760cd9190911c66040000000000001617693627a301d71055774c8581026f028f6481ab7f045a5af012a19d003aa9198101608090811d906fdb2df09e81959a81455e260799a0632f8301901d600281810b9083900b146107ed57886001600160a01b03166107d1826108fd565b6001600160a01b031611156107e657816107e8565b805b6107ef565b815b9998505050505050505050565b6000808260020b8460020b8161080e57fe5b05905060008460020b12801561083557508260020b8460020b8161082e57fe5b0760020b15155b1561083f57600019015b90910292915050565b6000806000806108598c8c87610cca565b6108648a8a87610cca565b6000610873878e8e8c8c610d44565b90506000610884888d8d8d8d610d44565b90506000826001600160801b031611806108a757506000816001600160801b0316115b6108b057600080fd5b806001600160801b0316826001600160801b031611156108de578d95508c94509092506001915082906108ec565b8b95508a9450925060029150825b505098509850985098945050505050565b60008060008360020b12610914578260020b61091c565b8260020b6000035b9050620d89e881111561095a576040805162461bcd60e51b81526020600482015260016024820152601560fa1b604482015290519081900360640190fd5b60006001821661096e57600160801b610980565b6ffffcb933bd6fad37aa2d162d1a5940015b70ffffffffffffffffffffffffffffffffff16905060028216156109b4576ffff97272373d413259a46990580e213a0260801c5b60048216156109d3576ffff2e50f5f656932ef12357cf3c7fdcc0260801c5b60088216156109f2576fffe5caca7e10e4e61c3624eaa0941cd00260801c5b6010821615610a11576fffcb9843d60f6159c9db58835c9266440260801c5b6020821615610a30576fff973b41fa98c081472e6896dfb254c00260801c5b6040821615610a4f576fff2ea16466c96a3843ec78b326b528610260801c5b6080821615610a6e576ffe5dee046a99a2a811c461f1969c30530260801c5b610100821615610a8e576ffcbe86c7900a88aedcffc83b479aa3a40260801c5b610200821615610aae576ff987a7253ac413176f2b074cf7815e540260801c5b610400821615610ace576ff3392b0822b70005940c7a398e4b70f30260801c5b610800821615610aee576fe7159475a2c29b7443b29c7fa6e889d90260801c5b611000821615610b0e576fd097f3bdfd2022b8845ad8f792aa58250260801c5b612000821615610b2e576fa9f746462d870fdf8a65dc1f90e061e50260801c5b614000821615610b4e576f70d869a156d2a1b890bb3df62baf32f70260801c5b618000821615610b6e576f31be135f97d08fd981231505542fcfa60260801c5b62010000821615610b8f576f09aa508b5b7a84e1c677de54f3e99bc90260801c5b62020000821615610baf576e5d6af8dedb81196699c329225ee6040260801c5b62040000821615610bce576d2216e584f5fa1ea926041bedfe980260801c5b62080000821615610beb576b048a170391f7dc42444e8fa20260801c5b60008460020b1315610c06578060001981610c0257fe5b0490505b640100000000810615610c1a576001610c1d565b60005b60ff16602082901c0192505050919050565b600080836001600160a01b0316856001600160a01b03161115610c50579293925b846001600160a01b0316866001600160a01b031611610c7b57610c74858585610d6f565b9150610382565b836001600160a01b0316866001600160a01b03161015610cb457610ca0868585610d6f565b9150610cad858785610dda565b9050610382565b610cbf858585610dda565b905094509492505050565b8160020b8360020b12610cdc57600080fd5b620d89e719600284900b1215610cf157600080fd5b620d89e8600283900b1315610d0557600080fd5b8060020b8360020b81610d1457fe5b0760020b15610d2257600080fd5b8060020b8260020b81610d3157fe5b0760020b15610d3f57600080fd5b505050565b6000610d6386610d53876108fd565b610d5c876108fd565b8686610e25565b90505b95945050505050565b6000826001600160a01b0316846001600160a01b03161115610d8f579192915b836001600160a01b0316610dc8606060ff16846001600160801b0316901b8686036001600160a01b0316866001600160a01b0316610edd565b81610dcf57fe5b0490505b9392505050565b6000826001600160a01b0316846001600160a01b03161115610dfa579192915b610e1d826001600160801b03168585036001600160a01b0316600160601b610edd565b949350505050565b6000836001600160a01b0316856001600160a01b03161115610e45579293925b846001600160a01b0316866001600160a01b031611610e7057610e69858585610f8c565b9050610d66565b836001600160a01b0316866001600160a01b03161015610ed2576000610e97878686610f8c565b90506000610ea6878986610fef565b9050806001600160801b0316826001600160801b031610610ec75780610ec9565b815b92505050610d66565b610d63858584610fef565b6000808060001985870986860292508281109083900303905080610f135760008411610f0857600080fd5b508290049050610dd3565b808411610f1f57600080fd5b6000848688096000868103871696879004966002600389028118808a02820302808a02820302808a02820302808a02820302808a02820302808a02909103029181900381900460010186841190950394909402919094039290920491909117919091029150509392505050565b6000826001600160a01b0316846001600160a01b03161115610fac579192915b6000610fcf856001600160a01b0316856001600160a01b0316600160601b610edd565b9050610d66610fea84838888036001600160a01b0316610edd565b61102c565b6000826001600160a01b0316846001600160a01b0316111561100f579192915b610e1d610fea83600160601b8787036001600160a01b0316610edd565b806001600160801b038116811461104257600080fd5b91905056fea2646970667358221220ec54bdabe31aab5d49c4f6638d9063e9cac5f71ad6d6f37d207cbf557da27b1e64736f6c63430007060033",
  "immutableReferences": {},
  "source": "// SPDX-License-Identifier: MIT\n\npragma solidity >=0.7.5;\n\nimport \"@uniswap/v3-periphery/contracts/interfaces/external/IWETH9.sol\";\n\nimport \"@openzeppelin/contracts/math/SafeMath.sol\";\n\nimport \"@uniswap/v3-periphery/contracts/interfaces/IQuoter.sol\";\nimport \"@uniswap/v3-periphery/contracts/libraries/TransferHelper.sol\";\nimport \"@uniswap/v3-periphery/contracts/libraries/PoolAddress.sol\";\nimport \"@uniswap/v3-periphery/contracts/libraries/OracleLibrary.sol\";\nimport \"@uniswap/v3-core/contracts/interfaces/IUniswapV3Pool.sol\";\nimport \"@uniswap/v3-core/contracts/interfaces/IUniswapV3Factory.sol\";\nimport \"@uniswap/v3-core/contracts/interfaces/callback/IUniswapV3MintCallback.sol\";\nimport \"@uniswap/v3-periphery/contracts/libraries/PositionKey.sol\";\nimport \"@uniswap/v3-periphery/contracts/libraries/CallbackValidation.sol\";\nimport \"@uniswap/v3-core/contracts/libraries/TickMath.sol\";\nimport \"@uniswap/v3-periphery/contracts/libraries/LiquidityAmounts.sol\";\nimport \"@uniswap/v3-periphery/contracts/libraries/OracleLibrary.sol\";\nimport \"./interfaces/IOrderManager.sol\";\n\n// use library ?\ncontract ManagerUtils {\n\n    using SafeMath for uint256;\n\n    uint24 public constant POOL_FEE = 3000;\n\n    function calculateLimitTicks(\n        IUniswapV3Pool _pool,\n        uint160 _sqrtPriceX96,\n        uint256 _amount0,\n        uint256 _amount1\n    ) external view\n    returns (\n        int24 _lowerTick,\n        int24 _upperTick,\n        uint128 _liquidity,\n        uint128 _orderType\n    ) {\n\n        int24 tickSpacing = _pool.tickSpacing();\n        (uint160 sqrtRatioX96,, , , , , ) = _pool.slot0();\n\n        int24 _targetTick = TickMath.getTickAtSqrtRatio(_sqrtPriceX96);\n\n        int24 tickFloor = _floor(_targetTick, tickSpacing);\n\n        return _checkLiquidityRange(\n            tickFloor - tickSpacing,\n            tickFloor,\n            tickFloor,\n            tickFloor + tickSpacing,\n            _amount0,\n            _amount1,\n            sqrtRatioX96,\n            tickSpacing\n        );\n\n    }\n\n    function quoteKROM(IUniswapV3Factory factory, IQuoter quoter, address WETH, address KROM, uint256 _weiAmount)\n    public returns (uint256 quote) {\n\n        address _poolAddress = factory.getPool(WETH, KROM, POOL_FEE);\n        require(_poolAddress != address(0));\n\n        if (_weiAmount > 0) {\n\n            quote = quoter.quoteExactInputSingle(WETH, KROM, POOL_FEE, _weiAmount, 0);\n        }\n    }\n\n    function _checkLiquidityRange(int24 _bidLower, int24 _bidUpper,\n        int24 _askLower, int24 _askUpper,\n        uint256 _amount0, uint256 _amount1,\n        uint160 sqrtRatioX96, int24 _tickSpacing) internal pure\n    returns (int24 _lowerTick, int24 _upperTick, uint128 _liquidity, uint128 _orderType) {\n\n        _checkRange(_bidLower, _bidUpper, _tickSpacing);\n        _checkRange(_askLower, _askUpper, _tickSpacing);\n\n        uint128 bidLiquidity = _liquidityForAmounts(sqrtRatioX96, _bidLower, _bidUpper, _amount0, _amount1);\n        uint128 askLiquidity = _liquidityForAmounts(sqrtRatioX96, _askLower, _askUpper, _amount0, _amount1);\n\n        require(bidLiquidity > 0 || askLiquidity > 0);\n\n        if (bidLiquidity > askLiquidity) {\n            (_lowerTick, _upperTick, _liquidity, _orderType) = (_bidLower, _bidUpper, bidLiquidity, uint128(1));\n        } else {\n            (_lowerTick, _upperTick, _liquidity, _orderType) = (_askLower, _askUpper, askLiquidity, uint128(2));\n        }\n    }\n\n    /// @dev Casts uint256 to uint128 with overflow check.\n    function _toUint128(uint256 x) internal pure returns (uint128) {\n        assert(x <= type(uint128).max);\n        return uint128(x);\n    }\n\n    /// @dev Wrapper around `LiquidityAmounts.getLiquidityForAmounts()`.\n    function _liquidityForAmounts(\n        uint160 sqrtRatioX96,\n        int24 tickLower,\n        int24 tickUpper,\n        uint256 amount0,\n        uint256 amount1\n    ) internal pure returns (uint128) {\n        return\n        LiquidityAmounts.getLiquidityForAmounts(\n            sqrtRatioX96,\n            TickMath.getSqrtRatioAtTick(tickLower),\n            TickMath.getSqrtRatioAtTick(tickUpper),\n            amount0,\n            amount1\n        );\n    }\n\n    /// @dev Wrapper around `LiquidityAmounts.getAmountsForLiquidity()`.\n    function _amountsForLiquidity(\n        IUniswapV3Pool pool,\n        int24 tickLower,\n        int24 tickUpper,\n        uint128 liquidity\n    ) external view returns (uint256, uint256) {\n        (uint160 sqrtRatioX96, , , , , , ) = pool.slot0();\n        return\n        LiquidityAmounts.getAmountsForLiquidity(\n            sqrtRatioX96,\n            TickMath.getSqrtRatioAtTick(tickLower),\n            TickMath.getSqrtRatioAtTick(tickUpper),\n            liquidity\n        );\n    }\n\n    function _checkRange(int24 _tickLower, int24 _tickUpper, int24 _tickSpacing) internal pure {\n\n        require(_tickLower < _tickUpper);\n        require(_tickLower >= TickMath.MIN_TICK);\n        require(_tickUpper <= TickMath.MAX_TICK);\n        require(_tickLower % _tickSpacing == 0);\n        require(_tickUpper % _tickSpacing == 0);\n    }\n\n    /// @dev Rounds tick down towards negative infinity so that it's a multiple\n    /// of `tickSpacing`.\n    function _floor(int24 tick, int24 _tickSpacing) internal pure returns (int24) {\n        int24 compressed = tick / _tickSpacing;\n        if (tick < 0 && tick % _tickSpacing != 0) compressed--;\n        return compressed * _tickSpacing;\n    }\n\n    receive() external payable {}\n}",
  "sourcePath": "/Users/aristokrates/Downloads/limit-trade-main/contracts/ManagerUtils.sol",
  "compiler": {
    "name": "solc",
    "version": "0.7.6+commit.7338295f.Emscripten.clang"
  },
  "schemaVersion": "3.4.4",
  "updatedAt": "2021-12-19T21:38:43.887Z",
  "devdoc": {
    "kind": "dev",
    "methods": {
      "_amountsForLiquidity(address,int24,int24,uint128)": {
        "details": "Wrapper around `LiquidityAmounts.getAmountsForLiquidity()`."
      }
    },
    "version": 1
  },
  "userdoc": {
    "kind": "user",
    "methods": {},
    "version": 1
  }
}