{
  "contractName": "OpAccessToken",
  "abi": [
    {
      "anonymous": false,
      "inputs": [
        {
          "indexed": true,
          "internalType": "address",
          "name": "owner",
          "type": "address"
        },
        {
          "indexed": true,
          "internalType": "address",
          "name": "approved",
          "type": "address"
        },
        {
          "indexed": true,
          "internalType": "uint256",
          "name": "tokenId",
          "type": "uint256"
        }
      ],
      "name": "Approval",
      "type": "event"
    },
    {
      "anonymous": false,
      "inputs": [
        {
          "indexed": true,
          "internalType": "address",
          "name": "owner",
          "type": "address"
        },
        {
          "indexed": true,
          "internalType": "address",
          "name": "operator",
          "type": "address"
        },
        {
          "indexed": false,
          "internalType": "bool",
          "name": "approved",
          "type": "bool"
        }
      ],
      "name": "ApprovalForAll",
      "type": "event"
    },
    {
      "anonymous": false,
      "inputs": [
        {
          "indexed": true,
          "internalType": "address",
          "name": "previousOwner",
          "type": "address"
        },
        {
          "indexed": true,
          "internalType": "address",
          "name": "newOwner",
          "type": "address"
        }
      ],
      "name": "OwnershipTransferred",
      "type": "event"
    },
    {
      "anonymous": false,
      "inputs": [
        {
          "indexed": true,
          "internalType": "address",
          "name": "from",
          "type": "address"
        },
        {
          "indexed": true,
          "internalType": "address",
          "name": "to",
          "type": "address"
        },
        {
          "indexed": true,
          "internalType": "uint256",
          "name": "tokenId",
          "type": "uint256"
        }
      ],
      "name": "Transfer",
      "type": "event"
    },
    {
      "inputs": [
        {
          "internalType": "address",
          "name": "to",
          "type": "address"
        },
        {
          "internalType": "uint256",
          "name": "tokenId",
          "type": "uint256"
        }
      ],
      "name": "approve",
      "outputs": [],
      "stateMutability": "nonpayable",
      "type": "function"
    },
    {
      "inputs": [
        {
          "internalType": "address",
          "name": "owner",
          "type": "address"
        }
      ],
      "name": "balanceOf",
      "outputs": [
        {
          "internalType": "uint256",
          "name": "",
          "type": "uint256"
        }
      ],
      "stateMutability": "view",
      "type": "function"
    },
    {
      "inputs": [],
      "name": "baseURI",
      "outputs": [
        {
          "internalType": "string",
          "name": "",
          "type": "string"
        }
      ],
      "stateMutability": "view",
      "type": "function"
    },
    {
      "inputs": [
        {
          "internalType": "uint256",
          "name": "tokenId",
          "type": "uint256"
        }
      ],
      "name": "getApproved",
      "outputs": [
        {
          "internalType": "address",
          "name": "",
          "type": "address"
        }
      ],
      "stateMutability": "view",
      "type": "function"
    },
    {
      "inputs": [
        {
          "internalType": "address",
          "name": "owner",
          "type": "address"
        },
        {
          "internalType": "address",
          "name": "operator",
          "type": "address"
        }
      ],
      "name": "isApprovedForAll",
      "outputs": [
        {
          "internalType": "bool",
          "name": "",
          "type": "bool"
        }
      ],
      "stateMutability": "view",
      "type": "function"
    },
    {
      "inputs": [
        {
          "internalType": "bytes[]",
          "name": "data",
          "type": "bytes[]"
        }
      ],
      "name": "multicall",
      "outputs": [
        {
          "internalType": "bytes[]",
          "name": "results",
          "type": "bytes[]"
        }
      ],
      "stateMutability": "payable",
      "type": "function"
    },
    {
      "inputs": [],
      "name": "name",
      "outputs": [
        {
          "internalType": "string",
          "name": "",
          "type": "string"
        }
      ],
      "stateMutability": "view",
      "type": "function"
    },
    {
      "inputs": [],
      "name": "owner",
      "outputs": [
        {
          "internalType": "address",
          "name": "",
          "type": "address"
        }
      ],
      "stateMutability": "view",
      "type": "function"
    },
    {
      "inputs": [
        {
          "internalType": "uint256",
          "name": "tokenId",
          "type": "uint256"
        }
      ],
      "name": "ownerOf",
      "outputs": [
        {
          "internalType": "address",
          "name": "",
          "type": "address"
        }
      ],
      "stateMutability": "view",
      "type": "function"
    },
    {
      "inputs": [],
      "name": "renounceOwnership",
      "outputs": [],
      "stateMutability": "nonpayable",
      "type": "function"
    },
    {
      "inputs": [
        {
          "internalType": "address",
          "name": "from",
          "type": "address"
        },
        {
          "internalType": "address",
          "name": "to",
          "type": "address"
        },
        {
          "internalType": "uint256",
          "name": "tokenId",
          "type": "uint256"
        }
      ],
      "name": "safeTransferFrom",
      "outputs": [],
      "stateMutability": "nonpayable",
      "type": "function"
    },
    {
      "inputs": [
        {
          "internalType": "address",
          "name": "from",
          "type": "address"
        },
        {
          "internalType": "address",
          "name": "to",
          "type": "address"
        },
        {
          "internalType": "uint256",
          "name": "tokenId",
          "type": "uint256"
        },
        {
          "internalType": "bytes",
          "name": "_data",
          "type": "bytes"
        }
      ],
      "name": "safeTransferFrom",
      "outputs": [],
      "stateMutability": "nonpayable",
      "type": "function"
    },
    {
      "inputs": [
        {
          "internalType": "address",
          "name": "operator",
          "type": "address"
        },
        {
          "internalType": "bool",
          "name": "approved",
          "type": "bool"
        }
      ],
      "name": "setApprovalForAll",
      "outputs": [],
      "stateMutability": "nonpayable",
      "type": "function"
    },
    {
      "inputs": [
        {
          "internalType": "bytes4",
          "name": "interfaceId",
          "type": "bytes4"
        }
      ],
      "name": "supportsInterface",
      "outputs": [
        {
          "internalType": "bool",
          "name": "",
          "type": "bool"
        }
      ],
      "stateMutability": "view",
      "type": "function"
    },
    {
      "inputs": [],
      "name": "symbol",
      "outputs": [
        {
          "internalType": "string",
          "name": "",
          "type": "string"
        }
      ],
      "stateMutability": "view",
      "type": "function"
    },
    {
      "inputs": [
        {
          "internalType": "uint256",
          "name": "index",
          "type": "uint256"
        }
      ],
      "name": "tokenByIndex",
      "outputs": [
        {
          "internalType": "uint256",
          "name": "",
          "type": "uint256"
        }
      ],
      "stateMutability": "view",
      "type": "function"
    },
    {
      "inputs": [
        {
          "internalType": "address",
          "name": "owner",
          "type": "address"
        },
        {
          "internalType": "uint256",
          "name": "index",
          "type": "uint256"
        }
      ],
      "name": "tokenOfOwnerByIndex",
      "outputs": [
        {
          "internalType": "uint256",
          "name": "",
          "type": "uint256"
        }
      ],
      "stateMutability": "view",
      "type": "function"
    },
    {
      "inputs": [
        {
          "internalType": "uint256",
          "name": "tokenId",
          "type": "uint256"
        }
      ],
      "name": "tokenURI",
      "outputs": [
        {
          "internalType": "string",
          "name": "",
          "type": "string"
        }
      ],
      "stateMutability": "view",
      "type": "function"
    },
    {
      "inputs": [],
      "name": "totalSupply",
      "outputs": [
        {
          "internalType": "uint256",
          "name": "",
          "type": "uint256"
        }
      ],
      "stateMutability": "view",
      "type": "function"
    },
    {
      "inputs": [
        {
          "internalType": "address",
          "name": "from",
          "type": "address"
        },
        {
          "internalType": "address",
          "name": "to",
          "type": "address"
        },
        {
          "internalType": "uint256",
          "name": "tokenId",
          "type": "uint256"
        }
      ],
      "name": "transferFrom",
      "outputs": [],
      "stateMutability": "nonpayable",
      "type": "function"
    },
    {
      "inputs": [
        {
          "internalType": "address",
          "name": "newOwner",
          "type": "address"
        }
      ],
      "name": "transferOwnership",
      "outputs": [],
      "stateMutability": "nonpayable",
      "type": "function"
    },
    {
      "inputs": [],
      "name": "initialize",
      "outputs": [],
      "stateMutability": "nonpayable",
      "type": "function"
    },
    {
      "inputs": [
        {
          "internalType": "address",
          "name": "_to",
          "type": "address"
        }
      ],
      "name": "mint",
      "outputs": [],
      "stateMutability": "nonpayable",
      "type": "function"
    }
  ],
  "bytecode": "0x608060405234801561001057600080fd5b5061296f806100206000396000f3fe6080604052600436106101405760003560e01c80636c0360eb116100b6578063a22cb4651161006f578063a22cb46514610357578063ac9650d814610377578063b88d4fde14610397578063c87b56dd146103b7578063e985e9c5146103d7578063f2fde38b146103f757610140565b80636c0360eb146102ce57806370a08231146102e3578063715018a6146103035780638129fc1c146103185780638da5cb5b1461032d57806395d89b411461034257610140565b806323b872dd1161010857806323b872dd1461020e5780632f745c591461022e57806342842e0e1461024e5780634f6ccce71461026e5780636352211e1461028e5780636a627842146102ae57610140565b806301ffc9a71461014557806306fdde031461017b578063081812fc1461019d578063095ea7b3146101ca57806318160ddd146101ec575b600080fd5b34801561015157600080fd5b5061016561016036600461247d565b610417565b60405161017291906125e0565b60405180910390f35b34801561018757600080fd5b5061019061043a565b60405161017291906125eb565b3480156101a957600080fd5b506101bd6101b8366004612518565b6104d0565b604051610172919061256c565b3480156101d657600080fd5b506101ea6101e53660046123e5565b610532565b005b3480156101f857600080fd5b50610201610608565b60405161017291906125fe565b34801561021a57600080fd5b506101ea6102293660046122cd565b610619565b34801561023a57600080fd5b506102016102493660046123e5565b610670565b34801561025a57600080fd5b506101ea6102693660046122cd565b61069b565b34801561027a57600080fd5b50610201610289366004612518565b6106b6565b34801561029a57600080fd5b506101bd6102a9366004612518565b6106cc565b3480156102ba57600080fd5b506101ea6102c9366004612281565b6106f4565b3480156102da57600080fd5b5061019061078e565b3480156102ef57600080fd5b506102016102fe366004612281565b6107ef565b34801561030f57600080fd5b506101ea610857565b34801561032457600080fd5b506101ea610915565b34801561033957600080fd5b506101bd610a21565b34801561034e57600080fd5b50610190610a30565b34801561036357600080fd5b506101ea6103723660046123ab565b610a91565b61038a61038536600461240e565b610b96565b6040516101729190612580565b3480156103a357600080fd5b506101ea6103b2366004612308565b610cdf565b3480156103c357600080fd5b506101906103d2366004612518565b610d3d565b3480156103e357600080fd5b506101656103f236600461229b565b610fbe565b34801561040357600080fd5b506101ea610412366004612281565b610fec565b6001600160e01b0319811660009081526033602052604090205460ff165b919050565b606a8054604080516020601f60026000196101006001881615020190951694909404938401819004810282018101909252828152606093909290918301828280156104c65780601f1061049b576101008083540402835291602001916104c6565b820191906000526020600020905b8154815290600101906020018083116104a957829003601f168201915b5050505050905090565b60006104db82611101565b6105165760405162461bcd60e51b815260040180806020018281038252602c815260200180612864602c913960400191505060405180910390fd5b506000908152606860205260409020546001600160a01b031690565b600061053d826106cc565b9050806001600160a01b0316836001600160a01b031614156105905760405162461bcd60e51b81526004018080602001828103825260218152602001806128e86021913960400191505060405180910390fd5b806001600160a01b03166105a261110e565b6001600160a01b031614806105be57506105be816103f261110e565b6105f95760405162461bcd60e51b81526004018080602001828103825260388152602001806127896038913960400191505060405180910390fd5b6106038383611112565b505050565b60006106146066611180565b905090565b61062a61062461110e565b8261118b565b6106655760405162461bcd60e51b81526004018080602001828103825260318152602001806129096031913960400191505060405180910390fd5b61060383838361122f565b6001600160a01b0382166000908152606560205260408120610692908361137b565b90505b92915050565b61060383838360405180602001604052806000815250610cdf565b6000806106c4606684611387565b509392505050565b6000610695826040518060600160405280602981526020016127eb60299139606691906113a5565b6106fc61110e565b6001600160a01b031661070d610a21565b6001600160a01b031614610768576040805162461bcd60e51b815260206004820181905260248201527f4f776e61626c653a2063616c6c6572206973206e6f7420746865206f776e6572604482015290519081900360640190fd5b61077260c96113bc565b600061077e60c96113c5565b905061078a82826113c9565b5050565b606d8054604080516020601f60026000196101006001881615020190951694909404938401819004810282018101909252828152606093909290918301828280156104c65780601f1061049b576101008083540402835291602001916104c6565b60006001600160a01b0382166108365760405162461bcd60e51b815260040180806020018281038252602a8152602001806127c1602a913960400191505060405180910390fd5b6001600160a01b038216600090815260656020526040902061069590611180565b61085f61110e565b6001600160a01b0316610870610a21565b6001600160a01b0316146108cb576040805162461bcd60e51b815260206004820181905260248201527f4f776e61626c653a2063616c6c6572206973206e6f7420746865206f776e6572604482015290519081900360640190fd5b6097546040516000916001600160a01b0316907f8be0079c531659141344cd1fd0a4f28419497f9722a3daafe3b4186f6b6457e0908390a3609780546001600160a01b0319169055565b600054610100900460ff168061092e575061092e6114f7565b8061093c575060005460ff16155b6109775760405162461bcd60e51b815260040180806020018281038252602e815260200180612814602e913960400191505060405180910390fd5b600054610100900460ff161580156109a2576000805460ff1961ff0019909116610100171660011790555b6109aa611508565b610a0c6040518060400160405280601981526020017f4b726f6d6174696b61204f7074696d69736d20416363657373000000000000008152506040518060400160405280600b81526020016a13d40b52d493d34b53919560aa1b8152506115a5565b8015610a1e576000805461ff00191690555b50565b6097546001600160a01b031690565b606b8054604080516020601f60026000196101006001881615020190951694909404938401819004810282018101909252828152606093909290918301828280156104c65780601f1061049b576101008083540402835291602001916104c6565b610a9961110e565b6001600160a01b0316826001600160a01b03161415610aff576040805162461bcd60e51b815260206004820152601960248201527f4552433732313a20617070726f766520746f2063616c6c657200000000000000604482015290519081900360640190fd5b8060696000610b0c61110e565b6001600160a01b03908116825260208083019390935260409182016000908120918716808252919093529120805460ff191692151592909217909155610b5061110e565b6001600160a01b03167f17307eab39ab6107e8899845ad3d59bd9653f200f220920489ca2b5937696c318360405180821515815260200191505060405180910390a35050565b60608167ffffffffffffffff81118015610baf57600080fd5b50604051908082528060200260200182016040528015610be357816020015b6060815260200190600190039081610bce5790505b50905060005b82811015610cd85760008030868685818110610c0157fe5b9050602002810190610c139190612607565b604051610c2192919061255c565b600060405180830381855af49150503d8060008114610c5c576040519150601f19603f3d011682016040523d82523d6000602084013e610c61565b606091505b509150915081610cb657604481511015610c7a57600080fd5b60048101905080806020019051810190610c9491906124a5565b60405162461bcd60e51b8152600401610cad91906125eb565b60405180910390fd5b80848481518110610cc357fe5b60209081029190910101525050600101610be9565b5092915050565b610cf0610cea61110e565b8361118b565b610d2b5760405162461bcd60e51b81526004018080602001828103825260318152602001806129096031913960400191505060405180910390fd5b610d3784848484611662565b50505050565b6060610d4882611101565b610d835760405162461bcd60e51b815260040180806020018281038252602f8152602001806128b9602f913960400191505060405180910390fd5b6000828152606c602090815260408083208054825160026001831615610100026000190190921691909104601f810185900485028201850190935282815292909190830182828015610e165780601f10610deb57610100808354040283529160200191610e16565b820191906000526020600020905b815481529060010190602001808311610df957829003601f168201915b505050505090506000610e2761078e565b9050805160001415610e3b57509050610435565b815115610efc5780826040516020018083805190602001908083835b60208310610e765780518252601f199092019160209182019101610e57565b51815160209384036101000a600019018019909216911617905285519190930192850191508083835b60208310610ebe5780518252601f199092019160209182019101610e9f565b6001836020036101000a0380198251168184511680821785525050505050509050019250505060405160208183030381529060405292505050610435565b80610f06856116b4565b6040516020018083805190602001908083835b60208310610f385780518252601f199092019160209182019101610f19565b51815160209384036101000a600019018019909216911617905285519190930192850191508083835b60208310610f805780518252601f199092019160209182019101610f61565b6001836020036101000a0380198251168184511680821785525050505050509050019250505060405160208183030381529060405292505050919050565b6001600160a01b03918216600090815260696020908152604080832093909416825291909152205460ff1690565b610ff461110e565b6001600160a01b0316611005610a21565b6001600160a01b031614611060576040805162461bcd60e51b815260206004820181905260248201527f4f776e61626c653a2063616c6c6572206973206e6f7420746865206f776e6572604482015290519081900360640190fd5b6001600160a01b0381166110a55760405162461bcd60e51b81526004018080602001828103825260268152602001806127136026913960400191505060405180910390fd5b6097546040516001600160a01b038084169216907f8be0079c531659141344cd1fd0a4f28419497f9722a3daafe3b4186f6b6457e090600090a3609780546001600160a01b0319166001600160a01b0392909216919091179055565b600061069560668361178f565b3390565b600081815260686020526040902080546001600160a01b0319166001600160a01b0384169081179091558190611147826106cc565b6001600160a01b03167f8c5be1e5ebec7d5bd14f71427d1e84f3dd0314c0f7b2291e5b200ac8c7c3b92560405160405180910390a45050565b6000610695826113c5565b600061119682611101565b6111d15760405162461bcd60e51b815260040180806020018281038252602c81526020018061275d602c913960400191505060405180910390fd5b60006111dc836106cc565b9050806001600160a01b0316846001600160a01b031614806112175750836001600160a01b031661120c846104d0565b6001600160a01b0316145b8061122757506112278185610fbe565b949350505050565b826001600160a01b0316611242826106cc565b6001600160a01b0316146112875760405162461bcd60e51b81526004018080602001828103825260298152602001806128906029913960400191505060405180910390fd5b6001600160a01b0382166112cc5760405162461bcd60e51b81526004018080602001828103825260248152602001806127396024913960400191505060405180910390fd5b6112d7838383610603565b6112e2600082611112565b6001600160a01b0383166000908152606560205260409020611304908261179b565b506001600160a01b038216600090815260656020526040902061132790826117a7565b50611334606682846117b3565b5080826001600160a01b0316846001600160a01b03167fddf252ad1be2c89b69c2b068fc378daa952ba7f163c4a11628f55a4df523b3ef60405160405180910390a4505050565b600061069283836117c9565b6000808080611396868661182d565b909450925050505b9250929050565b60006113b28484846118a8565b90505b9392505050565b80546001019055565b5490565b6001600160a01b038216611424576040805162461bcd60e51b815260206004820181905260248201527f4552433732313a206d696e7420746f20746865207a65726f2061646472657373604482015290519081900360640190fd5b61142d81611101565b1561147f576040805162461bcd60e51b815260206004820152601c60248201527f4552433732313a20746f6b656e20616c7265616479206d696e74656400000000604482015290519081900360640190fd5b61148b60008383610603565b6001600160a01b03821660009081526065602052604090206114ad90826117a7565b506114ba606682846117b3565b5060405181906001600160a01b038416906000907fddf252ad1be2c89b69c2b068fc378daa952ba7f163c4a11628f55a4df523b3ef908290a45050565b600061150230611972565b15905090565b600054610100900460ff168061152157506115216114f7565b8061152f575060005460ff16155b61156a5760405162461bcd60e51b815260040180806020018281038252602e815260200180612814602e913960400191505060405180910390fd5b600054610100900460ff16158015611595576000805460ff1961ff0019909116610100171660011790555b61159d611978565b610a0c611a18565b600054610100900460ff16806115be57506115be6114f7565b806115cc575060005460ff16155b6116075760405162461bcd60e51b815260040180806020018281038252602e815260200180612814602e913960400191505060405180910390fd5b600054610100900460ff16158015611632576000805460ff1961ff0019909116610100171660011790555b61163a611978565b611642611b11565b61164c8383611bae565b8015610603576000805461ff0019169055505050565b61166d84848461122f565b61167984848484611c93565b610d375760405162461bcd60e51b81526004018080602001828103825260328152602001806126e16032913960400191505060405180910390fd5b6060816116d957506040805180820190915260018152600360fc1b6020820152610435565b8160005b81156116f157600101600a820491506116dd565b60008167ffffffffffffffff8111801561170a57600080fd5b506040519080825280601f01601f191660200182016040528015611735576020820181803683370190505b50859350905060001982015b831561178657600a840660300160f81b8282806001900393508151811061176457fe5b60200101906001600160f81b031916908160001a905350600a84049350611741565b50949350505050565b60006106928383611dfb565b60006106928383611e13565b60006106928383611ed9565b60006113b284846001600160a01b038516611f23565b8154600090821061180b5760405162461bcd60e51b81526004018080602001828103825260228152602001806126bf6022913960400191505060405180910390fd5b82600001828154811061181a57fe5b9060005260206000200154905092915050565b8154600090819083106118715760405162461bcd60e51b81526004018080602001828103825260228152602001806128426022913960400191505060405180910390fd5b600084600001848154811061188257fe5b906000526020600020906002020190508060000154816001015492509250509250929050565b600082815260018401602052604081205482816119435760405162461bcd60e51b81526004018080602001828103825283818151815260200191508051906020019080838360005b838110156119085781810151838201526020016118f0565b50505050905090810190601f1680156119355780820380516001836020036101000a031916815260200191505b509250505060405180910390fd5b5084600001600182038154811061195657fe5b9060005260206000209060020201600101549150509392505050565b3b151590565b600054610100900460ff168061199157506119916114f7565b8061199f575060005460ff16155b6119da5760405162461bcd60e51b815260040180806020018281038252602e815260200180612814602e913960400191505060405180910390fd5b600054610100900460ff16158015610a0c576000805460ff1961ff0019909116610100171660011790558015610a1e576000805461ff001916905550565b600054610100900460ff1680611a315750611a316114f7565b80611a3f575060005460ff16155b611a7a5760405162461bcd60e51b815260040180806020018281038252602e815260200180612814602e913960400191505060405180910390fd5b600054610100900460ff16158015611aa5576000805460ff1961ff0019909116610100171660011790555b6000611aaf61110e565b609780546001600160a01b0319166001600160a01b038316908117909155604051919250906000907f8be0079c531659141344cd1fd0a4f28419497f9722a3daafe3b4186f6b6457e0908290a3508015610a1e576000805461ff001916905550565b600054610100900460ff1680611b2a5750611b2a6114f7565b80611b38575060005460ff16155b611b735760405162461bcd60e51b815260040180806020018281038252602e815260200180612814602e913960400191505060405180910390fd5b600054610100900460ff16158015611b9e576000805460ff1961ff0019909116610100171660011790555b610a0c6301ffc9a760e01b611fba565b600054610100900460ff1680611bc75750611bc76114f7565b80611bd5575060005460ff16155b611c105760405162461bcd60e51b815260040180806020018281038252602e815260200180612814602e913960400191505060405180910390fd5b600054610100900460ff16158015611c3b576000805460ff1961ff0019909116610100171660011790555b8251611c4e90606a9060208601906121c9565b508151611c6290606b9060208501906121c9565b50611c736380ac58cd60e01b611fba565b611c83635b5e139f60e01b611fba565b61164c63780e9d6360e01b611fba565b6000611ca7846001600160a01b0316611972565b611cb357506001611227565b6000611dc1630a85bd0160e11b611cc861110e565b88878760405160240180856001600160a01b03168152602001846001600160a01b0316815260200183815260200180602001828103825283818151815260200191508051906020019080838360005b83811015611d2f578181015183820152602001611d17565b50505050905090810190601f168015611d5c5780820380516001836020036101000a031916815260200191505b5095505050505050604051602081830303815290604052906001600160e01b0319166020820180516001600160e01b0383818316178352505050506040518060600160405280603281526020016126e1603291396001600160a01b038816919061203e565b90506000818060200190516020811015611dda57600080fd5b50516001600160e01b031916630a85bd0160e11b1492505050949350505050565b60009081526001919091016020526040902054151590565b60008181526001830160205260408120548015611ecf5783546000198083019190810190600090879083908110611e4657fe5b9060005260206000200154905080876000018481548110611e6357fe5b600091825260208083209091019290925582815260018981019092526040902090840190558654879080611e9357fe5b60019003818190600052602060002001600090559055866001016000878152602001908152602001600020600090556001945050505050610695565b6000915050610695565b6000611ee58383611dfb565b611f1b57508154600181810184556000848152602080822090930184905584548482528286019093526040902091909155610695565b506000610695565b600082815260018401602052604081205480611f885750506040805180820182528381526020808201848152865460018181018955600089815284812095516002909302909501918255915190820155865486845281880190925292909120556113b5565b82856000016001830381548110611f9b57fe5b90600052602060002090600202016001018190555060009150506113b5565b6001600160e01b03198082161415612019576040805162461bcd60e51b815260206004820152601c60248201527f4552433136353a20696e76616c696420696e7465726661636520696400000000604482015290519081900360640190fd5b6001600160e01b0319166000908152603360205260409020805460ff19166001179055565b60606113b284846000858561205285611972565b6120a3576040805162461bcd60e51b815260206004820152601d60248201527f416464726573733a2063616c6c20746f206e6f6e2d636f6e7472616374000000604482015290519081900360640190fd5b600080866001600160a01b031685876040518082805190602001908083835b602083106120e15780518252601f1990920191602091820191016120c2565b6001836020036101000a03801982511681845116808217855250505050505090500191505060006040518083038185875af1925050503d8060008114612143576040519150601f19603f3d011682016040523d82523d6000602084013e612148565b606091505b5091509150612158828286612163565b979650505050505050565b606083156121725750816113b5565b8251156121825782518084602001fd5b60405162461bcd60e51b81526020600482018181528451602484015284518593919283926044019190850190808383600083156119085781810151838201526020016118f0565b828054600181600116156101000203166002900490600052602060002090601f0160209004810192826121ff5760008555612245565b82601f1061221857805160ff1916838001178555612245565b82800160010185558215612245579182015b8281111561224557825182559160200191906001019061222a565b50612251929150612255565b5090565b5b808211156122515760008155600101612256565b80356001600160a01b038116811461043557600080fd5b600060208284031215612292578081fd5b6106928261226a565b600080604083850312156122ad578081fd5b6122b68361226a565b91506122c46020840161226a565b90509250929050565b6000806000606084860312156122e1578081fd5b6122ea8461226a565b92506122f86020850161226a565b9150604084013590509250925092565b6000806000806080858703121561231d578081fd5b6123268561226a565b93506123346020860161226a565b925060408501359150606085013567ffffffffffffffff811115612356578182fd5b8501601f81018713612366578182fd5b803561237961237482612670565b61264c565b81815288602083850101111561238d578384fd5b81602084016020830137908101602001929092525092959194509250565b600080604083850312156123bd578182fd5b6123c68361226a565b9150602083013580151581146123da578182fd5b809150509250929050565b600080604083850312156123f7578182fd5b6124008361226a565b946020939093013593505050565b60008060208385031215612420578182fd5b823567ffffffffffffffff80821115612437578384fd5b818501915085601f83011261244a578384fd5b813581811115612458578485fd5b866020808302850101111561246b578485fd5b60209290920196919550909350505050565b60006020828403121561248e578081fd5b81356001600160e01b0319811681146113b5578182fd5b6000602082840312156124b6578081fd5b815167ffffffffffffffff8111156124cc578182fd5b8201601f810184136124dc578182fd5b80516124ea61237482612670565b8181528560208385010111156124fe578384fd5b61250f826020830160208601612692565b95945050505050565b600060208284031215612529578081fd5b5035919050565b60008151808452612548816020860160208601612692565b601f01601f19169290920160200192915050565b6000828483379101908152919050565b6001600160a01b0391909116815260200190565b6000602080830181845280855180835260408601915060408482028701019250838701855b828110156125d357603f198886030184526125c1858351612530565b945092850192908501906001016125a5565b5092979650505050505050565b901515815260200190565b6000602082526106926020830184612530565b90815260200190565b6000808335601e1984360301811261261d578283fd5b83018035915067ffffffffffffffff821115612637578283fd5b60200191503681900382131561139e57600080fd5b60405181810167ffffffffffffffff8111828210171561266857fe5b604052919050565b600067ffffffffffffffff82111561268457fe5b50601f01601f191660200190565b60005b838110156126ad578181015183820152602001612695565b83811115610d37575050600091015256fe456e756d657261626c655365743a20696e646578206f7574206f6620626f756e64734552433732313a207472616e7366657220746f206e6f6e20455243373231526563656976657220696d706c656d656e7465724f776e61626c653a206e6577206f776e657220697320746865207a65726f20616464726573734552433732313a207472616e7366657220746f20746865207a65726f20616464726573734552433732313a206f70657261746f7220717565727920666f72206e6f6e6578697374656e7420746f6b656e4552433732313a20617070726f76652063616c6c6572206973206e6f74206f776e6572206e6f7220617070726f76656420666f7220616c6c4552433732313a2062616c616e636520717565727920666f7220746865207a65726f20616464726573734552433732313a206f776e657220717565727920666f72206e6f6e6578697374656e7420746f6b656e496e697469616c697a61626c653a20636f6e747261637420697320616c726561647920696e697469616c697a6564456e756d657261626c654d61703a20696e646578206f7574206f6620626f756e64734552433732313a20617070726f76656420717565727920666f72206e6f6e6578697374656e7420746f6b656e4552433732313a207472616e73666572206f6620746f6b656e2074686174206973206e6f74206f776e4552433732314d657461646174613a2055524920717565727920666f72206e6f6e6578697374656e7420746f6b656e4552433732313a20617070726f76616c20746f2063757272656e74206f776e65724552433732313a207472616e736665722063616c6c6572206973206e6f74206f776e6572206e6f7220617070726f766564a2646970667358221220b599228a0eca21435126ee8e81b90c379bcfe125eb302e7d2a624fda69c136f564736f6c63430007060033",
  "immutableReferences": {},
  "source": "// SPDX-License-Identifier: MIT\n\npragma solidity >=0.7.5;\npragma abicoder v2;\n\nimport \"@openzeppelin/contracts/math/SafeMath.sol\";\nimport '@openzeppelin/contracts-upgradeable/token/ERC721/ERC721Upgradeable.sol';\nimport \"@openzeppelin/contracts-upgradeable/access/OwnableUpgradeable.sol\";\nimport \"@openzeppelin/contracts/utils/Counters.sol\";\nimport \"../Multicall.sol\";\n\n/// @title  OpAccessToken\ncontract OpAccessToken is ERC721Upgradeable, OwnableUpgradeable, Multicall {\n\n    using Counters for Counters.Counter;\n    Counters.Counter private _tokenIds;\n\n    /// @notice Initializes the smart contract instead of a constructor\n    function initialize() public initializer {\n        OwnableUpgradeable.__Ownable_init();\n        ERC721Upgradeable.__ERC721_init(\"Kromatika Optimism Access\", \"OP-KROM-NFT\");\n    }\n\n    function mint(address _to) external onlyOwner {\n\n        _tokenIds.increment();\n        uint256 newTokenId = _tokenIds.current();\n        _mint(_to, newTokenId);\n    }\n}",
  "sourcePath": "/Users/aristokrates/Downloads/limit-trade-main/contracts/optimism/OpAccessToken.sol",
  "compiler": {
    "name": "solc",
    "version": "0.7.6+commit.7338295f.Emscripten.clang"
  },
  "schemaVersion": "3.4.4",
  "updatedAt": "2021-12-19T21:38:43.897Z",
  "devdoc": {
    "kind": "dev",
    "methods": {
      "approve(address,uint256)": {
        "details": "See {IERC721-approve}."
      },
      "balanceOf(address)": {
        "details": "See {IERC721-balanceOf}."
      },
      "baseURI()": {
        "details": "Returns the base URI set via {_setBaseURI}. This will be automatically added as a prefix in {tokenURI} to each token's URI, or to the token ID if no specific URI is set for that token ID."
      },
      "getApproved(uint256)": {
        "details": "See {IERC721-getApproved}."
      },
      "isApprovedForAll(address,address)": {
        "details": "See {IERC721-isApprovedForAll}."
      },
      "multicall(bytes[])": {
        "details": "The `msg.value` should not be trusted for any method callable from multicall.",
        "params": {
          "data": "The encoded function data for each of the calls to make to this contract"
        },
        "returns": {
          "results": "The results from each of the calls passed in via data"
        }
      },
      "name()": {
        "details": "See {IERC721Metadata-name}."
      },
      "owner()": {
        "details": "Returns the address of the current owner."
      },
      "ownerOf(uint256)": {
        "details": "See {IERC721-ownerOf}."
      },
      "renounceOwnership()": {
        "details": "Leaves the contract without owner. It will not be possible to call `onlyOwner` functions anymore. Can only be called by the current owner. NOTE: Renouncing ownership will leave the contract without an owner, thereby removing any functionality that is only available to the owner."
      },
      "safeTransferFrom(address,address,uint256)": {
        "details": "See {IERC721-safeTransferFrom}."
      },
      "safeTransferFrom(address,address,uint256,bytes)": {
        "details": "See {IERC721-safeTransferFrom}."
      },
      "setApprovalForAll(address,bool)": {
        "details": "See {IERC721-setApprovalForAll}."
      },
      "supportsInterface(bytes4)": {
        "details": "See {IERC165-supportsInterface}. Time complexity O(1), guaranteed to always use less than 30 000 gas."
      },
      "symbol()": {
        "details": "See {IERC721Metadata-symbol}."
      },
      "tokenByIndex(uint256)": {
        "details": "See {IERC721Enumerable-tokenByIndex}."
      },
      "tokenOfOwnerByIndex(address,uint256)": {
        "details": "See {IERC721Enumerable-tokenOfOwnerByIndex}."
      },
      "tokenURI(uint256)": {
        "details": "See {IERC721Metadata-tokenURI}."
      },
      "totalSupply()": {
        "details": "See {IERC721Enumerable-totalSupply}."
      },
      "transferFrom(address,address,uint256)": {
        "details": "See {IERC721-transferFrom}."
      },
      "transferOwnership(address)": {
        "details": "Transfers ownership of the contract to a new account (`newOwner`). Can only be called by the current owner."
      }
    },
    "title": "OpAccessToken",
    "version": 1
  },
  "userdoc": {
    "kind": "user",
    "methods": {
      "initialize()": {
        "notice": "Initializes the smart contract instead of a constructor"
      },
      "multicall(bytes[])": {
        "notice": "Call multiple functions in the current contract and return the data from all of them if they all succeed"
      }
    },
    "version": 1
  }
}