{
  "contractName": "OpLimitOrderManager",
  "abi": [
    {
      "anonymous": false,
      "inputs": [
        {
          "indexed": true,
          "internalType": "address",
          "name": "owner",
          "type": "address"
        },
        {
          "indexed": true,
          "internalType": "address",
          "name": "approved",
          "type": "address"
        },
        {
          "indexed": true,
          "internalType": "uint256",
          "name": "tokenId",
          "type": "uint256"
        }
      ],
      "name": "Approval",
      "type": "event"
    },
    {
      "anonymous": false,
      "inputs": [
        {
          "indexed": true,
          "internalType": "address",
          "name": "owner",
          "type": "address"
        },
        {
          "indexed": true,
          "internalType": "address",
          "name": "operator",
          "type": "address"
        },
        {
          "indexed": false,
          "internalType": "bool",
          "name": "approved",
          "type": "bool"
        }
      ],
      "name": "ApprovalForAll",
      "type": "event"
    },
    {
      "anonymous": false,
      "inputs": [
        {
          "indexed": true,
          "internalType": "address",
          "name": "from",
          "type": "address"
        },
        {
          "indexed": false,
          "internalType": "uint256",
          "name": "amount",
          "type": "uint256"
        }
      ],
      "name": "FundingAdded",
      "type": "event"
    },
    {
      "anonymous": false,
      "inputs": [
        {
          "indexed": true,
          "internalType": "address",
          "name": "from",
          "type": "address"
        },
        {
          "indexed": false,
          "internalType": "uint256",
          "name": "amount",
          "type": "uint256"
        }
      ],
      "name": "FundingWithdrawn",
      "type": "event"
    },
    {
      "anonymous": false,
      "inputs": [
        {
          "indexed": true,
          "internalType": "address",
          "name": "owner",
          "type": "address"
        },
        {
          "indexed": true,
          "internalType": "uint256",
          "name": "tokenId",
          "type": "uint256"
        },
        {
          "indexed": false,
          "internalType": "uint256",
          "name": "amount0",
          "type": "uint256"
        },
        {
          "indexed": false,
          "internalType": "uint256",
          "name": "amount1",
          "type": "uint256"
        }
      ],
      "name": "LimitOrderCancelled",
      "type": "event"
    },
    {
      "anonymous": false,
      "inputs": [
        {
          "indexed": true,
          "internalType": "address",
          "name": "owner",
          "type": "address"
        },
        {
          "indexed": true,
          "internalType": "uint256",
          "name": "tokenId",
          "type": "uint256"
        },
        {
          "indexed": false,
          "internalType": "uint256",
          "name": "tokensOwed0",
          "type": "uint256"
        },
        {
          "indexed": false,
          "internalType": "uint256",
          "name": "tokensOwed1",
          "type": "uint256"
        }
      ],
      "name": "LimitOrderCollected",
      "type": "event"
    },
    {
      "anonymous": false,
      "inputs": [
        {
          "indexed": true,
          "internalType": "address",
          "name": "owner",
          "type": "address"
        },
        {
          "indexed": true,
          "internalType": "uint256",
          "name": "tokenId",
          "type": "uint256"
        },
        {
          "indexed": false,
          "internalType": "uint128",
          "name": "orderType",
          "type": "uint128"
        },
        {
          "indexed": false,
          "internalType": "uint160",
          "name": "sqrtPriceX96",
          "type": "uint160"
        },
        {
          "indexed": false,
          "internalType": "uint256",
          "name": "amount0",
          "type": "uint256"
        },
        {
          "indexed": false,
          "internalType": "uint256",
          "name": "amount1",
          "type": "uint256"
        }
      ],
      "name": "LimitOrderCreated",
      "type": "event"
    },
    {
      "anonymous": false,
      "inputs": [
        {
          "indexed": true,
          "internalType": "address",
          "name": "monitor",
          "type": "address"
        },
        {
          "indexed": true,
          "internalType": "uint256",
          "name": "tokenId",
          "type": "uint256"
        },
        {
          "indexed": false,
          "internalType": "uint256",
          "name": "batchId",
          "type": "uint256"
        },
        {
          "indexed": false,
          "internalType": "uint256",
          "name": "serviceFeePaid",
          "type": "uint256"
        }
      ],
      "name": "LimitOrderProcessed",
      "type": "event"
    },
    {
      "anonymous": false,
      "inputs": [
        {
          "indexed": true,
          "internalType": "address",
          "name": "from",
          "type": "address"
        },
        {
          "indexed": true,
          "internalType": "address",
          "name": "to",
          "type": "address"
        },
        {
          "indexed": true,
          "internalType": "uint256",
          "name": "tokenId",
          "type": "uint256"
        }
      ],
      "name": "Transfer",
      "type": "event"
    },
    {
      "stateMutability": "payable",
      "type": "fallback"
    },
    {
      "inputs": [],
      "name": "KROM",
      "outputs": [
        {
          "internalType": "contract IERC20",
          "name": "",
          "type": "address"
        }
      ],
      "stateMutability": "view",
      "type": "function"
    },
    {
      "inputs": [],
      "name": "PROTOCOL_FEE_MULTIPLIER",
      "outputs": [
        {
          "internalType": "uint256",
          "name": "",
          "type": "uint256"
        }
      ],
      "stateMutability": "view",
      "type": "function"
    },
    {
      "inputs": [],
      "name": "WETH",
      "outputs": [
        {
          "internalType": "contract IWETH9",
          "name": "",
          "type": "address"
        }
      ],
      "stateMutability": "view",
      "type": "function"
    },
    {
      "inputs": [],
      "name": "WETHExt",
      "outputs": [
        {
          "internalType": "contract WETHExtended",
          "name": "",
          "type": "address"
        }
      ],
      "stateMutability": "view",
      "type": "function"
    },
    {
      "inputs": [
        {
          "internalType": "address",
          "name": "",
          "type": "address"
        }
      ],
      "name": "activeOrders",
      "outputs": [
        {
          "internalType": "uint256",
          "name": "",
          "type": "uint256"
        }
      ],
      "stateMutability": "view",
      "type": "function"
    },
    {
      "inputs": [
        {
          "internalType": "uint256",
          "name": "_amount",
          "type": "uint256"
        }
      ],
      "name": "addFunding",
      "outputs": [],
      "stateMutability": "nonpayable",
      "type": "function"
    },
    {
      "inputs": [
        {
          "internalType": "contract IOrderMonitor",
          "name": "_newMonitor",
          "type": "address"
        }
      ],
      "name": "addMonitor",
      "outputs": [],
      "stateMutability": "nonpayable",
      "type": "function"
    },
    {
      "inputs": [
        {
          "internalType": "address",
          "name": "to",
          "type": "address"
        },
        {
          "internalType": "uint256",
          "name": "tokenId",
          "type": "uint256"
        }
      ],
      "name": "approve",
      "outputs": [],
      "stateMutability": "nonpayable",
      "type": "function"
    },
    {
      "inputs": [
        {
          "internalType": "address",
          "name": "owner",
          "type": "address"
        }
      ],
      "name": "balanceOf",
      "outputs": [
        {
          "internalType": "uint256",
          "name": "",
          "type": "uint256"
        }
      ],
      "stateMutability": "view",
      "type": "function"
    },
    {
      "inputs": [],
      "name": "baseURI",
      "outputs": [
        {
          "internalType": "string",
          "name": "",
          "type": "string"
        }
      ],
      "stateMutability": "view",
      "type": "function"
    },
    {
      "inputs": [
        {
          "internalType": "uint256",
          "name": "_tokenId",
          "type": "uint256"
        }
      ],
      "name": "burn",
      "outputs": [],
      "stateMutability": "nonpayable",
      "type": "function"
    },
    {
      "inputs": [
        {
          "internalType": "uint256",
          "name": "_tokenId",
          "type": "uint256"
        },
        {
          "internalType": "uint256",
          "name": "_gasPrice",
          "type": "uint256"
        }
      ],
      "name": "canProcess",
      "outputs": [
        {
          "internalType": "bool",
          "name": "underfunded",
          "type": "bool"
        },
        {
          "internalType": "uint256",
          "name": "_serviceFee",
          "type": "uint256"
        },
        {
          "internalType": "uint256",
          "name": "_monitorFee",
          "type": "uint256"
        }
      ],
      "stateMutability": "nonpayable",
      "type": "function"
    },
    {
      "inputs": [
        {
          "internalType": "uint256",
          "name": "_tokenId",
          "type": "uint256"
        }
      ],
      "name": "cancelLimitOrder",
      "outputs": [
        {
          "internalType": "uint256",
          "name": "_amount0",
          "type": "uint256"
        },
        {
          "internalType": "uint256",
          "name": "_amount1",
          "type": "uint256"
        }
      ],
      "stateMutability": "nonpayable",
      "type": "function"
    },
    {
      "inputs": [
        {
          "internalType": "address",
          "name": "_controller",
          "type": "address"
        }
      ],
      "name": "changeController",
      "outputs": [],
      "stateMutability": "nonpayable",
      "type": "function"
    },
    {
      "inputs": [],
      "name": "controller",
      "outputs": [
        {
          "internalType": "address",
          "name": "",
          "type": "address"
        }
      ],
      "stateMutability": "view",
      "type": "function"
    },
    {
      "inputs": [],
      "name": "factory",
      "outputs": [
        {
          "internalType": "contract IUniswapV3Factory",
          "name": "",
          "type": "address"
        }
      ],
      "stateMutability": "view",
      "type": "function"
    },
    {
      "inputs": [],
      "name": "feeAddress",
      "outputs": [
        {
          "internalType": "address",
          "name": "",
          "type": "address"
        }
      ],
      "stateMutability": "view",
      "type": "function"
    },
    {
      "inputs": [
        {
          "internalType": "address",
          "name": "",
          "type": "address"
        }
      ],
      "name": "funding",
      "outputs": [
        {
          "internalType": "uint256",
          "name": "",
          "type": "uint256"
        }
      ],
      "stateMutability": "view",
      "type": "function"
    },
    {
      "inputs": [],
      "name": "gasUsageMonitor",
      "outputs": [
        {
          "internalType": "uint256",
          "name": "",
          "type": "uint256"
        }
      ],
      "stateMutability": "view",
      "type": "function"
    },
    {
      "inputs": [
        {
          "internalType": "uint256",
          "name": "tokenId",
          "type": "uint256"
        }
      ],
      "name": "getApproved",
      "outputs": [
        {
          "internalType": "address",
          "name": "",
          "type": "address"
        }
      ],
      "stateMutability": "view",
      "type": "function"
    },
    {
      "inputs": [
        {
          "internalType": "address",
          "name": "owner",
          "type": "address"
        },
        {
          "internalType": "address",
          "name": "operator",
          "type": "address"
        }
      ],
      "name": "isApprovedForAll",
      "outputs": [
        {
          "internalType": "bool",
          "name": "",
          "type": "bool"
        }
      ],
      "stateMutability": "view",
      "type": "function"
    },
    {
      "inputs": [
        {
          "internalType": "address",
          "name": "_owner",
          "type": "address"
        },
        {
          "internalType": "uint256",
          "name": "_targetGasPrice",
          "type": "uint256"
        }
      ],
      "name": "isUnderfunded",
      "outputs": [
        {
          "internalType": "bool",
          "name": "underfunded",
          "type": "bool"
        },
        {
          "internalType": "uint256",
          "name": "amount",
          "type": "uint256"
        },
        {
          "internalType": "uint256",
          "name": "_serviceFee",
          "type": "uint256"
        },
        {
          "internalType": "uint256",
          "name": "_monitorFee",
          "type": "uint256"
        }
      ],
      "stateMutability": "nonpayable",
      "type": "function"
    },
    {
      "inputs": [
        {
          "internalType": "uint256",
          "name": "",
          "type": "uint256"
        }
      ],
      "name": "monitors",
      "outputs": [
        {
          "internalType": "contract IOrderMonitor",
          "name": "",
          "type": "address"
        }
      ],
      "stateMutability": "view",
      "type": "function"
    },
    {
      "inputs": [],
      "name": "monitorsLength",
      "outputs": [
        {
          "internalType": "uint256",
          "name": "",
          "type": "uint256"
        }
      ],
      "stateMutability": "view",
      "type": "function"
    },
    {
      "inputs": [
        {
          "internalType": "bytes[]",
          "name": "data",
          "type": "bytes[]"
        }
      ],
      "name": "multicall",
      "outputs": [
        {
          "internalType": "bytes[]",
          "name": "results",
          "type": "bytes[]"
        }
      ],
      "stateMutability": "payable",
      "type": "function"
    },
    {
      "inputs": [],
      "name": "name",
      "outputs": [
        {
          "internalType": "string",
          "name": "",
          "type": "string"
        }
      ],
      "stateMutability": "view",
      "type": "function"
    },
    {
      "inputs": [],
      "name": "nextMonitor",
      "outputs": [
        {
          "internalType": "uint256",
          "name": "",
          "type": "uint256"
        }
      ],
      "stateMutability": "view",
      "type": "function"
    },
    {
      "inputs": [
        {
          "internalType": "uint256",
          "name": "tokenId",
          "type": "uint256"
        }
      ],
      "name": "orders",
      "outputs": [
        {
          "internalType": "address",
          "name": "owner",
          "type": "address"
        },
        {
          "internalType": "address",
          "name": "token0",
          "type": "address"
        },
        {
          "internalType": "address",
          "name": "token1",
          "type": "address"
        },
        {
          "internalType": "uint24",
          "name": "fee",
          "type": "uint24"
        },
        {
          "internalType": "int24",
          "name": "tickLower",
          "type": "int24"
        },
        {
          "internalType": "int24",
          "name": "tickUpper",
          "type": "int24"
        },
        {
          "internalType": "uint128",
          "name": "liquidity",
          "type": "uint128"
        },
        {
          "internalType": "uint256",
          "name": "opened",
          "type": "uint256"
        },
        {
          "internalType": "uint256",
          "name": "processed",
          "type": "uint256"
        },
        {
          "internalType": "uint256",
          "name": "tokensOwed0",
          "type": "uint256"
        },
        {
          "internalType": "uint256",
          "name": "tokensOwed1",
          "type": "uint256"
        }
      ],
      "stateMutability": "view",
      "type": "function"
    },
    {
      "inputs": [
        {
          "internalType": "uint256",
          "name": "tokenId",
          "type": "uint256"
        }
      ],
      "name": "ownerOf",
      "outputs": [
        {
          "internalType": "address",
          "name": "",
          "type": "address"
        }
      ],
      "stateMutability": "view",
      "type": "function"
    },
    {
      "inputs": [
        {
          "internalType": "uint256",
          "name": "_tokenId",
          "type": "uint256"
        },
        {
          "internalType": "uint256",
          "name": "_batchId",
          "type": "uint256"
        },
        {
          "internalType": "uint256",
          "name": "_serviceFeePaid",
          "type": "uint256"
        },
        {
          "internalType": "uint256",
          "name": "_monitorFeePaid",
          "type": "uint256"
        }
      ],
      "name": "processLimitOrder",
      "outputs": [
        {
          "internalType": "uint128",
          "name": "_amount0",
          "type": "uint128"
        },
        {
          "internalType": "uint128",
          "name": "_amount1",
          "type": "uint128"
        }
      ],
      "stateMutability": "nonpayable",
      "type": "function"
    },
    {
      "inputs": [],
      "name": "protocolFee",
      "outputs": [
        {
          "internalType": "uint32",
          "name": "",
          "type": "uint32"
        }
      ],
      "stateMutability": "view",
      "type": "function"
    },
    {
      "inputs": [],
      "name": "protocolFeeDiscount",
      "outputs": [
        {
          "internalType": "uint32",
          "name": "",
          "type": "uint32"
        }
      ],
      "stateMutability": "view",
      "type": "function"
    },
    {
      "inputs": [
        {
          "internalType": "uint256",
          "name": "_weiAmount",
          "type": "uint256"
        }
      ],
      "name": "quoteKROM",
      "outputs": [
        {
          "internalType": "uint256",
          "name": "quote",
          "type": "uint256"
        }
      ],
      "stateMutability": "nonpayable",
      "type": "function"
    },
    {
      "inputs": [],
      "name": "quoter",
      "outputs": [
        {
          "internalType": "contract IQuoter",
          "name": "",
          "type": "address"
        }
      ],
      "stateMutability": "view",
      "type": "function"
    },
    {
      "inputs": [
        {
          "internalType": "address",
          "name": "from",
          "type": "address"
        },
        {
          "internalType": "address",
          "name": "to",
          "type": "address"
        },
        {
          "internalType": "uint256",
          "name": "tokenId",
          "type": "uint256"
        }
      ],
      "name": "safeTransferFrom",
      "outputs": [],
      "stateMutability": "nonpayable",
      "type": "function"
    },
    {
      "inputs": [
        {
          "internalType": "address",
          "name": "from",
          "type": "address"
        },
        {
          "internalType": "address",
          "name": "to",
          "type": "address"
        },
        {
          "internalType": "uint256",
          "name": "tokenId",
          "type": "uint256"
        },
        {
          "internalType": "bytes",
          "name": "_data",
          "type": "bytes"
        }
      ],
      "name": "safeTransferFrom",
      "outputs": [],
      "stateMutability": "nonpayable",
      "type": "function"
    },
    {
      "inputs": [
        {
          "internalType": "address",
          "name": "_owner",
          "type": "address"
        },
        {
          "internalType": "uint256",
          "name": "_targetGasPrice",
          "type": "uint256"
        }
      ],
      "name": "serviceFee",
      "outputs": [
        {
          "internalType": "uint256",
          "name": "_serviceFee",
          "type": "uint256"
        }
      ],
      "stateMutability": "nonpayable",
      "type": "function"
    },
    {
      "inputs": [
        {
          "internalType": "address",
          "name": "operator",
          "type": "address"
        },
        {
          "internalType": "bool",
          "name": "approved",
          "type": "bool"
        }
      ],
      "name": "setApprovalForAll",
      "outputs": [],
      "stateMutability": "nonpayable",
      "type": "function"
    },
    {
      "inputs": [
        {
          "internalType": "uint256",
          "name": "_gasUsageMonitor",
          "type": "uint256"
        }
      ],
      "name": "setGasUsageMonitor",
      "outputs": [],
      "stateMutability": "nonpayable",
      "type": "function"
    },
    {
      "inputs": [
        {
          "internalType": "contract IOrderMonitor[]",
          "name": "_newMonitors",
          "type": "address[]"
        }
      ],
      "name": "setMonitors",
      "outputs": [],
      "stateMutability": "nonpayable",
      "type": "function"
    },
    {
      "inputs": [
        {
          "internalType": "uint32",
          "name": "_protocolFee",
          "type": "uint32"
        }
      ],
      "name": "setProtocolFee",
      "outputs": [],
      "stateMutability": "nonpayable",
      "type": "function"
    },
    {
      "inputs": [
        {
          "internalType": "bytes4",
          "name": "interfaceId",
          "type": "bytes4"
        }
      ],
      "name": "supportsInterface",
      "outputs": [
        {
          "internalType": "bool",
          "name": "",
          "type": "bool"
        }
      ],
      "stateMutability": "view",
      "type": "function"
    },
    {
      "inputs": [],
      "name": "symbol",
      "outputs": [
        {
          "internalType": "string",
          "name": "",
          "type": "string"
        }
      ],
      "stateMutability": "view",
      "type": "function"
    },
    {
      "inputs": [
        {
          "internalType": "uint256",
          "name": "index",
          "type": "uint256"
        }
      ],
      "name": "tokenByIndex",
      "outputs": [
        {
          "internalType": "uint256",
          "name": "",
          "type": "uint256"
        }
      ],
      "stateMutability": "view",
      "type": "function"
    },
    {
      "inputs": [
        {
          "internalType": "address",
          "name": "owner",
          "type": "address"
        },
        {
          "internalType": "uint256",
          "name": "index",
          "type": "uint256"
        }
      ],
      "name": "tokenOfOwnerByIndex",
      "outputs": [
        {
          "internalType": "uint256",
          "name": "",
          "type": "uint256"
        }
      ],
      "stateMutability": "view",
      "type": "function"
    },
    {
      "inputs": [
        {
          "internalType": "uint256",
          "name": "tokenId",
          "type": "uint256"
        }
      ],
      "name": "tokenURI",
      "outputs": [
        {
          "internalType": "string",
          "name": "",
          "type": "string"
        }
      ],
      "stateMutability": "view",
      "type": "function"
    },
    {
      "inputs": [],
      "name": "totalSupply",
      "outputs": [
        {
          "internalType": "uint256",
          "name": "",
          "type": "uint256"
        }
      ],
      "stateMutability": "view",
      "type": "function"
    },
    {
      "inputs": [
        {
          "internalType": "address",
          "name": "from",
          "type": "address"
        },
        {
          "internalType": "address",
          "name": "to",
          "type": "address"
        },
        {
          "internalType": "uint256",
          "name": "tokenId",
          "type": "uint256"
        }
      ],
      "name": "transferFrom",
      "outputs": [],
      "stateMutability": "nonpayable",
      "type": "function"
    },
    {
      "inputs": [
        {
          "internalType": "uint256",
          "name": "amount0Owed",
          "type": "uint256"
        },
        {
          "internalType": "uint256",
          "name": "amount1Owed",
          "type": "uint256"
        },
        {
          "internalType": "bytes",
          "name": "data",
          "type": "bytes"
        }
      ],
      "name": "uniswapV3MintCallback",
      "outputs": [],
      "stateMutability": "nonpayable",
      "type": "function"
    },
    {
      "inputs": [],
      "name": "utils",
      "outputs": [
        {
          "internalType": "contract ManagerUtils",
          "name": "",
          "type": "address"
        }
      ],
      "stateMutability": "view",
      "type": "function"
    },
    {
      "inputs": [
        {
          "internalType": "uint256",
          "name": "_amount",
          "type": "uint256"
        }
      ],
      "name": "withdrawFunding",
      "outputs": [],
      "stateMutability": "nonpayable",
      "type": "function"
    },
    {
      "stateMutability": "payable",
      "type": "receive"
    },
    {
      "inputs": [
        {
          "internalType": "contract IUniswapV3Factory",
          "name": "_factory",
          "type": "address"
        },
        {
          "internalType": "contract IQuoter",
          "name": "_quoter",
          "type": "address"
        },
        {
          "internalType": "contract IWETH9",
          "name": "_WETH",
          "type": "address"
        },
        {
          "internalType": "contract WETHExtended",
          "name": "_WETHExtended",
          "type": "address"
        },
        {
          "internalType": "contract ManagerUtils",
          "name": "_utils",
          "type": "address"
        },
        {
          "internalType": "contract IERC20",
          "name": "_KROM",
          "type": "address"
        },
        {
          "internalType": "address",
          "name": "_feeAddress",
          "type": "address"
        },
        {
          "internalType": "uint256",
          "name": "_gasUsageMonitor",
          "type": "uint256"
        },
        {
          "internalType": "uint32",
          "name": "_protocolFee",
          "type": "uint32"
        }
      ],
      "name": "initialize",
      "outputs": [],
      "stateMutability": "nonpayable",
      "type": "function"
    },
    {
      "inputs": [
        {
          "internalType": "contract IUniswapV3Factory",
          "name": "_factory",
          "type": "address"
        },
        {
          "internalType": "contract IQuoter",
          "name": "_quoter",
          "type": "address"
        },
        {
          "internalType": "contract IWETH9",
          "name": "_WETH",
          "type": "address"
        },
        {
          "internalType": "contract WETHExtended",
          "name": "_WETHExtended",
          "type": "address"
        },
        {
          "internalType": "contract ManagerUtils",
          "name": "_utils",
          "type": "address"
        },
        {
          "internalType": "contract IERC20",
          "name": "_KROM",
          "type": "address"
        },
        {
          "internalType": "contract IERC721",
          "name": "_OPAccessToken",
          "type": "address"
        },
        {
          "internalType": "address",
          "name": "_feeAddress",
          "type": "address"
        },
        {
          "internalType": "uint256",
          "name": "_gasUsageMonitor",
          "type": "uint256"
        },
        {
          "internalType": "uint32",
          "name": "_protocolFee",
          "type": "uint32"
        },
        {
          "internalType": "uint32",
          "name": "_protocolFeeDiscount",
          "type": "uint32"
        }
      ],
      "name": "initialize",
      "outputs": [],
      "stateMutability": "nonpayable",
      "type": "function"
    },
    {
      "inputs": [
        {
          "components": [
            {
              "internalType": "address",
              "name": "_token0",
              "type": "address"
            },
            {
              "internalType": "address",
              "name": "_token1",
              "type": "address"
            },
            {
              "internalType": "uint24",
              "name": "_fee",
              "type": "uint24"
            },
            {
              "internalType": "uint160",
              "name": "_sqrtPriceX96",
              "type": "uint160"
            },
            {
              "internalType": "uint128",
              "name": "_amount0",
              "type": "uint128"
            },
            {
              "internalType": "uint128",
              "name": "_amount1",
              "type": "uint128"
            }
          ],
          "internalType": "struct IOrderManager.LimitOrderParams",
          "name": "params",
          "type": "tuple"
        }
      ],
      "name": "placeLimitOrder",
      "outputs": [
        {
          "internalType": "uint256",
          "name": "_tokenId",
          "type": "uint256"
        }
      ],
      "stateMutability": "payable",
      "type": "function"
    },
    {
      "inputs": [
        {
          "internalType": "bool",
          "name": "_whitelistingEnabled",
          "type": "bool"
        }
      ],
      "name": "toggleWhitelisting",
      "outputs": [],
      "stateMutability": "nonpayable",
      "type": "function"
    },
    {
      "inputs": [
        {
          "internalType": "uint256",
          "name": "_targetGasPrice",
          "type": "uint256"
        },
        {
          "internalType": "uint256",
          "name": "_noOrders",
          "type": "uint256"
        },
        {
          "internalType": "address",
          "name": "_owner",
          "type": "address"
        }
      ],
      "name": "estimateServiceFee",
      "outputs": [
        {
          "internalType": "uint256",
          "name": "_serviceFee",
          "type": "uint256"
        },
        {
          "internalType": "uint256",
          "name": "_monitorFee",
          "type": "uint256"
        }
      ],
      "stateMutability": "nonpayable",
      "type": "function"
    }
  ],
  "bytecode": "0x608060405234801561001057600080fd5b50615b1d80620000216000396000f3fe60806040526004361061036f5760003560e01c80636c0360eb116101c6578063b8c48a28116100f7578063da76bb9d11610095578063f4d1b80b1161006f578063f4d1b80b146109cc578063f55ce8f6146109ec578063f77c479114610a0c578063ff7bf2f214610a2157610376565b8063da76bb9d14610967578063e985e9c514610997578063ea02c9da146109b757610376565b8063c803206f116100d1578063c803206f146108e4578063c87b56dd146108f9578063ceeb857b14610919578063d34879971461094757610376565b8063b8c48a281461089a578063c45a0155146108ba578063c6bbd5a7146108cf57610376565b8063a5cdc8fc11610164578063ac9650d81161013e578063ac9650d814610830578063ad5c464814610850578063b0e21e8a14610865578063b88d4fde1461087a57610376565b8063a5cdc8fc146107ab578063a85c38ef146107d9578063aa9f76281461081057610376565b806381edaae4116101a057806381edaae41461074157806395d89b4114610761578063a0edcef514610776578063a22cb4651461078b57610376565b80636c0360eb146106f957806370a082311461070e57806376b42a431461072e57610376565b8063347cdbae116102a057806344a587811161023e5780635d5d4613116102185780635d5d4613146106795780636082adf8146106995780636352211e146106b957806363b622eb146106d957610376565b806344a58781146106245780634f6ccce7146106445780635a29638d1461066457610376565b80633cebb8231161027a5780633cebb823146105af57806341275358146105cf57806342842e0e146105e457806342966c681461060457610376565b8063347cdbae1461054b5780633697f055146105605780633b0c25ad1461058057610376565b80630e8e903c1161030d57806323b872dd116102e757806323b872dd146104cb5780632c368034146104eb5780632f745c591461050b578063305f71de1461052b57610376565b80630e8e903c1461047457806318160ddd1461049457806318460df7146104a957610376565b806306fdde031161034957806306fdde03146103f0578063081812fc146104125780630930c4731461043f578063095ea7b31461045457610376565b806301ffc9a714610378578063049f2d8a146103ae57806306925d78146103db57610376565b3661037657005b005b34801561038457600080fd5b50610398610393366004614dfc565b610a41565b6040516103a59190615548565b60405180910390f35b3480156103ba57600080fd5b506103ce6103c9366004614bd5565b610a64565b6040516103a59190615588565b3480156103e757600080fd5b506103ce610a76565b3480156103fc57600080fd5b50610405610a7c565b6040516103a59190615651565b34801561041e57600080fd5b5061043261042d36600461521c565b610b12565b6040516103a591906153ca565b34801561044b57600080fd5b506103ce610b74565b34801561046057600080fd5b5061037661046f366004614d59565b610b7a565b34801561048057600080fd5b506103ce61048f36600461521c565b610c50565b3480156104a057600080fd5b506103ce610cf5565b3480156104b557600080fd5b506104be610d06565b6040516103a59190615760565b3480156104d757600080fd5b506103766104e6366004614c45565b610d19565b3480156104f757600080fd5b50610376610506366004614d84565b610d70565b34801561051757600080fd5b506103ce610526366004614d59565b610d8e565b34801561053757600080fd5b50610376610546366004614e24565b610db7565b34801561055757600080fd5b506103ce610f61565b34801561056c57600080fd5b5061037661057b36600461521c565b610f67565b34801561058c57600080fd5b506105a061059b36600461524c565b610ff2565b6040516103a593929190615553565b3480156105bb57600080fd5b506103766105ca366004614bd5565b6111a0565b3480156105db57600080fd5b506104326111ca565b3480156105f057600080fd5b506103766105ff366004614c45565b6111d9565b34801561061057600080fd5b5061037661061f36600461521c565b6111f4565b34801561063057600080fd5b5061043261063f36600461521c565b611284565b34801561065057600080fd5b506103ce61065f36600461521c565b6112ae565b34801561067057600080fd5b506104326112c4565b34801561068557600080fd5b5061037661069436600461521c565b6112d3565b3480156106a557600080fd5b506103766106b4366004614dc4565b61135e565b3480156106c557600080fd5b506104326106d436600461521c565b611384565b3480156106e557600080fd5b506103766106f4366004614ed2565b6113ac565b34801561070557600080fd5b506104056114b2565b34801561071a57600080fd5b506103ce610729366004614bd5565b611513565b6103ce61073c366004615071565b61157b565b34801561074d57600080fd5b506103ce61075c366004614d59565b61158e565b34801561076d57600080fd5b506104056115b3565b34801561078257600080fd5b506103ce611614565b34801561079757600080fd5b506103766107a6366004614d2c565b61161b565b3480156107b757600080fd5b506107cb6107c636600461521c565b611720565b6040516103a5929190615752565b3480156107e557600080fd5b506107f96107f436600461521c565b611933565b6040516103a59b9a99989796959493929190615476565b34801561081c57600080fd5b5061037661082b366004615374565b611bd8565b61084361083e366004614d84565b611c38565b6040516103a591906154e8565b34801561085c57600080fd5b50610432611d78565b34801561087157600080fd5b506104be611d87565b34801561088657600080fd5b50610376610895366004614c85565b611d9a565b3480156108a657600080fd5b506103766108b5366004614bd5565b611df8565b3480156108c657600080fd5b50610432611e52565b3480156108db57600080fd5b50610432611e61565b3480156108f057600080fd5b50610432611e70565b34801561090557600080fd5b5061040561091436600461521c565b611e7f565b34801561092557600080fd5b50610939610934366004615343565b612100565b6040516103a59291906156e5565b34801561095357600080fd5b506103766109623660046152c8565b61232a565b34801561097357600080fd5b50610987610982366004614d59565b61238a565b6040516103a5949392919061556b565b3480156109a357600080fd5b506103986109b2366004614c0d565b612416565b3480156109c357600080fd5b50610432612444565b3480156109d857600080fd5b506107cb6109e7366004615290565b612453565b3480156109f857600080fd5b506103ce610a07366004614bd5565b612550565b348015610a1857600080fd5b50610432612562565b348015610a2d57600080fd5b50610376610a3c36600461521c565b612571565b6001600160e01b0319811660009081526033602052604090205460ff165b919050565b60976020526000908152604090205481565b60a35481565b606a8054604080516020601f6002600019610100600188161502019095169490940493840181900481028201810190925282815260609390929091830182828015610b085780601f10610add57610100808354040283529160200191610b08565b820191906000526020600020905b815481529060010190602001808311610aeb57829003601f168201915b5050505050905090565b6000610b1d8261257e565b610b585760405162461bcd60e51b815260040180806020018281038252602c815260200180615a12602c913960400191505060405180910390fd5b506000908152606860205260409020546001600160a01b031690565b609b5490565b6000610b8582611384565b9050806001600160a01b0316836001600160a01b03161415610bd85760405162461bcd60e51b8152600401808060200182810382526021815260200180615a966021913960400191505060405180910390fd5b806001600160a01b0316610bea61258b565b6001600160a01b03161480610c065750610c06816109b261258b565b610c415760405162461bcd60e51b81526004018080602001828103825260388152602001806159166038913960400191505060405180910390fd5b610c4b838361258f565b505050565b609e54609f5460a054609c5460a154604051634de586c560e11b81526000956001600160a01b0390811695639bcb0d8a95610c9d9591831694908316939183169216908990600401615591565b602060405180830381600087803b158015610cb757600080fd5b505af1158015610ccb573d6000803e3d6000fd5b505050506040513d601f19601f82011682018060405250810190610cef9190615234565b92915050565b6000610d0160666125fd565b905090565b60a654600160a01b900463ffffffff1681565b610d2a610d2461258b565b82612608565b610d655760405162461bcd60e51b8152600401808060200182810382526031815260200180615ab76031913960400191505060405180910390fd5b610c4b8383836126ac565b610d786127f8565b80610d8257600080fd5b610c4b609b8383614a2a565b6001600160a01b0382166000908152606560205260408120610db09083612811565b9392505050565b600054610100900460ff1680610dd05750610dd061281d565b80610dde575060005460ff16155b610e195760405162461bcd60e51b815260040180806020018281038252602e8152602001806159a1602e913960400191505060405180910390fd5b600054610100900460ff16158015610e44576000805460ff1961ff0019909116610100171660011790555b609f80546001600160a01b03199081166001600160a01b038d811691909117909255609e80548216898416179055609c805482168b841617905560a18054821688841617905560a0805482168c8416179055609d805482168a841617905560a385905560a5805460a2805484169489169490941790935563ffffffff60b01b19909216600160b01b63ffffffff861602176001600160b01b031916600117909155609a8054339216919091179055604080518082018252601281527125b937b6b0ba34b5b0902837b9b4ba34b7b760711b602080830191909152825180840190935260088352674b524f4d2d504f5360c01b90830152610f439161282e565b8015610f55576000805461ff00191690555b50505050505050505050565b60a45481565b33600090815260976020526040902054610f8181836128eb565b33600081815260976020526040902082905560a154919250610fad916001600160a01b03169084612948565b336001600160a01b03167f4cd5d77630469c8bf31f4f713e8d3486394a520a59fb307e64509ff32008683583604051610fe69190615588565b60405180910390a25050565b6000828152609960205260408120819081908161100e87611384565b905061101a818761238a565b92975095509093505084156110325760009450611197565b609e5482546001840154600280860154604051634d42fd3d60e11b815260009586956001600160a01b0391821695639a85fa7a95611097959290931693600160a01b8204840b93600160b81b90920490910b916001600160801b0316906004016155c4565b604080518083038186803b1580156110ae57600080fd5b505afa1580156110c2573d6000803e3d6000fd5b505050506040513d601f19601f820116820180604052508101906110e6919061526d565b600786015491935091506001600160801b03161580156111065750600082115b801561112557506007840154600160801b90046001600160801b031615155b801561112f575080155b1561113d5760019650611194565b60078401546001600160801b031615801590611157575081155b801561117557506007840154600160801b90046001600160801b0316155b80156111815750600081115b1561118f5760019650611194565b600096505b50505b50509250925092565b6111a86127f8565b609a80546001600160a01b0319166001600160a01b0392909216919091179055565b60a2546001600160a01b031681565b610c4b83838360405180602001604052806000815250611d9a565b6111fd81612a8f565b60008181526099602052604090206004015461121857600080fd5b600081815260996020526040812080546001600160a01b03191681556001810180546001600160d01b03191690556002810180546001600160801b0319169055600381018290556004810182905560058101829055600681018290556007015561128181612aa2565b50565b609b818154811061129457600080fd5b6000918252602090912001546001600160a01b0316905081565b6000806112bc606684612b6f565b509392505050565b609e546001600160a01b031681565b336000908152609760205260409020546112ed9082612b8d565b3360008181526097602052604090209190915560a15461131a916001600160a01b03909116903084612be7565b336001600160a01b03167ffce6a155d7233f80f26eec018cf7551e8304d9946961c088af41a31debffc270826040516113539190615588565b60405180910390a250565b6113666127f8565b60a58054911515600160d01b0260ff60d01b19909216919091179055565b6000610cef826040518060600160405280602981526020016159786029913960669190612d3f565b600054610100900460ff16806113c557506113c561281d565b806113d3575060005460ff16155b61140e5760405162461bcd60e51b815260040180806020018281038252602e8152602001806159a1602e913960400191505060405180910390fd5b600054610100900460ff16158015611439576000805460ff1961ff0019909116610100171660011790555b60a58054600160d01b60ff60d01b1990911617905560a680546001600160a01b0319166001600160a01b0388161763ffffffff60a01b1916600160a01b63ffffffff8516021790556114928c8c8c8c8c8c8b8b8b610db7565b80156114a4576000805461ff00191690555b505050505050505050505050565b606d8054604080516020601f6002600019610100600188161502019095169490940493840181900481028201810190925282815260609390929091830182828015610b085780601f10610add57610100808354040283529160200191610b08565b60006001600160a01b03821661155a5760405162461bcd60e51b815260040180806020018281038252602a81526020018061594e602a913960400191505060405180910390fd5b6001600160a01b0382166000908152606560205260409020610cef906125fd565b6000611585612d4c565b610cef82612e03565b6001600160a01b0382166000908152609860205260408120546112bc90839085612453565b606b8054604080516020601f6002600019610100600188161502019095169490940493840181900481028201810190925282815260609390929091830182828015610b085780601f10610add57610100808354040283529160200191610b08565b620186a081565b61162361258b565b6001600160a01b0316826001600160a01b03161415611689576040805162461bcd60e51b815260206004820152601960248201527f4552433732313a20617070726f766520746f2063616c6c657200000000000000604482015290519081900360640190fd5b806069600061169661258b565b6001600160a01b03908116825260208083019390935260409182016000908120918716808252919093529120805460ff1916921515929092179091556116da61258b565b6001600160a01b03167f17307eab39ab6107e8899845ad3d59bd9653f200f220920489ca2b5937696c318360405180821515815260200191505060405180910390a35050565b60008061172c83612a8f565b600083815260996020526040902060048101541561174957600080fd5b8054600182015460028084015460058501546006860154611793956001600160a01b031694600160a01b8104850b94600160b81b909104900b926001600160801b03169190613470565b336000908152609860205260409020546001600160801b039283169550911692506117bf9060016128eb565b336000908152609860205260409020556117d884612aa2565b6001810154604051636c2caab960e11b81526001600160a01b039091169063d85955729061180a908790600401615588565b600060405180830381600087803b15801561182457600080fd5b505af1158015611838573d6000803e3d6000fd5b505082546001840154600785015461188b94508893506001600160a01b0390921691600160a01b8204600290810b92600160b81b9004900b906001600160801b0380821691600160801b900416336135ec565b505060008481526099602052604080822080546001600160a01b03191681556001810180546001600160d01b03191690556002810180546001600160801b0319169055600381018390556004810183905560058101839055600681018390556007019190915551849033907f1147e88895ceaf9b04a04aaf8a71d2ef82462489201d75b2f978fdaeaa2086c7906119259087908790615752565b60405180910390a350915091565b600081815260996020908152604080832081516101608101835281546001600160a01b03908116808352600184015491821695830195909552600160a01b8104600290810b810b810b94830194909452600160b81b9004830b830b830b6060820152918101546001600160801b039081166080840152600382015460a0840152600482015460c0840152600582015460e08401526006820154610100840152600790910154808216610120840152600160801b900416610140820152829182918291829182918291829182918291829190611a0d57600080fd5b611a168d611384565b81600001516001600160a01b0316630dfe16816040518163ffffffff1660e01b815260040160206040518083038186803b158015611a5357600080fd5b505afa158015611a67573d6000803e3d6000fd5b505050506040513d601f19601f82011682018060405250810190611a8b9190614bf1565b82600001516001600160a01b031663d21220a76040518163ffffffff1660e01b815260040160206040518083038186803b158015611ac857600080fd5b505afa158015611adc573d6000803e3d6000fd5b505050506040513d601f19601f82011682018060405250810190611b009190614bf1565b83600001516001600160a01b031663ddca3f436040518163ffffffff1660e01b815260040160206040518083038186803b158015611b3d57600080fd5b505afa158015611b51573d6000803e3d6000fd5b505050506040513d601f19601f82011682018060405250810190611b759190615200565b8460400151856060015186608001518760a001518860c001518961012001518a6101400151816001600160801b03169150806001600160801b031690509b509b509b509b509b509b509b509b509b509b509b505091939597999b90929496989a50565b611be06127f8565b620186a08163ffffffff161115611c125760405162461bcd60e51b8152600401611c0990615680565b60405180910390fd5b60a5805463ffffffff909216600160b01b0263ffffffff60b01b19909216919091179055565b60608167ffffffffffffffff81118015611c5157600080fd5b50604051908082528060200260200182016040528015611c8557816020015b6060815260200190600190039081611c705790505b50905060005b82811015611d715760008030868685818110611ca357fe5b9050602002810190611cb59190615771565b604051611cc39291906153ba565b600060405180830381855af49150503d8060008114611cfe576040519150601f19603f3d011682016040523d82523d6000602084013e611d03565b606091505b509150915081611d4f57604481511015611d1c57600080fd5b60048101905080806020019051810190611d369190614ffe565b60405162461bcd60e51b8152600401611c099190615651565b80848481518110611d5c57fe5b60209081029190910101525050600101611c8b565b5092915050565b609c546001600160a01b031681565b60a554600160b01b900463ffffffff1681565b611dab611da561258b565b83612608565b611de65760405162461bcd60e51b8152600401808060200182810382526031815260200180615ab76031913960400191505060405180910390fd5b611df2848484846137e1565b50505050565b611e006127f8565b609b80546001810182556000919091527fbba9db4cdbea0a37c207bbb83e20f828cd4441c49891101dc94fd20dc8efc3490180546001600160a01b0319166001600160a01b0392909216919091179055565b609f546001600160a01b031681565b60a0546001600160a01b031681565b60a1546001600160a01b031681565b6060611e8a8261257e565b611ec55760405162461bcd60e51b815260040180806020018281038252602f815260200180615a67602f913960400191505060405180910390fd5b6000828152606c602090815260408083208054825160026001831615610100026000190190921691909104601f810185900485028201850190935282815292909190830182828015611f585780601f10611f2d57610100808354040283529160200191611f58565b820191906000526020600020905b815481529060010190602001808311611f3b57829003601f168201915b505050505090506000611f696114b2565b9050805160001415611f7d57509050610a5f565b81511561203e5780826040516020018083805190602001908083835b60208310611fb85780518252601f199092019160209182019101611f99565b51815160209384036101000a600019018019909216911617905285519190930192850191508083835b602083106120005780518252601f199092019160209182019101611fe1565b6001836020036101000a0380198251168184511680821785525050505050509050019250505060405160208183030381529060405292505050610a5f565b8061204885613833565b6040516020018083805190602001908083835b6020831061207a5780518252601f19909201916020918201910161205b565b51815160209384036101000a600019018019909216911617905285519190930192850191508083835b602083106120c25780518252601f1990920191602091820191016120a3565b6001836020036101000a0380198251168184511680821785525050505050509050019250505060405160208183030381529060405292505050919050565b600084815260996020526040812060018101548291906001600160a01b0316331461212a57600080fd5b60048101541561213957600080fd5b8054600182015460028084015460058501546006860154612183956001600160a01b031694600160a01b8104850b94600160b81b909104900b926001600160801b03169190613470565b909350915061219061390e565b60048201556007810180546001600160801b03848116600160801b028187166001600160801b03199384161790911617909155600282018054909116905560006121d988611384565b6001600160a01b0381166000908152609760205260408120549192506121ff88886128eb565b905061220b82896128eb565b6001600160a01b0384166000908152609760209081526040808320849055609890915290205490925061223f9060016128eb565b6001600160a01b038085166000908152609860205260409020919091558454600186015460078701546122a2938e931691600160a01b8104600290810b92600160b81b909204900b906001600160801b0380821691600160801b900416896135ec565b505060a1546122bb906001600160a01b03168833613912565b60a15460a2546122d9916001600160a01b0390811691849116613912565b89336001600160a01b03167fdbe3d70821f7e0affd20223cf7daec47aa9bbe0c757a0d0f9aeaba0be13ea8258b8b604051612315929190615752565b60405180910390a35050505094509492505050565b600061233882840184615088565b609f548151919250612355916001600160a01b0390911690613a30565b50805151602082015161236b9133918890613a53565b61238333826000015160200151868460200151613a53565b5050505050565b60008080808415612408576123a185600188612453565b6001600160a01b038816600090815260986020526040812054929450909250906123cc908490613b6e565b6001600160a01b0388166000908152609760205260409020549091508082111561240157600195506123fe82826128eb565b94505b505061240d565b600193505b92959194509250565b6001600160a01b03918216600090815260696020908152604080832093909416825291909152205460ff1690565b609d546001600160a01b031681565b600080612461858585613bc7565b60a6546040516370a0823160e01b81529294509092506000916001600160a01b03909116906370a082319061249a9087906004016153ca565b60206040518083038186803b1580156124b257600080fd5b505afa1580156124c6573d6000803e3d6000fd5b505050506040513d601f19601f820116820180604052508101906124ea9190615234565b11156125485760006124fc83836128eb565b60a65490915061253890620186a0906125329061252b90839063ffffffff600160a01b9091048116906128eb16565b8490613b6e565b90613c25565b90506125448282612b8d565b9250505b935093915050565b60986020526000908152604090205481565b609a546001600160a01b031681565b6125796127f8565b60a355565b6000610cef606683613c8c565b3390565b600081815260686020526040902080546001600160a01b0319166001600160a01b03841690811790915581906125c482611384565b6001600160a01b03167f8c5be1e5ebec7d5bd14f71427d1e84f3dd0314c0f7b2291e5b200ac8c7c3b92560405160405180910390a45050565b6000610cef82613c98565b60006126138261257e565b61264e5760405162461bcd60e51b815260040180806020018281038252602c8152602001806158ea602c913960400191505060405180910390fd5b600061265983611384565b9050806001600160a01b0316846001600160a01b031614806126945750836001600160a01b031661268984610b12565b6001600160a01b0316145b806126a457506126a48185612416565b949350505050565b826001600160a01b03166126bf82611384565b6001600160a01b0316146127045760405162461bcd60e51b8152600401808060200182810382526029815260200180615a3e6029913960400191505060405180910390fd5b6001600160a01b0382166127495760405162461bcd60e51b81526004018080602001828103825260248152602001806158c66024913960400191505060405180910390fd5b612754838383610c4b565b61275f60008261258f565b6001600160a01b03831660009081526065602052604090206127819082613c9c565b506001600160a01b03821660009081526065602052604090206127a49082613ca8565b506127b160668284613cb4565b5080826001600160a01b0316846001600160a01b03167fddf252ad1be2c89b69c2b068fc378daa952ba7f163c4a11628f55a4df523b3ef60405160405180910390a4505050565b609a546001600160a01b0316331461280f57600080fd5b565b6000610db08383613cca565b600061282830613d2e565b15905090565b600054610100900460ff1680612847575061284761281d565b80612855575060005460ff16155b6128905760405162461bcd60e51b815260040180806020018281038252602e8152602001806159a1602e913960400191505060405180910390fd5b600054610100900460ff161580156128bb576000805460ff1961ff0019909116610100171660011790555b6128c3613d34565b6128cb613dd5565b6128d58383613e72565b8015610c4b576000805461ff0019169055505050565b600082821115612942576040805162461bcd60e51b815260206004820152601e60248201527f536166654d6174683a207375627472616374696f6e206f766572666c6f770000604482015290519081900360640190fd5b50900390565b604080516001600160a01b038481166024830152604480830185905283518084039091018152606490920183526020820180516001600160e01b031663a9059cbb60e01b1781529251825160009485949389169392918291908083835b602083106129c45780518252601f1990920191602091820191016129a5565b6001836020036101000a0380198251168184511680821785525050505050509050019150506000604051808303816000865af19150503d8060008114612a26576040519150601f19603f3d011682016040523d82523d6000602084013e612a2b565b606091505b5091509150818015612a59575080511580612a595750808060200190516020811015612a5657600080fd5b50515b612383576040805162461bcd60e51b815260206004820152600260248201526114d560f21b604482015290519081900360640190fd5b612a993382612608565b61128157600080fd5b6000612aad82611384565b9050612abb81600084610c4b565b612ac660008361258f565b6000828152606c60205260409020546002600019610100600184161502019091160415612b04576000828152606c60205260408120612b0491614a8d565b6001600160a01b0381166000908152606560205260409020612b269083613c9c565b50612b32606683613f57565b5060405182906000906001600160a01b038416907fddf252ad1be2c89b69c2b068fc378daa952ba7f163c4a11628f55a4df523b3ef908390a45050565b6000808080612b7e8686613f63565b909450925050505b9250929050565b600082820183811015610db0576040805162461bcd60e51b815260206004820152601b60248201527f536166654d6174683a206164646974696f6e206f766572666c6f770000000000604482015290519081900360640190fd5b604080516001600160a01b0385811660248301528481166044830152606480830185905283518084039091018152608490920183526020820180516001600160e01b03166323b872dd60e01b178152925182516000948594938a169392918291908083835b60208310612c6b5780518252601f199092019160209182019101612c4c565b6001836020036101000a0380198251168184511680821785525050505050509050019150506000604051808303816000865af19150503d8060008114612ccd576040519150601f19603f3d011682016040523d82523d6000602084013e612cd2565b606091505b5091509150818015612d00575080511580612d005750808060200190516020811015612cfd57600080fd5b50515b612d37576040805162461bcd60e51b815260206004820152600360248201526229aa2360e91b604482015290519081900360640190fd5b505050505050565b60006126a4848484613fde565b60a554600160d01b900460ff16612d64576001612de7565b60a6546040516370a0823160e01b81526000916001600160a01b0316906370a0823190612d959033906004016153ca565b60206040518083038186803b158015612dad57600080fd5b505afa158015612dc1573d6000803e3d6000fd5b505050506040513d601f19601f82011682018060405250810190612de59190615234565b115b61280f5760405162461bcd60e51b8152600401611c0990615664565b6000612e156040830160208401614bd5565b6001600160a01b0316612e2b6020840184614bd5565b6001600160a01b031610612e3e57600080fd5b6000806000806000806040518060600160405280896000016020810190612e659190614bd5565b6001600160a01b03168152602001896020016020810190612e869190614bd5565b6001600160a01b03168152602001612ea460608b0160408c016151e4565b62ffffff169052609f54909150600090612ec7906001600160a01b0316836140a8565b90506001600160a01b038116612edc57600080fd5b609e5490925082906001600160a01b0316635d58518982612f0360808d0160608e01614bd5565b612f1360a08e0160808f01615139565b8d60a0016020810190612f269190615139565b6040518563ffffffff1660e01b8152600401612f4594939291906155f7565b60806040518083038186803b158015612f5d57600080fd5b505afa158015612f71573d6000803e3d6000fd5b505050506040513d601f19601f82011682018060405250810190612f959190614fa6565b809750819850829950839a5050505050826001600160a01b0316633c8a7d8d308989896040518060400160405280898152602001336001600160a01b0316815250604051602001612fe691906156a5565b6040516020818303038152906040526040518663ffffffff1660e01b81526004016130159594939291906153de565b6040805180830381600087803b15801561302e57600080fd5b505af1158015613042573d6000803e3d6000fd5b505050506040513d601f19601f82011682018060405250810190613066919061526d565b505060a580546001600160b01b0319811660016001600160b01b0392831690810190921617909155975061309a338961418c565b336000908152609860205260409020546130b5906001612b8d565b336000908152609860205260408120919091556130d06142ba565b9050600080856001600160a01b031663514ea4bf6130ef308d8d61431b565b6040518263ffffffff1660e01b815260040161310b9190615588565b60a06040518083038186803b15801561312357600080fd5b505afa158015613137573d6000803e3d6000fd5b505050506040513d601f19601f8201168201806040525081019061315b9190615183565b505092509250506000604051806101600160405280886001600160a01b03168152602001856001600160a01b031681526020018c60020b81526020018b60020b81526020018a6001600160801b031681526020016131b761390e565b8152602001600081526020018481526020018381526020018e60800160208101906131e29190615139565b6001600160801b031681526020018e60a00160208101906132039190615139565b6001600160801b0316815250905080609960008e815260200190815260200160002060008201518160000160006101000a8154816001600160a01b0302191690836001600160a01b0316021790555060208201518160010160006101000a8154816001600160a01b0302191690836001600160a01b0316021790555060408201518160010160146101000a81548162ffffff021916908360020b62ffffff16021790555060608201518160010160176101000a81548162ffffff021916908360020b62ffffff16021790555060808201518160020160006101000a8154816001600160801b0302191690836001600160801b0316021790555060a0820151816003015560c0820151816004015560e0820151816005015561010082015181600601556101208201518160070160006101000a8154816001600160801b0302191690836001600160801b031602179055506101408201518160070160106101000a8154816001600160801b0302191690836001600160801b03160217905550905050836001600160a01b031663b53e76608d6040518263ffffffff1660e01b81526004016133b09190615588565b600060405180830381600087803b1580156133ca57600080fd5b505af11580156133de573d6000803e3d6000fd5b505050505050505087336001600160a01b03167f35dbe7d22004f5507912c2b6df8d8323979b17bbbd19a98f08dbdb5be263ec62868c60600160208101906134269190614bd5565b8d60800160208101906134399190615139565b8e60a001602081019061344c9190615139565b60405161345c94939291906156ff565b60405180910390a350505050505050919050565b6000806001600160801b038516156135e157600080896001600160a01b031663a34123a78a8a8a6040518463ffffffff1660e01b81526004016134b59392919061562b565b6040805180830381600087803b1580156134ce57600080fd5b505af11580156134e2573d6000803e3d6000fd5b505050506040513d601f19601f82011682018060405250810190613506919061526d565b915091506000613517308b8b61431b565b90506000808c6001600160a01b031663514ea4bf846040518263ffffffff1660e01b81526004016135489190615588565b60a06040518083038186803b15801561356057600080fd5b505afa158015613574573d6000803e3d6000fd5b505050506040513d601f19601f820116820180604052508101906135989190615183565b505092509250506135b98983038b6001600160801b0316600160801b614371565b850196506135d78882038b6001600160801b0316600160801b614371565b8401955050505050505b965096945050505050565b600080876001600160a01b0316634f1eb3d830898989896040518663ffffffff1660e01b8152600401613623959493929190615420565b6040805180830381600087803b15801561363c57600080fd5b505af1158015613650573d6000803e3d6000fd5b505050506040513d601f19601f820116820180604052508101906136749190615155565b6001600160801b039182169350169050811515806136925750600081115b61369b57600080fd5b613716886001600160a01b0316630dfe16816040518163ffffffff1660e01b815260040160206040518083038186803b1580156136d757600080fd5b505afa1580156136eb573d6000803e3d6000fd5b505050506040513d601f19601f8201168201806040525081019061370f9190614bf1565b8385613912565b613791886001600160a01b031663d21220a76040518163ffffffff1660e01b815260040160206040518083038186803b15801561375257600080fd5b505afa158015613766573d6000803e3d6000fd5b505050506040513d601f19601f8201168201806040525081019061378a9190614bf1565b8285613912565b88836001600160a01b03167f937f0b0e6288ece3fc09c99d3de95684fbcb8519d8772c74358e5d23a0a4d8a184846040516137cd929190615752565b60405180910390a397509795505050505050565b6137ec8484846126ac565b6137f884848484614420565b611df25760405162461bcd60e51b81526004018080602001828103825260328152602001806158946032913960400191505060405180910390fd5b60608161385857506040805180820190915260018152600360fc1b6020820152610a5f565b8160005b811561387057600101600a8204915061385c565b60008167ffffffffffffffff8111801561388957600080fd5b506040519080825280601f01601f1916602001820160405280156138b4576020820181803683370190505b50859350905060001982015b831561390557600a840660300160f81b828280600190039350815181106138e357fe5b60200101906001600160f81b031916908160001a905350600a840493506138c0565b50949350505050565b4390565b8115610c4b57609c546001600160a01b0384811691161415613a2557609c54609d5460405163a9059cbb60e01b81526001600160a01b039283169263a9059cbb9261396492911690869060040161545d565b602060405180830381600087803b15801561397e57600080fd5b505af1158015613992573d6000803e3d6000fd5b505050506040513d601f19601f820116820180604052508101906139b69190614de0565b50609d54609c54604051632d182be560e21b81526001600160a01b039283169263b460af94926139ee92879287921690600401615733565b600060405180830381600087803b158015613a0857600080fd5b505af1158015613a1c573d6000803e3d6000fd5b50505050610c4b565b610c4b838284612948565b6000613a3c83836140a8565b9050336001600160a01b03821614610cef57600080fd5b8115611df257609c546001600160a01b0384811691161415613b6257609c60009054906101000a90046001600160a01b03166001600160a01b031663d0e30db0836040518263ffffffff1660e01b81526004016000604051808303818588803b158015613abf57600080fd5b505af1158015613ad3573d6000803e3d6000fd5b5050609c5460405163a9059cbb60e01b81526001600160a01b03909116935063a9059cbb9250613b0a91508790869060040161545d565b602060405180830381600087803b158015613b2457600080fd5b505af1158015613b38573d6000803e3d6000fd5b505050506040513d601f19601f82011682018060405250810190613b5c9190614de0565b50611df2565b611df283828685612be7565b600082613b7d57506000610cef565b82820282848281613b8a57fe5b0414610db05760405162461bcd60e51b81526004018080602001828103825260218152602001806159f16021913960400191505060405180910390fd5b600080613bec61048f85613be68860a354613b6e90919063ffffffff16565b90613b6e565b60a554909150613c1b90620186a0906125329061252b90839063ffffffff600160b01b909104811690612b8d16565b9150935093915050565b6000808211613c7b576040805162461bcd60e51b815260206004820152601a60248201527f536166654d6174683a206469766973696f6e206279207a65726f000000000000604482015290519081900360640190fd5b818381613c8457fe5b049392505050565b6000610db08383614588565b5490565b6000610db083836145a0565b6000610db08383614666565b60006126a484846001600160a01b0385166146b0565b81546000908210613d0c5760405162461bcd60e51b81526004018080602001828103825260228152602001806158726022913960400191505060405180910390fd5b826000018281548110613d1b57fe5b9060005260206000200154905092915050565b3b151590565b600054610100900460ff1680613d4d5750613d4d61281d565b80613d5b575060005460ff16155b613d965760405162461bcd60e51b815260040180806020018281038252602e8152602001806159a1602e913960400191505060405180910390fd5b600054610100900460ff16158015613dc1576000805460ff1961ff0019909116610100171660011790555b8015611281576000805461ff001916905550565b600054610100900460ff1680613dee5750613dee61281d565b80613dfc575060005460ff16155b613e375760405162461bcd60e51b815260040180806020018281038252602e8152602001806159a1602e913960400191505060405180910390fd5b600054610100900460ff16158015613e62576000805460ff1961ff0019909116610100171660011790555b613dc16301ffc9a760e01b614747565b600054610100900460ff1680613e8b5750613e8b61281d565b80613e99575060005460ff16155b613ed45760405162461bcd60e51b815260040180806020018281038252602e8152602001806159a1602e913960400191505060405180910390fd5b600054610100900460ff16158015613eff576000805460ff1961ff0019909116610100171660011790555b8251613f1290606a906020860190614ad1565b508151613f2690606b906020850190614ad1565b50613f376380ac58cd60e01b614747565b613f47635b5e139f60e01b614747565b6128d563780e9d6360e01b614747565b6000610db083836147cb565b815460009081908310613fa75760405162461bcd60e51b81526004018080602001828103825260228152602001806159cf6022913960400191505060405180910390fd5b6000846000018481548110613fb857fe5b906000526020600020906002020190508060000154816001015492509250509250929050565b600082815260018401602052604081205482816140795760405162461bcd60e51b81526004018080602001828103825283818151815260200191508051906020019080838360005b8381101561403e578181015183820152602001614026565b50505050905090810190601f16801561406b5780820380516001836020036101000a031916815260200191505b509250505060405180910390fd5b5084600001600182038154811061408c57fe5b9060005260206000209060020201600101549150509392505050565b600081602001516001600160a01b031682600001516001600160a01b0316106140d057600080fd5b50805160208083015160409384015184516001600160a01b0394851681850152939091168385015262ffffff166060808401919091528351808403820181526080840185528051908301206001600160f81b031960a085015294901b6bffffffffffffffffffffffff191660a183015260b58201939093527fe34f199b19b2b4f47f68442619d555527d244f78a3297ea89325f843f87b8b5460d5808301919091528251808303909101815260f5909101909152805191012090565b6001600160a01b0382166141e7576040805162461bcd60e51b815260206004820181905260248201527f4552433732313a206d696e7420746f20746865207a65726f2061646472657373604482015290519081900360640190fd5b6141f08161257e565b15614242576040805162461bcd60e51b815260206004820152601c60248201527f4552433732313a20746f6b656e20616c7265616479206d696e74656400000000604482015290519081900360640190fd5b61424e60008383610c4b565b6001600160a01b03821660009081526065602052604090206142709082613ca8565b5061427d60668284613cb4565b5060405181906001600160a01b038416906000907fddf252ad1be2c89b69c2b068fc378daa952ba7f163c4a11628f55a4df523b3ef908290a45050565b609b54600090806142ca57600080fd5b60008160a454146142dd5760a4546142e0565b60005b9050609b81815481106142ef57fe5b6000918252602090912001546001600160a01b03169250614311816001612b8d565b60a4555090919050565b6040805160609490941b6bffffffffffffffffffffffff1916602080860191909152600293840b60e890811b60348701529290930b90911b60378401528051808403601a018152603a9093019052815191012090565b60008080600019858709868602925082811090839003039050806143a7576000841161439c57600080fd5b508290049050610db0565b8084116143b357600080fd5b6000848688096000868103871696879004966002600389028118808a02820302808a02820302808a02820302808a02820302808a02820302808a02909103029181900381900460010186841190950394909402919094039290920491909117919091029150509392505050565b6000614434846001600160a01b0316613d2e565b614440575060016126a4565b600061454e630a85bd0160e11b61445561258b565b88878760405160240180856001600160a01b03168152602001846001600160a01b0316815260200183815260200180602001828103825283818151815260200191508051906020019080838360005b838110156144bc5781810151838201526020016144a4565b50505050905090810190601f1680156144e95780820380516001836020036101000a031916815260200191505b5095505050505050604051602081830303815290604052906001600160e01b0319166020820180516001600160e01b038381831617835250505050604051806060016040528060328152602001615894603291396001600160a01b038816919061489f565b9050600081806020019051602081101561456757600080fd5b50516001600160e01b031916630a85bd0160e11b1492505050949350505050565b60009081526001919091016020526040902054151590565b6000818152600183016020526040812054801561465c57835460001980830191908101906000908790839081106145d357fe5b90600052602060002001549050808760000184815481106145f057fe5b60009182526020808320909101929092558281526001898101909252604090209084019055865487908061462057fe5b60019003818190600052602060002001600090559055866001016000878152602001908152602001600020600090556001945050505050610cef565b6000915050610cef565b60006146728383614588565b6146a857508154600181810184556000848152602080822090930184905584548482528286019093526040902091909155610cef565b506000610cef565b600082815260018401602052604081205480614715575050604080518082018252838152602080820184815286546001818101895560008981528481209551600290930290950191825591519082015586548684528188019092529290912055610db0565b8285600001600183038154811061472857fe5b9060005260206000209060020201600101819055506000915050610db0565b6001600160e01b031980821614156147a6576040805162461bcd60e51b815260206004820152601c60248201527f4552433136353a20696e76616c696420696e7465726661636520696400000000604482015290519081900360640190fd5b6001600160e01b0319166000908152603360205260409020805460ff19166001179055565b6000818152600183016020526040812054801561465c57835460001980830191908101906000908790839081106147fe57fe5b906000526020600020906002020190508087600001848154811061481e57fe5b60009182526020808320845460029093020191825560019384015491840191909155835482528983019052604090209084019055865487908061485d57fe5b6000828152602080822060026000199094019384020182815560019081018390559290935588815289820190925260408220919091559450610cef9350505050565b60606126a48484600085856148b385613d2e565b614904576040805162461bcd60e51b815260206004820152601d60248201527f416464726573733a2063616c6c20746f206e6f6e2d636f6e7472616374000000604482015290519081900360640190fd5b600080866001600160a01b031685876040518082805190602001908083835b602083106149425780518252601f199092019160209182019101614923565b6001836020036101000a03801982511681845116808217855250505050505090500191505060006040518083038185875af1925050503d80600081146149a4576040519150601f19603f3d011682016040523d82523d6000602084013e6149a9565b606091505b50915091506149b98282866149c4565b979650505050505050565b606083156149d3575081610db0565b8251156149e35782518084602001fd5b60405162461bcd60e51b815260206004820181815284516024840152845185939192839260440191908501908083836000831561403e578181015183820152602001614026565b828054828255906000526020600020908101928215614a7d579160200282015b82811115614a7d5781546001600160a01b0319166001600160a01b03843516178255602090920191600190910190614a4a565b50614a89929150614b4d565b5090565b50805460018160011615610100020316600290046000825580601f10614ab35750611281565b601f0160209004906000526020600020908101906112819190614b4d565b828054600181600116156101000203166002900490600052602060002090601f016020900481019282614b075760008555614a7d565b82601f10614b2057805160ff1916838001178555614a7d565b82800160010185558215614a7d579182015b82811115614a7d578251825591602001919060010190614b32565b5b80821115614a895760008155600101614b4e565b8035610a5f81615828565b60008083601f840112614b7e578182fd5b50813567ffffffffffffffff811115614b95578182fd5b6020830191508360208083028501011115612b8657600080fd5b8051600281900b8114610a5f57600080fd5b803563ffffffff81168114610a5f57600080fd5b600060208284031215614be6578081fd5b8135610db081615828565b600060208284031215614c02578081fd5b8151610db081615828565b60008060408385031215614c1f578081fd5b8235614c2a81615828565b91506020830135614c3a81615828565b809150509250929050565b600080600060608486031215614c59578081fd5b8335614c6481615828565b92506020840135614c7481615828565b929592945050506040919091013590565b60008060008060808587031215614c9a578182fd5b8435614ca581615828565b93506020850135614cb581615828565b925060408501359150606085013567ffffffffffffffff811115614cd7578182fd5b8501601f81018713614ce7578182fd5b8035614cfa614cf5826157da565b6157b6565b818152886020838501011115614d0e578384fd5b81602084016020830137908101602001929092525092959194509250565b60008060408385031215614d3e578182fd5b8235614d4981615828565b91506020830135614c3a8161583d565b60008060408385031215614d6b578182fd5b8235614d7681615828565b946020939093013593505050565b60008060208385031215614d96578182fd5b823567ffffffffffffffff811115614dac578283fd5b614db885828601614b6d565b90969095509350505050565b600060208284031215614dd5578081fd5b8135610db08161583d565b600060208284031215614df1578081fd5b8151610db08161583d565b600060208284031215614e0d578081fd5b81356001600160e01b031981168114610db0578182fd5b60008060008060008060008060006101208a8c031215614e42578687fd5b8935614e4d81615828565b985060208a0135614e5d81615828565b975060408a0135614e6d81615828565b965060608a0135614e7d81615828565b955060808a0135614e8d81615828565b945060a08a0135614e9d81615828565b935060c08a0135614ead81615828565b925060e08a01359150614ec36101008b01614bc1565b90509295985092959850929598565b60008060008060008060008060008060006101608c8e031215614ef3578485fd5b8b35614efe81615828565b9a5060208c0135614f0e81615828565b995060408c0135614f1e81615828565b985060608c0135614f2e81615828565b975060808c0135614f3e81615828565b965060a08c0135614f4e81615828565b955060c08c0135614f5e81615828565b945060e08c0135614f6e81615828565b93506101008c01359250614f856101208d01614bc1565b9150614f946101408d01614bc1565b90509295989b509295989b9093969950565b60008060008060808587031215614fbb578182fd5b614fc485614baf565b9350614fd260208601614baf565b92506040850151614fe28161584b565b6060860151909250614ff38161584b565b939692955090935050565b60006020828403121561500f578081fd5b815167ffffffffffffffff811115615025578182fd5b8201601f81018413615035578182fd5b8051615043614cf5826157da565b818152856020838501011115615057578384fd5b6150688260208301602086016157fc565b95945050505050565b600060c08284031215615082578081fd5b50919050565b6000818303608081121561509a578182fd5b6040516040810167ffffffffffffffff82821081831117156150b857fe5b8160405260608412156150c9578485fd5b60a08301935081841081851117156150dd57fe5b5082604052843592506150ef83615828565b91825260208401359161510183615828565b8260608301526040850135925061511783615860565b60808201839052815261512c60608501614b62565b6020820152949350505050565b60006020828403121561514a578081fd5b8135610db08161584b565b60008060408385031215615167578182fd5b82516151728161584b565b6020840151909250614c3a8161584b565b600080600080600060a0868803121561519a578283fd5b85516151a58161584b565b80955050602086015193506040860151925060608601516151c58161584b565b60808701519092506151d68161584b565b809150509295509295909350565b6000602082840312156151f5578081fd5b8135610db081615860565b600060208284031215615211578081fd5b8151610db081615860565b60006020828403121561522d578081fd5b5035919050565b600060208284031215615245578081fd5b5051919050565b6000806040838503121561525e578182fd5b50508035926020909101359150565b6000806040838503121561527f578182fd5b505080516020909101519092909150565b6000806000606084860312156152a4578081fd5b833592506020840135915060408401356152bd81615828565b809150509250925092565b600080600080606085870312156152dd578182fd5b8435935060208501359250604085013567ffffffffffffffff80821115615302578384fd5b818701915087601f830112615315578384fd5b813581811115615323578485fd5b886020828501011115615334578485fd5b95989497505060200194505050565b60008060008060808587031215615358578182fd5b5050823594602084013594506040840135936060013592509050565b600060208284031215615385578081fd5b610db082614bc1565b600081518084526153a68160208601602086016157fc565b601f01601f19169290920160200192915050565b6000828483379101908152919050565b6001600160a01b0391909116815260200190565b600060018060a01b03871682528560020b60208301528460020b60408301526001600160801b038416606083015260a060808301526149b960a083018461538e565b6001600160a01b03959095168552600293840b60208601529190920b60408401526001600160801b03918216606084015216608082015260a00190565b6001600160a01b03929092168252602082015260400190565b6001600160a01b039b8c168152998b1660208b015297909916604089015262ffffff959095166060880152600293840b60808801529190920b60a08601526001600160801b0390911660c085015260e08401526101008301526101208201929092526101408101919091526101600190565b6000602080830181845280855180835260408601915060408482028701019250838701855b8281101561553b57603f1988860301845261552985835161538e565b9450928501929085019060010161550d565b5092979650505050505050565b901515815260200190565b92151583526020830191909152604082015260600190565b931515845260208401929092526040830152606082015260800190565b90815260200190565b6001600160a01b039586168152938516602085015291841660408401529092166060820152608081019190915260a00190565b6001600160a01b03949094168452600292830b6020850152910b60408301526001600160801b0316606082015260800190565b6001600160a01b0394851681529290931660208301526001600160801b039081166040830152909116606082015260800190565b600293840b81529190920b60208201526001600160801b03909116604082015260600190565b600060208252610db0602083018461538e565b602080825260029082015261105160f21b604082015260600190565b6020808252600b908201526a494e56414c49445f46454560a81b604082015260600190565b815180516001600160a01b03908116835260208083015182168185015260409283015162ffffff1692840192909252920151909116606082015260800190565b6001600160801b0392831681529116602082015260400190565b6001600160801b0394851681526001600160a01b039390931660208401529083166040830152909116606082015260800190565b9283526001600160a01b03918216602084015216604082015260600190565b918252602082015260400190565b63ffffffff91909116815260200190565b6000808335601e19843603018112615787578283fd5b83018035915067ffffffffffffffff8211156157a1578283fd5b602001915036819003821315612b8657600080fd5b60405181810167ffffffffffffffff811182821017156157d257fe5b604052919050565b600067ffffffffffffffff8211156157ee57fe5b50601f01601f191660200190565b60005b838110156158175781810151838201526020016157ff565b83811115611df25750506000910152565b6001600160a01b038116811461128157600080fd5b801515811461128157600080fd5b6001600160801b038116811461128157600080fd5b62ffffff8116811461128157600080fdfe456e756d657261626c655365743a20696e646578206f7574206f6620626f756e64734552433732313a207472616e7366657220746f206e6f6e20455243373231526563656976657220696d706c656d656e7465724552433732313a207472616e7366657220746f20746865207a65726f20616464726573734552433732313a206f70657261746f7220717565727920666f72206e6f6e6578697374656e7420746f6b656e4552433732313a20617070726f76652063616c6c6572206973206e6f74206f776e6572206e6f7220617070726f76656420666f7220616c6c4552433732313a2062616c616e636520717565727920666f7220746865207a65726f20616464726573734552433732313a206f776e657220717565727920666f72206e6f6e6578697374656e7420746f6b656e496e697469616c697a61626c653a20636f6e747261637420697320616c726561647920696e697469616c697a6564456e756d657261626c654d61703a20696e646578206f7574206f6620626f756e6473536166654d6174683a206d756c7469706c69636174696f6e206f766572666c6f774552433732313a20617070726f76656420717565727920666f72206e6f6e6578697374656e7420746f6b656e4552433732313a207472616e73666572206f6620746f6b656e2074686174206973206e6f74206f776e4552433732314d657461646174613a2055524920717565727920666f72206e6f6e6578697374656e7420746f6b656e4552433732313a20617070726f76616c20746f2063757272656e74206f776e65724552433732313a207472616e736665722063616c6c6572206973206e6f74206f776e6572206e6f7220617070726f766564a26469706673582212208ff38120fdf6738f4f4a00d5e094df730ef19f7c82382bfc369e449c1f7fe2e864736f6c63430007060033",
  "immutableReferences": {},
  "source": "// SPDX-License-Identifier: MIT\n\npragma solidity >=0.7.5;\npragma abicoder v2;\n\nimport \"@openzeppelin/contracts/token/ERC721/IERC721.sol\";\n\nimport \"../LimitOrderManager.sol\";\n\n/// @title  OpLimitOrderManager\ncontract OpLimitOrderManager is LimitOrderManager {\n\n    using SafeMath for uint256;\n\n    /// @dev whitelisting enabled\n    bool private whitelistingEnabled;\n\n    /// @dev access token\n    IERC721 OPAccessToken;\n\n    /// @dev protocol fee discount for access token holders ; 0% discount --> 100% discount\n    uint32 public protocolFeeDiscount;\n\n    /// @notice Initializes the smart contract instead of a constructor\n    /// @param  _factory univ3 factory\n    /// @param  _quoter univ3 quoter\n    /// @param  _WETH wrapped ETH\n    /// @param  _utils limit manager utils\n    /// @param  _KROM kromatika token\n    /// @param  _feeAddress protocol fee address\n    /// @param  _gasUsageMonitor estimated gas usage of monitors\n    /// @param  _protocolFee charged fee\n    /// @param  _protocolFeeDiscount discount applied on the protocol fee\n    function initialize(\n        IUniswapV3Factory _factory,\n        IQuoter _quoter,\n        IWETH9 _WETH,\n        WETHExtended _WETHExtended,\n        ManagerUtils _utils,\n        IERC20 _KROM,\n        IERC721 _OPAccessToken,\n        address _feeAddress,\n        uint256 _gasUsageMonitor,\n        uint32  _protocolFee,\n        uint32  _protocolFeeDiscount\n    ) public initializer {\n\n        whitelistingEnabled = true;\n        OPAccessToken = _OPAccessToken;\n        protocolFeeDiscount = _protocolFeeDiscount;\n\n        super.initialize(\n            _factory, _quoter, _WETH, _WETHExtended, _utils, _KROM,\n            _feeAddress, _gasUsageMonitor, _protocolFee\n        );\n    }\n\n    function placeLimitOrder(LimitOrderParams calldata params)\n    public payable override returns (\n        uint256 _tokenId\n    ) {\n        isAuthorizedUser();\n        return super.placeLimitOrder(params);\n    }\n\n    function toggleWhitelisting(bool _whitelistingEnabled) external {\n\n        isAuthorizedController();\n        whitelistingEnabled = _whitelistingEnabled;\n    }\n\n    function estimateServiceFee(\n        uint256 _targetGasPrice,\n        uint256 _noOrders,\n        address _owner) public override virtual\n    returns (uint256 _serviceFee, uint256 _monitorFee) {\n\n        (_serviceFee,_monitorFee) = super.estimateServiceFee(\n            _targetGasPrice,\n            _noOrders,\n            _owner\n        );\n\n        // if _owner has the access NFT; give a discount on the protocol fee\n        if (OPAccessToken.balanceOf(_owner) > 0) {\n            uint256 _protocolFee = _serviceFee.sub(_monitorFee);\n\n            _protocolFee = _protocolFee\n                            .mul(PROTOCOL_FEE_MULTIPLIER.sub(protocolFeeDiscount))\n                            .div(PROTOCOL_FEE_MULTIPLIER);\n\n            _serviceFee = _monitorFee.add(_protocolFee);\n        }\n    }\n\n    function isAuthorizedUser() internal view {\n        require(whitelistingEnabled\n            ? OPAccessToken.balanceOf(msg.sender) > 0\n            : true, 'AD');\n    }\n\n}",
  "sourcePath": "/Users/aristokrates/Downloads/limit-trade-main/contracts/optimism/OpLimitOrderManager.sol",
  "compiler": {
    "name": "solc",
    "version": "0.7.6+commit.7338295f.Emscripten.clang"
  },
  "schemaVersion": "3.4.4",
  "updatedAt": "2021-12-19T21:38:43.900Z",
  "devdoc": {
    "kind": "dev",
    "methods": {
      "approve(address,uint256)": {
        "details": "See {IERC721-approve}."
      },
      "balanceOf(address)": {
        "details": "See {IERC721-balanceOf}."
      },
      "baseURI()": {
        "details": "Returns the base URI set via {_setBaseURI}. This will be automatically added as a prefix in {tokenURI} to each token's URI, or to the token ID if no specific URI is set for that token ID."
      },
      "getApproved(uint256)": {
        "details": "See {IERC721-getApproved}."
      },
      "initialize(address,address,address,address,address,address,address,address,uint256,uint32,uint32)": {
        "params": {
          "_KROM": "kromatika token",
          "_WETH": "wrapped ETH",
          "_factory": "univ3 factory",
          "_feeAddress": "protocol fee address",
          "_gasUsageMonitor": "estimated gas usage of monitors",
          "_protocolFee": "charged fee",
          "_protocolFeeDiscount": "discount applied on the protocol fee",
          "_quoter": "univ3 quoter",
          "_utils": "limit manager utils"
        }
      },
      "initialize(address,address,address,address,address,address,address,uint256,uint32)": {
        "params": {
          "_KROM": "kromatika token",
          "_WETH": "wrapped ETH",
          "_factory": "univ3 factory",
          "_feeAddress": "protocol fee address",
          "_gasUsageMonitor": "estimated gas usage of monitors",
          "_protocolFee": "charged fee",
          "_quoter": "univ3 quoter",
          "_utils": "limit manager utils"
        }
      },
      "isApprovedForAll(address,address)": {
        "details": "See {IERC721-isApprovedForAll}."
      },
      "multicall(bytes[])": {
        "details": "The `msg.value` should not be trusted for any method callable from multicall.",
        "params": {
          "data": "The encoded function data for each of the calls to make to this contract"
        },
        "returns": {
          "results": "The results from each of the calls passed in via data"
        }
      },
      "name()": {
        "details": "See {IERC721Metadata-name}."
      },
      "ownerOf(uint256)": {
        "details": "See {IERC721-ownerOf}."
      },
      "safeTransferFrom(address,address,uint256)": {
        "details": "See {IERC721-safeTransferFrom}."
      },
      "safeTransferFrom(address,address,uint256,bytes)": {
        "details": "See {IERC721-safeTransferFrom}."
      },
      "setApprovalForAll(address,bool)": {
        "details": "See {IERC721-setApprovalForAll}."
      },
      "supportsInterface(bytes4)": {
        "details": "See {IERC165-supportsInterface}. Time complexity O(1), guaranteed to always use less than 30 000 gas."
      },
      "symbol()": {
        "details": "See {IERC721Metadata-symbol}."
      },
      "tokenByIndex(uint256)": {
        "details": "See {IERC721Enumerable-tokenByIndex}."
      },
      "tokenOfOwnerByIndex(address,uint256)": {
        "details": "See {IERC721Enumerable-tokenOfOwnerByIndex}."
      },
      "tokenURI(uint256)": {
        "details": "See {IERC721Metadata-tokenURI}."
      },
      "totalSupply()": {
        "details": "See {IERC721Enumerable-totalSupply}."
      },
      "transferFrom(address,address,uint256)": {
        "details": "See {IERC721-transferFrom}."
      },
      "uniswapV3MintCallback(uint256,uint256,bytes)": {
        "details": "In the implementation you must pay the pool tokens owed for the minted liquidity. The caller of this method must be checked to be a UniswapV3Pool deployed by the canonical UniswapV3Factory.",
        "params": {
          "amount0Owed": "The amount of token0 due to the pool for the minted liquidity",
          "amount1Owed": "The amount of token1 due to the pool for the minted liquidity",
          "data": "Any data passed through by the caller via the IUniswapV3PoolActions#mint call"
        }
      }
    },
    "stateVariables": {
      "OPAccessToken": {
        "details": "access token"
      },
      "protocolFeeDiscount": {
        "details": "protocol fee discount for access token holders ; 0% discount --> 100% discount"
      },
      "whitelistingEnabled": {
        "details": "whitelisting enabled"
      }
    },
    "title": "OpLimitOrderManager",
    "version": 1
  },
  "userdoc": {
    "kind": "user",
    "methods": {
      "initialize(address,address,address,address,address,address,address,address,uint256,uint32,uint32)": {
        "notice": "Initializes the smart contract instead of a constructor"
      },
      "initialize(address,address,address,address,address,address,address,uint256,uint32)": {
        "notice": "Initializes the smart contract instead of a constructorr"
      },
      "multicall(bytes[])": {
        "notice": "Call multiple functions in the current contract and return the data from all of them if they all succeed"
      },
      "uniswapV3MintCallback(uint256,uint256,bytes)": {
        "notice": "Called to `msg.sender` after minting liquidity to a position from IUniswapV3Pool#mint."
      }
    },
    "version": 1
  }
}