{
  "contractName": "WETHExtended",
  "abi": [
    {
      "stateMutability": "payable",
      "type": "receive"
    },
    {
      "inputs": [
        {
          "internalType": "uint256",
          "name": "wad",
          "type": "uint256"
        },
        {
          "internalType": "address",
          "name": "_beneficiary",
          "type": "address"
        },
        {
          "internalType": "contract IWETH9",
          "name": "WETH",
          "type": "address"
        }
      ],
      "name": "withdraw",
      "outputs": [],
      "stateMutability": "nonpayable",
      "type": "function"
    }
  ],
  "bytecode": "0x608060405234801561001057600080fd5b50610203806100206000396000f3fe6080604052600436106100225760003560e01c8063b460af941461002e57610029565b3661002957005b600080fd5b34801561003a57600080fd5b5061006f6004803603606081101561005157600080fd5b508035906001600160a01b0360208201358116916040013516610071565b005b806001600160a01b0316632e1a7d4d846040518263ffffffff1660e01b815260040180828152602001915050600060405180830381600087803b1580156100b757600080fd5b505af11580156100cb573d6000803e3d6000fd5b505050506100d982846100de565b505050565b604080516000808252602082019092526001600160a01b0384169083906040518082805190602001908083835b6020831061012a5780518252601f19909201916020918201910161010b565b6001836020036101000a03801982511681845116808217855250505050505090500191505060006040518083038185875af1925050503d806000811461018c576040519150601f19603f3d011682016040523d82523d6000602084013e610191565b606091505b50509050806100d9576040805162461bcd60e51b815260206004820152600360248201526253544560e81b604482015290519081900360640190fdfea2646970667358221220d372d7c1c00ec8b9915e23fd738a22a2314f66ec2b70e869f765d1728c19046064736f6c63430007060033",
  "immutableReferences": {},
  "source": "// SPDX-License-Identifier: MIT\n\npragma solidity >=0.7.5;\n\nimport \"@uniswap/v3-periphery/contracts/interfaces/external/IWETH9.sol\";\nimport \"@uniswap/v3-periphery/contracts/libraries/TransferHelper.sol\";\n\ncontract WETHExtended {\n\n    function withdraw(uint wad, address _beneficiary, IWETH9 WETH) public {\n\n        WETH.withdraw(wad);\n        TransferHelper.safeTransferETH(_beneficiary, wad);\n    }\n\n    receive() external payable {}\n}",
  "sourcePath": "/Users/aristokrates/Downloads/limit-trade-main/contracts/WETHExtended.sol",
  "compiler": {
    "name": "solc",
    "version": "0.7.6+commit.7338295f.Emscripten.clang"
  },
  "schemaVersion": "3.4.4",
  "updatedAt": "2021-12-19T21:38:43.895Z",
  "devdoc": {
    "kind": "dev",
    "methods": {},
    "version": 1
  },
  "userdoc": {
    "kind": "user",
    "methods": {},
    "version": 1
  }
}